Archive member included to satisfy reference by file (symbol)

/opt/gcc-arm-none-eabi-9-2019-q4-major/bin/../lib/gcc/arm-none-eabi/9.2.1/thumb/v7e-m+fp/softfp/libgcc.a(_aeabi_uldivmod.o)
                              build/tsb0//home/gerda/SimplicityStudio_v4/developer/sdks/gecko_sdk_suite/v2.6/platform/emlib/src/em_usart.o (__aeabi_uldivmod)
/opt/gcc-arm-none-eabi-9-2019-q4-major/bin/../lib/gcc/arm-none-eabi/9.2.1/thumb/v7e-m+fp/softfp/libgcc.a(_udivmoddi4.o)
                              /opt/gcc-arm-none-eabi-9-2019-q4-major/bin/../lib/gcc/arm-none-eabi/9.2.1/thumb/v7e-m+fp/softfp/libgcc.a(_aeabi_uldivmod.o) (__udivmoddi4)
/opt/gcc-arm-none-eabi-9-2019-q4-major/bin/../lib/gcc/arm-none-eabi/9.2.1/thumb/v7e-m+fp/softfp/libgcc.a(_dvmd_tls.o)
                              /opt/gcc-arm-none-eabi-9-2019-q4-major/bin/../lib/gcc/arm-none-eabi/9.2.1/thumb/v7e-m+fp/softfp/libgcc.a(_aeabi_uldivmod.o) (__aeabi_ldiv0)
/opt/gcc-arm-none-eabi-9-2019-q4-major/bin/../lib/gcc/arm-none-eabi/9.2.1/../../../../arm-none-eabi/lib/thumb/v7e-m+fp/softfp/libg.a(lib_a-fflush.o)
                              build/tsb0/blink_main.o (fflush)
/opt/gcc-arm-none-eabi-9-2019-q4-major/bin/../lib/gcc/arm-none-eabi/9.2.1/../../../../arm-none-eabi/lib/thumb/v7e-m+fp/softfp/libg.a(lib_a-findfp.o)
                              /opt/gcc-arm-none-eabi-9-2019-q4-major/bin/../lib/gcc/arm-none-eabi/9.2.1/../../../../arm-none-eabi/lib/thumb/v7e-m+fp/softfp/libg.a(lib_a-fflush.o) (__sinit)
/opt/gcc-arm-none-eabi-9-2019-q4-major/bin/../lib/gcc/arm-none-eabi/9.2.1/../../../../arm-none-eabi/lib/thumb/v7e-m+fp/softfp/libg.a(lib_a-freer.o)
                              /opt/gcc-arm-none-eabi-9-2019-q4-major/bin/../lib/gcc/arm-none-eabi/9.2.1/../../../../arm-none-eabi/lib/thumb/v7e-m+fp/softfp/libg.a(lib_a-fflush.o) (_free_r)
/opt/gcc-arm-none-eabi-9-2019-q4-major/bin/../lib/gcc/arm-none-eabi/9.2.1/../../../../arm-none-eabi/lib/thumb/v7e-m+fp/softfp/libg.a(lib_a-fwalk.o)
                              /opt/gcc-arm-none-eabi-9-2019-q4-major/bin/../lib/gcc/arm-none-eabi/9.2.1/../../../../arm-none-eabi/lib/thumb/v7e-m+fp/softfp/libg.a(lib_a-findfp.o) (_fwalk)
/opt/gcc-arm-none-eabi-9-2019-q4-major/bin/../lib/gcc/arm-none-eabi/9.2.1/../../../../arm-none-eabi/lib/thumb/v7e-m+fp/softfp/libg.a(lib_a-fwrite.o)
                              build/tsb0/blink_main.o (fwrite)
/opt/gcc-arm-none-eabi-9-2019-q4-major/bin/../lib/gcc/arm-none-eabi/9.2.1/../../../../arm-none-eabi/lib/thumb/v7e-m+fp/softfp/libg.a(lib_a-impure.o)
                              /opt/gcc-arm-none-eabi-9-2019-q4-major/bin/../lib/gcc/arm-none-eabi/9.2.1/../../../../arm-none-eabi/lib/thumb/v7e-m+fp/softfp/libg.a(lib_a-fflush.o) (_global_impure_ptr)
/opt/gcc-arm-none-eabi-9-2019-q4-major/bin/../lib/gcc/arm-none-eabi/9.2.1/../../../../arm-none-eabi/lib/thumb/v7e-m+fp/softfp/libg.a(lib_a-lock.o)
                              /opt/gcc-arm-none-eabi-9-2019-q4-major/bin/../lib/gcc/arm-none-eabi/9.2.1/../../../../arm-none-eabi/lib/thumb/v7e-m+fp/softfp/libg.a(lib_a-findfp.o) (__retarget_lock_init_recursive)
/opt/gcc-arm-none-eabi-9-2019-q4-major/bin/../lib/gcc/arm-none-eabi/9.2.1/../../../../arm-none-eabi/lib/thumb/v7e-m+fp/softfp/libg.a(lib_a-mallocr.o)
                              /opt/gcc-arm-none-eabi-9-2019-q4-major/bin/../lib/gcc/arm-none-eabi/9.2.1/../../../../arm-none-eabi/lib/thumb/v7e-m+fp/softfp/libg.a(lib_a-findfp.o) (_malloc_r)
/opt/gcc-arm-none-eabi-9-2019-q4-major/bin/../lib/gcc/arm-none-eabi/9.2.1/../../../../arm-none-eabi/lib/thumb/v7e-m+fp/softfp/libg.a(lib_a-memcpy.o)
                              build/tsb0//home/gerda/node-apps/zoo/FreeRTOS-Kernel/queue.o (memcpy)
/opt/gcc-arm-none-eabi-9-2019-q4-major/bin/../lib/gcc/arm-none-eabi/9.2.1/../../../../arm-none-eabi/lib/thumb/v7e-m+fp/softfp/libg.a(lib_a-memset.o)
                              build/tsb0/blink_main.o (memset)
/opt/gcc-arm-none-eabi-9-2019-q4-major/bin/../lib/gcc/arm-none-eabi/9.2.1/../../../../arm-none-eabi/lib/thumb/v7e-m+fp/softfp/libg.a(lib_a-mlock.o)
                              /opt/gcc-arm-none-eabi-9-2019-q4-major/bin/../lib/gcc/arm-none-eabi/9.2.1/../../../../arm-none-eabi/lib/thumb/v7e-m+fp/softfp/libg.a(lib_a-freer.o) (__malloc_lock)
/opt/gcc-arm-none-eabi-9-2019-q4-major/bin/../lib/gcc/arm-none-eabi/9.2.1/../../../../arm-none-eabi/lib/thumb/v7e-m+fp/softfp/libg.a(lib_a-sbrkr.o)
                              /opt/gcc-arm-none-eabi-9-2019-q4-major/bin/../lib/gcc/arm-none-eabi/9.2.1/../../../../arm-none-eabi/lib/thumb/v7e-m+fp/softfp/libg.a(lib_a-freer.o) (_sbrk_r)
/opt/gcc-arm-none-eabi-9-2019-q4-major/bin/../lib/gcc/arm-none-eabi/9.2.1/../../../../arm-none-eabi/lib/thumb/v7e-m+fp/softfp/libg.a(lib_a-setvbuf.o)
                              build/tsb0//home/gerda/SimplicityStudio_v4/developer/sdks/gecko_sdk_suite/v2.6/hardware/kit/common/drivers/retargetserial.o (setvbuf)
/opt/gcc-arm-none-eabi-9-2019-q4-major/bin/../lib/gcc/arm-none-eabi/9.2.1/../../../../arm-none-eabi/lib/thumb/v7e-m+fp/softfp/libg.a(lib_a-snprintf.o)
                              build/tsb0//home/gerda/node-apps/zoo/thinnect.lll/logging/loggers_ext.o (snprintf)
/opt/gcc-arm-none-eabi-9-2019-q4-major/bin/../lib/gcc/arm-none-eabi/9.2.1/../../../../arm-none-eabi/lib/thumb/v7e-m+fp/softfp/libg.a(lib_a-stdio.o)
                              /opt/gcc-arm-none-eabi-9-2019-q4-major/bin/../lib/gcc/arm-none-eabi/9.2.1/../../../../arm-none-eabi/lib/thumb/v7e-m+fp/softfp/libg.a(lib_a-findfp.o) (__sread)
/opt/gcc-arm-none-eabi-9-2019-q4-major/bin/../lib/gcc/arm-none-eabi/9.2.1/../../../../arm-none-eabi/lib/thumb/v7e-m+fp/softfp/libg.a(lib_a-svfprintf.o)
                              /opt/gcc-arm-none-eabi-9-2019-q4-major/bin/../lib/gcc/arm-none-eabi/9.2.1/../../../../arm-none-eabi/lib/thumb/v7e-m+fp/softfp/libg.a(lib_a-snprintf.o) (_svfprintf_r)
/opt/gcc-arm-none-eabi-9-2019-q4-major/bin/../lib/gcc/arm-none-eabi/9.2.1/../../../../arm-none-eabi/lib/thumb/v7e-m+fp/softfp/libg.a(lib_a-vsnprintf.o)
                              build/tsb0//home/gerda/node-apps/zoo/thinnect.lll/logging/loggers_ext.o (vsnprintf)
/opt/gcc-arm-none-eabi-9-2019-q4-major/bin/../lib/gcc/arm-none-eabi/9.2.1/../../../../arm-none-eabi/lib/thumb/v7e-m+fp/softfp/libg.a(lib_a-writer.o)
                              /opt/gcc-arm-none-eabi-9-2019-q4-major/bin/../lib/gcc/arm-none-eabi/9.2.1/../../../../arm-none-eabi/lib/thumb/v7e-m+fp/softfp/libg.a(lib_a-stdio.o) (_write_r)
/opt/gcc-arm-none-eabi-9-2019-q4-major/bin/../lib/gcc/arm-none-eabi/9.2.1/../../../../arm-none-eabi/lib/thumb/v7e-m+fp/softfp/libg.a(lib_a-closer.o)
                              /opt/gcc-arm-none-eabi-9-2019-q4-major/bin/../lib/gcc/arm-none-eabi/9.2.1/../../../../arm-none-eabi/lib/thumb/v7e-m+fp/softfp/libg.a(lib_a-stdio.o) (_close_r)
/opt/gcc-arm-none-eabi-9-2019-q4-major/bin/../lib/gcc/arm-none-eabi/9.2.1/../../../../arm-none-eabi/lib/thumb/v7e-m+fp/softfp/libg.a(lib_a-dtoa.o)
                              /opt/gcc-arm-none-eabi-9-2019-q4-major/bin/../lib/gcc/arm-none-eabi/9.2.1/../../../../arm-none-eabi/lib/thumb/v7e-m+fp/softfp/libg.a(lib_a-svfprintf.o) (_dtoa_r)
/opt/gcc-arm-none-eabi-9-2019-q4-major/bin/../lib/gcc/arm-none-eabi/9.2.1/../../../../arm-none-eabi/lib/thumb/v7e-m+fp/softfp/libg.a(lib_a-fclose.o)
                              /opt/gcc-arm-none-eabi-9-2019-q4-major/bin/../lib/gcc/arm-none-eabi/9.2.1/../../../../arm-none-eabi/lib/thumb/v7e-m+fp/softfp/libg.a(lib_a-findfp.o) (_fclose_r)
/opt/gcc-arm-none-eabi-9-2019-q4-major/bin/../lib/gcc/arm-none-eabi/9.2.1/../../../../arm-none-eabi/lib/thumb/v7e-m+fp/softfp/libg.a(lib_a-fvwrite.o)
                              /opt/gcc-arm-none-eabi-9-2019-q4-major/bin/../lib/gcc/arm-none-eabi/9.2.1/../../../../arm-none-eabi/lib/thumb/v7e-m+fp/softfp/libg.a(lib_a-fwrite.o) (__sfvwrite_r)
/opt/gcc-arm-none-eabi-9-2019-q4-major/bin/../lib/gcc/arm-none-eabi/9.2.1/../../../../arm-none-eabi/lib/thumb/v7e-m+fp/softfp/libg.a(lib_a-localeconv.o)
                              /opt/gcc-arm-none-eabi-9-2019-q4-major/bin/../lib/gcc/arm-none-eabi/9.2.1/../../../../arm-none-eabi/lib/thumb/v7e-m+fp/softfp/libg.a(lib_a-svfprintf.o) (_localeconv_r)
/opt/gcc-arm-none-eabi-9-2019-q4-major/bin/../lib/gcc/arm-none-eabi/9.2.1/../../../../arm-none-eabi/lib/thumb/v7e-m+fp/softfp/libg.a(lib_a-lseekr.o)
                              /opt/gcc-arm-none-eabi-9-2019-q4-major/bin/../lib/gcc/arm-none-eabi/9.2.1/../../../../arm-none-eabi/lib/thumb/v7e-m+fp/softfp/libg.a(lib_a-stdio.o) (_lseek_r)
/opt/gcc-arm-none-eabi-9-2019-q4-major/bin/../lib/gcc/arm-none-eabi/9.2.1/../../../../arm-none-eabi/lib/thumb/v7e-m+fp/softfp/libg.a(lib_a-makebuf.o)
                              /opt/gcc-arm-none-eabi-9-2019-q4-major/bin/../lib/gcc/arm-none-eabi/9.2.1/../../../../arm-none-eabi/lib/thumb/v7e-m+fp/softfp/libg.a(lib_a-setvbuf.o) (__swhatbuf_r)
/opt/gcc-arm-none-eabi-9-2019-q4-major/bin/../lib/gcc/arm-none-eabi/9.2.1/../../../../arm-none-eabi/lib/thumb/v7e-m+fp/softfp/libg.a(lib_a-malloc.o)
                              /opt/gcc-arm-none-eabi-9-2019-q4-major/bin/../lib/gcc/arm-none-eabi/9.2.1/../../../../arm-none-eabi/lib/thumb/v7e-m+fp/softfp/libg.a(lib_a-setvbuf.o) (malloc)
/opt/gcc-arm-none-eabi-9-2019-q4-major/bin/../lib/gcc/arm-none-eabi/9.2.1/../../../../arm-none-eabi/lib/thumb/v7e-m+fp/softfp/libg.a(lib_a-memchr.o)
                              /opt/gcc-arm-none-eabi-9-2019-q4-major/bin/../lib/gcc/arm-none-eabi/9.2.1/../../../../arm-none-eabi/lib/thumb/v7e-m+fp/softfp/libg.a(lib_a-svfprintf.o) (memchr)
/opt/gcc-arm-none-eabi-9-2019-q4-major/bin/../lib/gcc/arm-none-eabi/9.2.1/../../../../arm-none-eabi/lib/thumb/v7e-m+fp/softfp/libg.a(lib_a-memmove.o)
                              /opt/gcc-arm-none-eabi-9-2019-q4-major/bin/../lib/gcc/arm-none-eabi/9.2.1/../../../../arm-none-eabi/lib/thumb/v7e-m+fp/softfp/libg.a(lib_a-fvwrite.o) (memmove)
/opt/gcc-arm-none-eabi-9-2019-q4-major/bin/../lib/gcc/arm-none-eabi/9.2.1/../../../../arm-none-eabi/lib/thumb/v7e-m+fp/softfp/libg.a(lib_a-mprec.o)
                              /opt/gcc-arm-none-eabi-9-2019-q4-major/bin/../lib/gcc/arm-none-eabi/9.2.1/../../../../arm-none-eabi/lib/thumb/v7e-m+fp/softfp/libg.a(lib_a-dtoa.o) (_Balloc)
/opt/gcc-arm-none-eabi-9-2019-q4-major/bin/../lib/gcc/arm-none-eabi/9.2.1/../../../../arm-none-eabi/lib/thumb/v7e-m+fp/softfp/libg.a(lib_a-readr.o)
                              /opt/gcc-arm-none-eabi-9-2019-q4-major/bin/../lib/gcc/arm-none-eabi/9.2.1/../../../../arm-none-eabi/lib/thumb/v7e-m+fp/softfp/libg.a(lib_a-stdio.o) (_read_r)
/opt/gcc-arm-none-eabi-9-2019-q4-major/bin/../lib/gcc/arm-none-eabi/9.2.1/../../../../arm-none-eabi/lib/thumb/v7e-m+fp/softfp/libg.a(lib_a-reallocr.o)
                              /opt/gcc-arm-none-eabi-9-2019-q4-major/bin/../lib/gcc/arm-none-eabi/9.2.1/../../../../arm-none-eabi/lib/thumb/v7e-m+fp/softfp/libg.a(lib_a-fvwrite.o) (_realloc_r)
/opt/gcc-arm-none-eabi-9-2019-q4-major/bin/../lib/gcc/arm-none-eabi/9.2.1/../../../../arm-none-eabi/lib/thumb/v7e-m+fp/softfp/libg.a(lib_a-reent.o)
                              /opt/gcc-arm-none-eabi-9-2019-q4-major/bin/../lib/gcc/arm-none-eabi/9.2.1/../../../../arm-none-eabi/lib/thumb/v7e-m+fp/softfp/libg.a(lib_a-sbrkr.o) (errno)
/opt/gcc-arm-none-eabi-9-2019-q4-major/bin/../lib/gcc/arm-none-eabi/9.2.1/../../../../arm-none-eabi/lib/thumb/v7e-m+fp/softfp/libg.a(lib_a-s_frexp.o)
                              /opt/gcc-arm-none-eabi-9-2019-q4-major/bin/../lib/gcc/arm-none-eabi/9.2.1/../../../../arm-none-eabi/lib/thumb/v7e-m+fp/softfp/libg.a(lib_a-svfprintf.o) (frexp)
/opt/gcc-arm-none-eabi-9-2019-q4-major/bin/../lib/gcc/arm-none-eabi/9.2.1/../../../../arm-none-eabi/lib/thumb/v7e-m+fp/softfp/libg.a(lib_a-strlen.o)
                              /opt/gcc-arm-none-eabi-9-2019-q4-major/bin/../lib/gcc/arm-none-eabi/9.2.1/../../../../arm-none-eabi/lib/thumb/v7e-m+fp/softfp/libg.a(lib_a-svfprintf.o) (strlen)
/opt/gcc-arm-none-eabi-9-2019-q4-major/bin/../lib/gcc/arm-none-eabi/9.2.1/../../../../arm-none-eabi/lib/thumb/v7e-m+fp/softfp/libg.a(lib_a-strncpy.o)
                              /opt/gcc-arm-none-eabi-9-2019-q4-major/bin/../lib/gcc/arm-none-eabi/9.2.1/../../../../arm-none-eabi/lib/thumb/v7e-m+fp/softfp/libg.a(lib_a-svfprintf.o) (strncpy)
/opt/gcc-arm-none-eabi-9-2019-q4-major/bin/../lib/gcc/arm-none-eabi/9.2.1/../../../../arm-none-eabi/lib/thumb/v7e-m+fp/softfp/libg.a(lib_a-svfiprintf.o)
                              /opt/gcc-arm-none-eabi-9-2019-q4-major/bin/../lib/gcc/arm-none-eabi/9.2.1/../../../../arm-none-eabi/lib/thumb/v7e-m+fp/softfp/libg.a(lib_a-svfprintf.o) (__ssprint_r)
/opt/gcc-arm-none-eabi-9-2019-q4-major/bin/../lib/gcc/arm-none-eabi/9.2.1/../../../../arm-none-eabi/lib/thumb/v7e-m+fp/softfp/libg.a(lib_a-wsetup.o)
                              /opt/gcc-arm-none-eabi-9-2019-q4-major/bin/../lib/gcc/arm-none-eabi/9.2.1/../../../../arm-none-eabi/lib/thumb/v7e-m+fp/softfp/libg.a(lib_a-fvwrite.o) (__swsetup_r)
/opt/gcc-arm-none-eabi-9-2019-q4-major/bin/../lib/gcc/arm-none-eabi/9.2.1/../../../../arm-none-eabi/lib/thumb/v7e-m+fp/softfp/libg.a(lib_a-callocr.o)
                              /opt/gcc-arm-none-eabi-9-2019-q4-major/bin/../lib/gcc/arm-none-eabi/9.2.1/../../../../arm-none-eabi/lib/thumb/v7e-m+fp/softfp/libg.a(lib_a-mprec.o) (_calloc_r)
/opt/gcc-arm-none-eabi-9-2019-q4-major/bin/../lib/gcc/arm-none-eabi/9.2.1/../../../../arm-none-eabi/lib/thumb/v7e-m+fp/softfp/libg.a(lib_a-fstatr.o)
                              /opt/gcc-arm-none-eabi-9-2019-q4-major/bin/../lib/gcc/arm-none-eabi/9.2.1/../../../../arm-none-eabi/lib/thumb/v7e-m+fp/softfp/libg.a(lib_a-makebuf.o) (_fstat_r)
/opt/gcc-arm-none-eabi-9-2019-q4-major/bin/../lib/gcc/arm-none-eabi/9.2.1/../../../../arm-none-eabi/lib/thumb/v7e-m+fp/softfp/libg.a(lib_a-isattyr.o)
                              /opt/gcc-arm-none-eabi-9-2019-q4-major/bin/../lib/gcc/arm-none-eabi/9.2.1/../../../../arm-none-eabi/lib/thumb/v7e-m+fp/softfp/libg.a(lib_a-makebuf.o) (_isatty_r)
/opt/gcc-arm-none-eabi-9-2019-q4-major/bin/../lib/gcc/arm-none-eabi/9.2.1/../../../../arm-none-eabi/lib/thumb/v7e-m+fp/softfp/libg.a(lib_a-locale.o)
                              /opt/gcc-arm-none-eabi-9-2019-q4-major/bin/../lib/gcc/arm-none-eabi/9.2.1/../../../../arm-none-eabi/lib/thumb/v7e-m+fp/softfp/libg.a(lib_a-localeconv.o) (__global_locale)
/opt/gcc-arm-none-eabi-9-2019-q4-major/bin/../lib/gcc/arm-none-eabi/9.2.1/../../../../arm-none-eabi/lib/thumb/v7e-m+fp/softfp/libg.a(lib_a-mbtowc_r.o)
                              /opt/gcc-arm-none-eabi-9-2019-q4-major/bin/../lib/gcc/arm-none-eabi/9.2.1/../../../../arm-none-eabi/lib/thumb/v7e-m+fp/softfp/libg.a(lib_a-locale.o) (__ascii_mbtowc)
/opt/gcc-arm-none-eabi-9-2019-q4-major/bin/../lib/gcc/arm-none-eabi/9.2.1/../../../../arm-none-eabi/lib/thumb/v7e-m+fp/softfp/libg.a(lib_a-strcmp.o)
                              /opt/gcc-arm-none-eabi-9-2019-q4-major/bin/../lib/gcc/arm-none-eabi/9.2.1/../../../../arm-none-eabi/lib/thumb/v7e-m+fp/softfp/libg.a(lib_a-locale.o) (strcmp)
/opt/gcc-arm-none-eabi-9-2019-q4-major/bin/../lib/gcc/arm-none-eabi/9.2.1/../../../../arm-none-eabi/lib/thumb/v7e-m+fp/softfp/libg.a(lib_a-wctomb_r.o)
                              /opt/gcc-arm-none-eabi-9-2019-q4-major/bin/../lib/gcc/arm-none-eabi/9.2.1/../../../../arm-none-eabi/lib/thumb/v7e-m+fp/softfp/libg.a(lib_a-locale.o) (__ascii_wctomb)
/opt/gcc-arm-none-eabi-9-2019-q4-major/bin/../lib/gcc/arm-none-eabi/9.2.1/../../../../arm-none-eabi/lib/thumb/v7e-m+fp/softfp/libg.a(lib_a-ctype_.o)
                              /opt/gcc-arm-none-eabi-9-2019-q4-major/bin/../lib/gcc/arm-none-eabi/9.2.1/../../../../arm-none-eabi/lib/thumb/v7e-m+fp/softfp/libg.a(lib_a-locale.o) (_ctype_)
/opt/gcc-arm-none-eabi-9-2019-q4-major/bin/../lib/gcc/arm-none-eabi/9.2.1/thumb/v7e-m+fp/softfp/libgcc.a(_arm_muldf3.o)
                              /opt/gcc-arm-none-eabi-9-2019-q4-major/bin/../lib/gcc/arm-none-eabi/9.2.1/../../../../arm-none-eabi/lib/thumb/v7e-m+fp/softfp/libg.a(lib_a-svfprintf.o) (__aeabi_dmul)
/opt/gcc-arm-none-eabi-9-2019-q4-major/bin/../lib/gcc/arm-none-eabi/9.2.1/thumb/v7e-m+fp/softfp/libgcc.a(_arm_addsubdf3.o)
                              /opt/gcc-arm-none-eabi-9-2019-q4-major/bin/../lib/gcc/arm-none-eabi/9.2.1/../../../../arm-none-eabi/lib/thumb/v7e-m+fp/softfp/libg.a(lib_a-svfprintf.o) (__aeabi_dsub)
/opt/gcc-arm-none-eabi-9-2019-q4-major/bin/../lib/gcc/arm-none-eabi/9.2.1/thumb/v7e-m+fp/softfp/libgcc.a(_arm_muldivdf3.o)
                              /opt/gcc-arm-none-eabi-9-2019-q4-major/bin/../lib/gcc/arm-none-eabi/9.2.1/../../../../arm-none-eabi/lib/thumb/v7e-m+fp/softfp/libg.a(lib_a-dtoa.o) (__aeabi_ddiv)
/opt/gcc-arm-none-eabi-9-2019-q4-major/bin/../lib/gcc/arm-none-eabi/9.2.1/thumb/v7e-m+fp/softfp/libgcc.a(_arm_cmpdf2.o)
                              /opt/gcc-arm-none-eabi-9-2019-q4-major/bin/../lib/gcc/arm-none-eabi/9.2.1/../../../../arm-none-eabi/lib/thumb/v7e-m+fp/softfp/libg.a(lib_a-svfprintf.o) (__aeabi_dcmpeq)
/opt/gcc-arm-none-eabi-9-2019-q4-major/bin/../lib/gcc/arm-none-eabi/9.2.1/thumb/v7e-m+fp/softfp/libgcc.a(_arm_unorddf2.o)
                              /opt/gcc-arm-none-eabi-9-2019-q4-major/bin/../lib/gcc/arm-none-eabi/9.2.1/../../../../arm-none-eabi/lib/thumb/v7e-m+fp/softfp/libg.a(lib_a-svfprintf.o) (__aeabi_dcmpun)
/opt/gcc-arm-none-eabi-9-2019-q4-major/bin/../lib/gcc/arm-none-eabi/9.2.1/thumb/v7e-m+fp/softfp/libgcc.a(_arm_fixdfsi.o)
                              /opt/gcc-arm-none-eabi-9-2019-q4-major/bin/../lib/gcc/arm-none-eabi/9.2.1/../../../../arm-none-eabi/lib/thumb/v7e-m+fp/softfp/libg.a(lib_a-svfprintf.o) (__aeabi_d2iz)

Allocating common symbols
Common symbol       size              file

__lock___atexit_recursive_mutex
                    0x1               /opt/gcc-arm-none-eabi-9-2019-q4-major/bin/../lib/gcc/arm-none-eabi/9.2.1/../../../../arm-none-eabi/lib/thumb/v7e-m+fp/softfp/libg.a(lib_a-lock.o)
led0_sd             0x4               build/tsb0/timer_handler.o
__lock___arc4random_mutex
                    0x1               /opt/gcc-arm-none-eabi-9-2019-q4-major/bin/../lib/gcc/arm-none-eabi/9.2.1/../../../../arm-none-eabi/lib/thumb/v7e-m+fp/softfp/libg.a(lib_a-lock.o)
led0_toggle         0x1               build/tsb0/timer_handler.o
errno               0x4               /opt/gcc-arm-none-eabi-9-2019-q4-major/bin/../lib/gcc/arm-none-eabi/9.2.1/../../../../arm-none-eabi/lib/thumb/v7e-m+fp/softfp/libg.a(lib_a-reent.o)
led1_cnt            0x4               build/tsb0/timer_handler.o
led0_cnt            0x4               build/tsb0/timer_handler.o
led1_toggle         0x1               build/tsb0/timer_handler.o
__lock___env_recursive_mutex
                    0x1               /opt/gcc-arm-none-eabi-9-2019-q4-major/bin/../lib/gcc/arm-none-eabi/9.2.1/../../../../arm-none-eabi/lib/thumb/v7e-m+fp/softfp/libg.a(lib_a-lock.o)
__lock___sinit_recursive_mutex
                    0x1               /opt/gcc-arm-none-eabi-9-2019-q4-major/bin/../lib/gcc/arm-none-eabi/9.2.1/../../../../arm-none-eabi/lib/thumb/v7e-m+fp/softfp/libg.a(lib_a-lock.o)
__lock___malloc_recursive_mutex
                    0x1               /opt/gcc-arm-none-eabi-9-2019-q4-major/bin/../lib/gcc/arm-none-eabi/9.2.1/../../../../arm-none-eabi/lib/thumb/v7e-m+fp/softfp/libg.a(lib_a-lock.o)
led2_cnt            0x4               build/tsb0/timer_handler.o
led2_sd             0x4               build/tsb0/timer_handler.o
__lock___at_quick_exit_mutex
                    0x1               /opt/gcc-arm-none-eabi-9-2019-q4-major/bin/../lib/gcc/arm-none-eabi/9.2.1/../../../../arm-none-eabi/lib/thumb/v7e-m+fp/softfp/libg.a(lib_a-lock.o)
__lock___dd_hash_mutex
                    0x1               /opt/gcc-arm-none-eabi-9-2019-q4-major/bin/../lib/gcc/arm-none-eabi/9.2.1/../../../../arm-none-eabi/lib/thumb/v7e-m+fp/softfp/libg.a(lib_a-lock.o)
__lock___tz_mutex   0x1               /opt/gcc-arm-none-eabi-9-2019-q4-major/bin/../lib/gcc/arm-none-eabi/9.2.1/../../../../arm-none-eabi/lib/thumb/v7e-m+fp/softfp/libg.a(lib_a-lock.o)
led2_toggle         0x1               build/tsb0/timer_handler.o
__lock___sfp_recursive_mutex
                    0x1               /opt/gcc-arm-none-eabi-9-2019-q4-major/bin/../lib/gcc/arm-none-eabi/9.2.1/../../../../arm-none-eabi/lib/thumb/v7e-m+fp/softfp/libg.a(lib_a-lock.o)

Discarded input sections

 .text          0x0000000000000000        0x0 build/tsb0/blink_main.o
 .data          0x0000000000000000        0x0 build/tsb0/blink_main.o
 .bss           0x0000000000000000        0x0 build/tsb0/blink_main.o
 .text          0x0000000000000000        0x0 build/tsb0/timer_handler.o
 .data          0x0000000000000000        0x0 build/tsb0/timer_handler.o
 .bss           0x0000000000000000        0x0 build/tsb0/timer_handler.o
 .text          0x0000000000000000        0x0 build/tsb0//home/gerda/node-apps/zoo/FreeRTOS-Kernel/portable/GCC/ARM_CM4F/port.o
 .data          0x0000000000000000        0x0 build/tsb0//home/gerda/node-apps/zoo/FreeRTOS-Kernel/portable/GCC/ARM_CM4F/port.o
 .bss           0x0000000000000000        0x0 build/tsb0//home/gerda/node-apps/zoo/FreeRTOS-Kernel/portable/GCC/ARM_CM4F/port.o
 .rodata.pcInterruptPriorityRegisters
                0x0000000000000000        0x4 build/tsb0//home/gerda/node-apps/zoo/FreeRTOS-Kernel/portable/GCC/ARM_CM4F/port.o
 .text.vPortEndScheduler
                0x0000000000000000       0x20 build/tsb0//home/gerda/node-apps/zoo/FreeRTOS-Kernel/portable/GCC/ARM_CM4F/port.o
 .text          0x0000000000000000        0x0 build/tsb0//home/gerda/node-apps/zoo/FreeRTOS-Kernel/portable/MemMang/heap_5.o
 .data          0x0000000000000000        0x0 build/tsb0//home/gerda/node-apps/zoo/FreeRTOS-Kernel/portable/MemMang/heap_5.o
 .bss           0x0000000000000000        0x0 build/tsb0//home/gerda/node-apps/zoo/FreeRTOS-Kernel/portable/MemMang/heap_5.o
 .rodata.xHeapStructSize
                0x0000000000000000        0x4 build/tsb0//home/gerda/node-apps/zoo/FreeRTOS-Kernel/portable/MemMang/heap_5.o
Memory Configuration

Name             Origin             Length             Attributes
FLASH            0x0000000000000000 0x0000000000100000 xr
RAM              0x0000000020000000 0x0000000000040000 xrw
*default*        0x0000000000000000 0xffffffffffffffff

Linker script and memory map

LOAD build/tsb0/blink_main.o
LOAD build/tsb0/timer_handler.o
LOAD build/tsb0//home/gerda/node-apps/zoo/FreeRTOS-Kernel/portable/GCC/ARM_CM4F/port.o
LOAD build/tsb0//home/gerda/node-apps/zoo/FreeRTOS-Kernel/portable/MemMang/heap_5.o
LOAD build/tsb0//home/gerda/node-apps/zoo/FreeRTOS-Kernel/queue.o
LOAD build/tsb0//home/gerda/node-apps/zoo/FreeRTOS-Kernel/croutine.o
LOAD build/tsb0//home/gerda/node-apps/zoo/FreeRTOS-Kernel/list.o
LOAD build/tsb0//home/gerda/node-apps/zoo/FreeRTOS-Kernel/stream_buffer.o
LOAD build/tsb0//home/gerda/node-apps/zoo/FreeRTOS-Kernel/event_groups.o
LOAD build/tsb0//home/gerda/node-apps/zoo/FreeRTOS-Kernel/tasks.o
LOAD build/tsb0//home/gerda/node-apps/zoo/FreeRTOS-Kernel/timers.o
LOAD build/tsb0//home/gerda/node-apps/zoo/thinnect.cmsis-freertos/CMSIS-FreeRTOS/CMSIS/RTOS2/FreeRTOS/Source/cmsis_os2.o
LOAD build/tsb0//home/gerda/SimplicityStudio_v4/developer/sdks/gecko_sdk_suite/v2.6/hardware/kit/common/drivers/retargetserial.o
LOAD build/tsb0//home/gerda/SimplicityStudio_v4/developer/sdks/gecko_sdk_suite/v2.6/hardware/kit/common/drivers/retargetio.o
LOAD build/tsb0//home/gerda/SimplicityStudio_v4/developer/sdks/gecko_sdk_suite/v2.6/platform/emlib/src/em_system.o
LOAD build/tsb0//home/gerda/SimplicityStudio_v4/developer/sdks/gecko_sdk_suite/v2.6/platform/emlib/src/em_core.o
LOAD build/tsb0//home/gerda/SimplicityStudio_v4/developer/sdks/gecko_sdk_suite/v2.6/platform/emlib/src/em_emu.o
LOAD build/tsb0//home/gerda/SimplicityStudio_v4/developer/sdks/gecko_sdk_suite/v2.6/platform/emlib/src/em_cmu.o
LOAD build/tsb0//home/gerda/SimplicityStudio_v4/developer/sdks/gecko_sdk_suite/v2.6/platform/emlib/src/em_rmu.o
LOAD build/tsb0//home/gerda/SimplicityStudio_v4/developer/sdks/gecko_sdk_suite/v2.6/platform/emlib/src/em_gpio.o
LOAD build/tsb0//home/gerda/SimplicityStudio_v4/developer/sdks/gecko_sdk_suite/v2.6/platform/emlib/src/em_usart.o
LOAD build/tsb0//home/gerda/SimplicityStudio_v4/developer/sdks/gecko_sdk_suite/v2.6/platform/emlib/src/em_msc.o
LOAD build/tsb0//home/gerda/SimplicityStudio_v4/developer/sdks/gecko_sdk_suite/v2.6/platform/emlib/src/em_timer.o
LOAD build/tsb0//home/gerda/node-apps/zoo/thinnect.node-platform/silabs/logger_fwrite.o
LOAD build/tsb0//home/gerda/node-apps/zoo/thinnect.lll/logging/loggers_ext.o
LOAD build/tsb0//home/gerda/node-apps/zoo/thinnect.device-signature/signature/DeviceSignature.o
LOAD build/tsb0//home/gerda/node-apps/zoo/thinnect.device-signature/area/silabs/SignatureArea.o
LOAD build/tsb0//home/gerda/node-apps/zoo/lammertb.libcrc/src/crcccitt.o
LOAD build/tsb0//home/gerda/SimplicityStudio_v4/developer/sdks/gecko_sdk_suite/v2.6/platform/Device/SiliconLabs/EFR32MG12P/Source/GCC/startup_efr32mg12p.o
LOAD build/tsb0//home/gerda/SimplicityStudio_v4/developer/sdks/gecko_sdk_suite/v2.6/platform/Device/SiliconLabs/EFR32MG12P/Source/system_efr32mg12p.o
LOAD build/tsb0//home/gerda/node-apps/zoo/thinnect.dev-platforms/make/boards/../../src/boards/tsb0/platform.o
LOAD build/tsb0//home/gerda/node-apps/zoo/thinnect.node-platform/silabs/platform_io.o
LOAD /opt/gcc-arm-none-eabi-9-2019-q4-major/bin/../lib/gcc/arm-none-eabi/9.2.1/thumb/v7e-m+fp/softfp/libgcc.a
LOAD /opt/gcc-arm-none-eabi-9-2019-q4-major/bin/../lib/gcc/arm-none-eabi/9.2.1/../../../../arm-none-eabi/lib/thumb/v7e-m+fp/softfp/libm.a
LOAD /home/gerda/SimplicityStudio_v4/developer/sdks/gecko_sdk_suite/v2.6/platform/CMSIS/Lib/GCC/libarm_cortexM4lf_math.a
LOAD /home/gerda/SimplicityStudio_v4/developer/sdks/gecko_sdk_suite/v2.6/platform/radio/rail_lib/autogen/librail_release/librail_efr32xg12_gcc_release.a

.text           0x0000000000000000     0xc7e5
 *(.vectors)
 .vectors       0x0000000000000000      0x10c build/tsb0//home/gerda/SimplicityStudio_v4/developer/sdks/gecko_sdk_suite/v2.6/platform/Device/SiliconLabs/EFR32MG12P/Source/GCC/startup_efr32mg12p.o
                0x0000000000000000                __Vectors
                0x000000000000010c                __Vectors_End = .
                0x000000000000010c                __Vectors_Size = (__Vectors_End - __Vectors)
                0x000000002000c600                __end__ = .
 *(.text*)
 .text.led0_timer_cb
                0x000000000000010c       0x54 build/tsb0/blink_main.o
 .text.led1_timer_cb
                0x0000000000000160       0x54 build/tsb0/blink_main.o
 .text.led2_timer_cb
                0x00000000000001b4       0x54 build/tsb0/blink_main.o
 .text.app_loop
                0x0000000000000208       0xf4 build/tsb0/blink_main.o
                0x0000000000000208                app_loop
 .text.dimmer_loop
                0x00000000000002fc       0x10 build/tsb0/blink_main.o
                0x00000000000002fc                dimmer_loop
 .text.logger_fwrite_boot
                0x000000000000030c       0x34 build/tsb0/blink_main.o
                0x000000000000030c                logger_fwrite_boot
 .text.main     0x0000000000000340       0xec build/tsb0/blink_main.o
                0x0000000000000340                main
 .text.TIMER_Valid
                0x000000000000042c       0x50 build/tsb0/timer_handler.o
 .text.TIMER_MaxCount
                0x000000000000047c       0x38 build/tsb0/timer_handler.o
 .text.TIMER_CompareBufSet
                0x00000000000004b4       0x28 build/tsb0/timer_handler.o
 .text.TIMER_Enable
                0x00000000000004dc       0x2e build/tsb0/timer_handler.o
 .text.TIMER_IntClear
                0x000000000000050a       0x1c build/tsb0/timer_handler.o
 .text.TIMER_IntEnable
                0x0000000000000526       0x22 build/tsb0/timer_handler.o
 .text.TIMER_IntGet
                0x0000000000000548       0x18 build/tsb0/timer_handler.o
 .text.TIMER_TopSet
                0x0000000000000560       0x1e build/tsb0/timer_handler.o
 *fill*         0x000000000000057e        0x2 
 .text.timer1Init
                0x0000000000000580       0x60 build/tsb0/timer_handler.o
                0x0000000000000580                timer1Init
 .text.timer0CCInit
                0x00000000000005e0       0xf8 build/tsb0/timer_handler.o
                0x00000000000005e0                timer0CCInit
 .text.startFadingLEDs
                0x00000000000006d8       0x48 build/tsb0/timer_handler.o
                0x00000000000006d8                startFadingLEDs
 .text.setLEDsPWM
                0x0000000000000720       0x74 build/tsb0/timer_handler.o
                0x0000000000000720                setLEDsPWM
 .text.getLEDsPWM
                0x0000000000000794       0x18 build/tsb0/timer_handler.o
                0x0000000000000794                getLEDsPWM
 .text.changePWM_dutyCycle
                0x00000000000007ac      0x168 build/tsb0/timer_handler.o
                0x00000000000007ac                changePWM_dutyCycle
 .text.pxPortInitialiseStack
                0x0000000000000914       0x68 build/tsb0//home/gerda/node-apps/zoo/FreeRTOS-Kernel/portable/GCC/ARM_CM4F/port.o
                0x0000000000000914                pxPortInitialiseStack
 .text.prvTaskExitError
                0x000000000000097c       0x48 build/tsb0//home/gerda/node-apps/zoo/FreeRTOS-Kernel/portable/GCC/ARM_CM4F/port.o
 *fill*         0x00000000000009c4        0xc 
 .text.SVC_Handler
                0x00000000000009d0       0x28 build/tsb0//home/gerda/node-apps/zoo/FreeRTOS-Kernel/portable/GCC/ARM_CM4F/port.o
                0x00000000000009d0                SVC_Handler
 .text.prvPortStartFirstTask
                0x00000000000009f8       0x28 build/tsb0//home/gerda/node-apps/zoo/FreeRTOS-Kernel/portable/GCC/ARM_CM4F/port.o
 .text.xPortStartScheduler
                0x0000000000000a20      0x10c build/tsb0//home/gerda/node-apps/zoo/FreeRTOS-Kernel/portable/GCC/ARM_CM4F/port.o
                0x0000000000000a20                xPortStartScheduler
 .text.vPortEnterCritical
                0x0000000000000b2c       0x50 build/tsb0//home/gerda/node-apps/zoo/FreeRTOS-Kernel/portable/GCC/ARM_CM4F/port.o
                0x0000000000000b2c                vPortEnterCritical
 .text.vPortExitCritical
                0x0000000000000b7c       0x40 build/tsb0//home/gerda/node-apps/zoo/FreeRTOS-Kernel/portable/GCC/ARM_CM4F/port.o
                0x0000000000000b7c                vPortExitCritical
 *fill*         0x0000000000000bbc        0x4 
 .text.PendSV_Handler
                0x0000000000000bc0       0x68 build/tsb0//home/gerda/node-apps/zoo/FreeRTOS-Kernel/portable/GCC/ARM_CM4F/port.o
                0x0000000000000bc0                PendSV_Handler
 .text.xPortSysTickHandler
                0x0000000000000c28       0x44 build/tsb0//home/gerda/node-apps/zoo/FreeRTOS-Kernel/portable/GCC/ARM_CM4F/port.o
                0x0000000000000c28                xPortSysTickHandler
 .text.vPortSetupTimerInterrupt
                0x0000000000000c6c       0x48 build/tsb0//home/gerda/node-apps/zoo/FreeRTOS-Kernel/portable/GCC/ARM_CM4F/port.o
                0x0000000000000c6c                vPortSetupTimerInterrupt
 .text.vPortEnableVFP
                0x0000000000000cb4       0x14 build/tsb0//home/gerda/node-apps/zoo/FreeRTOS-Kernel/portable/GCC/ARM_CM4F/port.o
 .text.vPortValidateInterruptPriority
                0x0000000000000cc8       0x5c build/tsb0//home/gerda/node-apps/zoo/FreeRTOS-Kernel/portable/GCC/ARM_CM4F/port.o
                0x0000000000000cc8                vPortValidateInterruptPriority
 .text.pvPortMalloc
                0x0000000000000d24      0x134 build/tsb0//home/gerda/node-apps/zoo/FreeRTOS-Kernel/portable/MemMang/heap_5.o
                0x0000000000000d24                pvPortMalloc
 .text.vPortFree
                0x0000000000000e58       0xa0 build/tsb0//home/gerda/node-apps/zoo/FreeRTOS-Kernel/portable/MemMang/heap_5.o
                0x0000000000000e58                vPortFree
 .text.prvInsertBlockIntoFreeList
                0x0000000000000ef8       0xb4 build/tsb0//home/gerda/node-apps/zoo/FreeRTOS-Kernel/portable/MemMang/heap_5.o
 .text.vPortDefineHeapRegions
                0x0000000000000fac      0x14c build/tsb0//home/gerda/node-apps/zoo/FreeRTOS-Kernel/portable/MemMang/heap_5.o
                0x0000000000000fac                vPortDefineHeapRegions
 .text.xQueueGenericReset
                0x00000000000010f8       0xc0 build/tsb0//home/gerda/node-apps/zoo/FreeRTOS-Kernel/queue.o
                0x00000000000010f8                xQueueGenericReset
 .text.xQueueGenericCreateStatic
                0x00000000000011b8       0x96 build/tsb0//home/gerda/node-apps/zoo/FreeRTOS-Kernel/queue.o
                0x00000000000011b8                xQueueGenericCreateStatic
 .text.xQueueGenericCreate
                0x000000000000124e       0x62 build/tsb0//home/gerda/node-apps/zoo/FreeRTOS-Kernel/queue.o
                0x000000000000124e                xQueueGenericCreate
 .text.prvInitialiseNewQueue
                0x00000000000012b0       0x46 build/tsb0//home/gerda/node-apps/zoo/FreeRTOS-Kernel/queue.o
 .text.prvInitialiseMutex
                0x00000000000012f6       0x34 build/tsb0//home/gerda/node-apps/zoo/FreeRTOS-Kernel/queue.o
 .text.xQueueCreateMutex
                0x000000000000132a       0x30 build/tsb0//home/gerda/node-apps/zoo/FreeRTOS-Kernel/queue.o
                0x000000000000132a                xQueueCreateMutex
 .text.xQueueCreateMutexStatic
                0x000000000000135a       0x36 build/tsb0//home/gerda/node-apps/zoo/FreeRTOS-Kernel/queue.o
                0x000000000000135a                xQueueCreateMutexStatic
 .text.xQueueGiveMutexRecursive
                0x0000000000001390       0x56 build/tsb0//home/gerda/node-apps/zoo/FreeRTOS-Kernel/queue.o
                0x0000000000001390                xQueueGiveMutexRecursive
 .text.xQueueTakeMutexRecursive
                0x00000000000013e6       0x5a build/tsb0//home/gerda/node-apps/zoo/FreeRTOS-Kernel/queue.o
                0x00000000000013e6                xQueueTakeMutexRecursive
 .text.xQueueGenericSend
                0x0000000000001440      0x1b4 build/tsb0//home/gerda/node-apps/zoo/FreeRTOS-Kernel/queue.o
                0x0000000000001440                xQueueGenericSend
 .text.xQueueGenericSendFromISR
                0x00000000000015f4      0x100 build/tsb0//home/gerda/node-apps/zoo/FreeRTOS-Kernel/queue.o
                0x00000000000015f4                xQueueGenericSendFromISR
 .text.xQueueReceive
                0x00000000000016f4      0x188 build/tsb0//home/gerda/node-apps/zoo/FreeRTOS-Kernel/queue.o
                0x00000000000016f4                xQueueReceive
 .text.xQueueSemaphoreTake
                0x000000000000187c      0x1d0 build/tsb0//home/gerda/node-apps/zoo/FreeRTOS-Kernel/queue.o
                0x000000000000187c                xQueueSemaphoreTake
 .text.prvGetDisinheritPriorityAfterTimeout
                0x0000000000001a4c       0x30 build/tsb0//home/gerda/node-apps/zoo/FreeRTOS-Kernel/queue.o
 .text.prvCopyDataToQueue
                0x0000000000001a7c       0xd4 build/tsb0//home/gerda/node-apps/zoo/FreeRTOS-Kernel/queue.o
 .text.prvCopyDataFromQueue
                0x0000000000001b50       0x4c build/tsb0//home/gerda/node-apps/zoo/FreeRTOS-Kernel/queue.o
 .text.prvUnlockQueue
                0x0000000000001b9c       0xa4 build/tsb0//home/gerda/node-apps/zoo/FreeRTOS-Kernel/queue.o
 .text.prvIsQueueEmpty
                0x0000000000001c40       0x2c build/tsb0//home/gerda/node-apps/zoo/FreeRTOS-Kernel/queue.o
 .text.prvIsQueueFull
                0x0000000000001c6c       0x30 build/tsb0//home/gerda/node-apps/zoo/FreeRTOS-Kernel/queue.o
 .text.vQueueWaitForMessageRestricted
                0x0000000000001c9c       0x68 build/tsb0//home/gerda/node-apps/zoo/FreeRTOS-Kernel/queue.o
                0x0000000000001c9c                vQueueWaitForMessageRestricted
 .text.vListInitialise
                0x0000000000001d04       0x40 build/tsb0//home/gerda/node-apps/zoo/FreeRTOS-Kernel/list.o
                0x0000000000001d04                vListInitialise
 .text.vListInitialiseItem
                0x0000000000001d44       0x1a build/tsb0//home/gerda/node-apps/zoo/FreeRTOS-Kernel/list.o
                0x0000000000001d44                vListInitialiseItem
 .text.vListInsertEnd
                0x0000000000001d5e       0x48 build/tsb0//home/gerda/node-apps/zoo/FreeRTOS-Kernel/list.o
                0x0000000000001d5e                vListInsertEnd
 .text.vListInsert
                0x0000000000001da6       0x72 build/tsb0//home/gerda/node-apps/zoo/FreeRTOS-Kernel/list.o
                0x0000000000001da6                vListInsert
 .text.uxListRemove
                0x0000000000001e18       0x54 build/tsb0//home/gerda/node-apps/zoo/FreeRTOS-Kernel/list.o
                0x0000000000001e18                uxListRemove
 .text.xTaskCreateStatic
                0x0000000000001e6c       0x84 build/tsb0//home/gerda/node-apps/zoo/FreeRTOS-Kernel/tasks.o
                0x0000000000001e6c                xTaskCreateStatic
 .text.xTaskCreate
                0x0000000000001ef0       0x8a build/tsb0//home/gerda/node-apps/zoo/FreeRTOS-Kernel/tasks.o
                0x0000000000001ef0                xTaskCreate
 .text.prvInitialiseNewTask
                0x0000000000001f7a      0x112 build/tsb0//home/gerda/node-apps/zoo/FreeRTOS-Kernel/tasks.o
 .text.prvAddNewTaskToReadyList
                0x000000000000208c       0xe0 build/tsb0//home/gerda/node-apps/zoo/FreeRTOS-Kernel/tasks.o
 .text.vTaskDelay
                0x000000000000216c       0x58 build/tsb0//home/gerda/node-apps/zoo/FreeRTOS-Kernel/tasks.o
                0x000000000000216c                vTaskDelay
 .text.vTaskStartScheduler
                0x00000000000021c4       0xbc build/tsb0//home/gerda/node-apps/zoo/FreeRTOS-Kernel/tasks.o
                0x00000000000021c4                vTaskStartScheduler
 .text.vTaskSuspendAll
                0x0000000000002280       0x1c build/tsb0//home/gerda/node-apps/zoo/FreeRTOS-Kernel/tasks.o
                0x0000000000002280                vTaskSuspendAll
 .text.xTaskResumeAll
                0x000000000000229c      0x128 build/tsb0//home/gerda/node-apps/zoo/FreeRTOS-Kernel/tasks.o
                0x000000000000229c                xTaskResumeAll
 .text.xTaskGetTickCount
                0x00000000000023c4       0x20 build/tsb0//home/gerda/node-apps/zoo/FreeRTOS-Kernel/tasks.o
                0x00000000000023c4                xTaskGetTickCount
 .text.xTaskIncrementTick
                0x00000000000023e4      0x160 build/tsb0//home/gerda/node-apps/zoo/FreeRTOS-Kernel/tasks.o
                0x00000000000023e4                xTaskIncrementTick
 .text.vTaskSwitchContext
                0x0000000000002544       0xf4 build/tsb0//home/gerda/node-apps/zoo/FreeRTOS-Kernel/tasks.o
                0x0000000000002544                vTaskSwitchContext
 .text.vTaskPlaceOnEventList
                0x0000000000002638       0x38 build/tsb0//home/gerda/node-apps/zoo/FreeRTOS-Kernel/tasks.o
                0x0000000000002638                vTaskPlaceOnEventList
 .text.vTaskPlaceOnEventListRestricted
                0x0000000000002670       0x44 build/tsb0//home/gerda/node-apps/zoo/FreeRTOS-Kernel/tasks.o
                0x0000000000002670                vTaskPlaceOnEventListRestricted
 .text.xTaskRemoveFromEventList
                0x00000000000026b4       0xb4 build/tsb0//home/gerda/node-apps/zoo/FreeRTOS-Kernel/tasks.o
                0x00000000000026b4                xTaskRemoveFromEventList
 .text.vTaskInternalSetTimeOutState
                0x0000000000002768       0x2c build/tsb0//home/gerda/node-apps/zoo/FreeRTOS-Kernel/tasks.o
                0x0000000000002768                vTaskInternalSetTimeOutState
 .text.xTaskCheckForTimeOut
                0x0000000000002794       0xa0 build/tsb0//home/gerda/node-apps/zoo/FreeRTOS-Kernel/tasks.o
                0x0000000000002794                xTaskCheckForTimeOut
 .text.vTaskMissedYield
                0x0000000000002834       0x18 build/tsb0//home/gerda/node-apps/zoo/FreeRTOS-Kernel/tasks.o
                0x0000000000002834                vTaskMissedYield
 .text.prvIdleTask
                0x000000000000284c       0x30 build/tsb0//home/gerda/node-apps/zoo/FreeRTOS-Kernel/tasks.o
 .text.prvInitialiseTaskLists
                0x000000000000287c       0x80 build/tsb0//home/gerda/node-apps/zoo/FreeRTOS-Kernel/tasks.o
 .text.prvCheckTasksWaitingTermination
                0x00000000000028fc       0x5c build/tsb0//home/gerda/node-apps/zoo/FreeRTOS-Kernel/tasks.o
 .text.prvDeleteTCB
                0x0000000000002958       0x4c build/tsb0//home/gerda/node-apps/zoo/FreeRTOS-Kernel/tasks.o
 .text.prvResetNextTaskUnblockTime
                0x00000000000029a4       0x40 build/tsb0//home/gerda/node-apps/zoo/FreeRTOS-Kernel/tasks.o
 .text.xTaskGetCurrentTaskHandle
                0x00000000000029e4       0x20 build/tsb0//home/gerda/node-apps/zoo/FreeRTOS-Kernel/tasks.o
                0x00000000000029e4                xTaskGetCurrentTaskHandle
 .text.xTaskGetSchedulerState
                0x0000000000002a04       0x3c build/tsb0//home/gerda/node-apps/zoo/FreeRTOS-Kernel/tasks.o
                0x0000000000002a04                xTaskGetSchedulerState
 .text.xTaskPriorityInherit
                0x0000000000002a40       0xd0 build/tsb0//home/gerda/node-apps/zoo/FreeRTOS-Kernel/tasks.o
                0x0000000000002a40                xTaskPriorityInherit
 .text.xTaskPriorityDisinherit
                0x0000000000002b10       0xb8 build/tsb0//home/gerda/node-apps/zoo/FreeRTOS-Kernel/tasks.o
                0x0000000000002b10                xTaskPriorityDisinherit
 .text.vTaskPriorityDisinheritAfterTimeout
                0x0000000000002bc8       0xe0 build/tsb0//home/gerda/node-apps/zoo/FreeRTOS-Kernel/tasks.o
                0x0000000000002bc8                vTaskPriorityDisinheritAfterTimeout
 .text.pvTaskIncrementMutexHeldCount
                0x0000000000002ca8       0x28 build/tsb0//home/gerda/node-apps/zoo/FreeRTOS-Kernel/tasks.o
                0x0000000000002ca8                pvTaskIncrementMutexHeldCount
 .text.prvAddCurrentTaskToDelayedList
                0x0000000000002cd0       0xa8 build/tsb0//home/gerda/node-apps/zoo/FreeRTOS-Kernel/tasks.o
 .text.xTimerCreateTimerTask
                0x0000000000002d78       0x7c build/tsb0//home/gerda/node-apps/zoo/FreeRTOS-Kernel/timers.o
                0x0000000000002d78                xTimerCreateTimerTask
 .text.xTimerCreate
                0x0000000000002df4       0x42 build/tsb0//home/gerda/node-apps/zoo/FreeRTOS-Kernel/timers.o
                0x0000000000002df4                xTimerCreate
 .text.xTimerCreateStatic
                0x0000000000002e36       0x58 build/tsb0//home/gerda/node-apps/zoo/FreeRTOS-Kernel/timers.o
                0x0000000000002e36                xTimerCreateStatic
 .text.prvInitialiseNewTimer
                0x0000000000002e8e       0x64 build/tsb0//home/gerda/node-apps/zoo/FreeRTOS-Kernel/timers.o
 *fill*         0x0000000000002ef2        0x2 
 .text.xTimerGenericCommand
                0x0000000000002ef4       0x88 build/tsb0//home/gerda/node-apps/zoo/FreeRTOS-Kernel/timers.o
                0x0000000000002ef4                xTimerGenericCommand
 .text.prvProcessExpiredTimer
                0x0000000000002f7c       0x88 build/tsb0//home/gerda/node-apps/zoo/FreeRTOS-Kernel/timers.o
 .text.prvTimerTask
                0x0000000000003004       0x24 build/tsb0//home/gerda/node-apps/zoo/FreeRTOS-Kernel/timers.o
 .text.prvProcessTimerOrBlockTask
                0x0000000000003028       0x9c build/tsb0//home/gerda/node-apps/zoo/FreeRTOS-Kernel/timers.o
 .text.prvGetNextExpireTime
                0x00000000000030c4       0x48 build/tsb0//home/gerda/node-apps/zoo/FreeRTOS-Kernel/timers.o
 .text.prvSampleTimeNow
                0x000000000000310c       0x40 build/tsb0//home/gerda/node-apps/zoo/FreeRTOS-Kernel/timers.o
 .text.prvInsertTimerInActiveList
                0x000000000000314c       0x84 build/tsb0//home/gerda/node-apps/zoo/FreeRTOS-Kernel/timers.o
 .text.prvProcessReceivedCommands
                0x00000000000031d0      0x190 build/tsb0//home/gerda/node-apps/zoo/FreeRTOS-Kernel/timers.o
 .text.prvSwitchTimerLists
                0x0000000000003360       0xb8 build/tsb0//home/gerda/node-apps/zoo/FreeRTOS-Kernel/timers.o
 .text.prvCheckForValidListAndQueue
                0x0000000000003418       0x68 build/tsb0//home/gerda/node-apps/zoo/FreeRTOS-Kernel/timers.o
 .text.pvTimerGetTimerID
                0x0000000000003480       0x2e build/tsb0//home/gerda/node-apps/zoo/FreeRTOS-Kernel/timers.o
                0x0000000000003480                pvTimerGetTimerID
 *fill*         0x00000000000034ae        0x2 
 .text.__NVIC_SetPriority
                0x00000000000034b0       0x54 build/tsb0//home/gerda/node-apps/zoo/thinnect.cmsis-freertos/CMSIS-FreeRTOS/CMSIS/RTOS2/FreeRTOS/Source/cmsis_os2.o
 .text.SysTick_Handler
                0x0000000000003504       0x20 build/tsb0//home/gerda/node-apps/zoo/thinnect.cmsis-freertos/CMSIS-FreeRTOS/CMSIS/RTOS2/FreeRTOS/Source/cmsis_os2.o
                0x0000000000003504                SysTick_Handler
 .text.SVC_Setup
                0x0000000000003524       0x12 build/tsb0//home/gerda/node-apps/zoo/thinnect.cmsis-freertos/CMSIS-FreeRTOS/CMSIS/RTOS2/FreeRTOS/Source/cmsis_os2.o
 *fill*         0x0000000000003536        0x2 
 .text.osKernelInitialize
                0x0000000000003538       0x6c build/tsb0//home/gerda/node-apps/zoo/thinnect.cmsis-freertos/CMSIS-FreeRTOS/CMSIS/RTOS2/FreeRTOS/Source/cmsis_os2.o
                0x0000000000003538                osKernelInitialize
 .text.osKernelGetState
                0x00000000000035a4       0x44 build/tsb0//home/gerda/node-apps/zoo/thinnect.cmsis-freertos/CMSIS-FreeRTOS/CMSIS/RTOS2/FreeRTOS/Source/cmsis_os2.o
                0x00000000000035a4                osKernelGetState
 .text.osKernelStart
                0x00000000000035e8       0x6c build/tsb0//home/gerda/node-apps/zoo/thinnect.cmsis-freertos/CMSIS-FreeRTOS/CMSIS/RTOS2/FreeRTOS/Source/cmsis_os2.o
                0x00000000000035e8                osKernelStart
 .text.osThreadNew
                0x0000000000003654      0x14c build/tsb0//home/gerda/node-apps/zoo/thinnect.cmsis-freertos/CMSIS-FreeRTOS/CMSIS/RTOS2/FreeRTOS/Source/cmsis_os2.o
                0x0000000000003654                osThreadNew
 .text.osDelay  0x00000000000037a0       0x5c build/tsb0//home/gerda/node-apps/zoo/thinnect.cmsis-freertos/CMSIS-FreeRTOS/CMSIS/RTOS2/FreeRTOS/Source/cmsis_os2.o
                0x00000000000037a0                osDelay
 .text.TimerCallback
                0x00000000000037fc       0x2a build/tsb0//home/gerda/node-apps/zoo/thinnect.cmsis-freertos/CMSIS-FreeRTOS/CMSIS/RTOS2/FreeRTOS/Source/cmsis_os2.o
 *fill*         0x0000000000003826        0x2 
 .text.osTimerNew
                0x0000000000003828      0x108 build/tsb0//home/gerda/node-apps/zoo/thinnect.cmsis-freertos/CMSIS-FreeRTOS/CMSIS/RTOS2/FreeRTOS/Source/cmsis_os2.o
                0x0000000000003828                osTimerNew
 .text.osTimerStart
                0x0000000000003930       0x80 build/tsb0//home/gerda/node-apps/zoo/thinnect.cmsis-freertos/CMSIS-FreeRTOS/CMSIS/RTOS2/FreeRTOS/Source/cmsis_os2.o
                0x0000000000003930                osTimerStart
 .text.osMutexNew
                0x00000000000039b0      0x110 build/tsb0//home/gerda/node-apps/zoo/thinnect.cmsis-freertos/CMSIS-FreeRTOS/CMSIS/RTOS2/FreeRTOS/Source/cmsis_os2.o
                0x00000000000039b0                osMutexNew
 .text.osMutexAcquire
                0x0000000000003ac0       0xbc build/tsb0//home/gerda/node-apps/zoo/thinnect.cmsis-freertos/CMSIS-FreeRTOS/CMSIS/RTOS2/FreeRTOS/Source/cmsis_os2.o
                0x0000000000003ac0                osMutexAcquire
 .text.osMutexRelease
                0x0000000000003b7c       0xa0 build/tsb0//home/gerda/node-apps/zoo/thinnect.cmsis-freertos/CMSIS-FreeRTOS/CMSIS/RTOS2/FreeRTOS/Source/cmsis_os2.o
                0x0000000000003b7c                osMutexRelease
 .text.vApplicationStackOverflowHook
                0x0000000000003c1c        0xe build/tsb0//home/gerda/node-apps/zoo/thinnect.cmsis-freertos/CMSIS-FreeRTOS/CMSIS/RTOS2/FreeRTOS/Source/cmsis_os2.o
                0x0000000000003c1c                vApplicationStackOverflowHook
 *fill*         0x0000000000003c2a        0x2 
 .text.vApplicationGetIdleTaskMemory
                0x0000000000003c2c       0x34 build/tsb0//home/gerda/node-apps/zoo/thinnect.cmsis-freertos/CMSIS-FreeRTOS/CMSIS/RTOS2/FreeRTOS/Source/cmsis_os2.o
                0x0000000000003c2c                vApplicationGetIdleTaskMemory
 .text.vApplicationGetTimerTaskMemory
                0x0000000000003c60       0x34 build/tsb0//home/gerda/node-apps/zoo/thinnect.cmsis-freertos/CMSIS-FreeRTOS/CMSIS/RTOS2/FreeRTOS/Source/cmsis_os2.o
                0x0000000000003c60                vApplicationGetTimerTaskMemory
 .text.__NVIC_EnableIRQ
                0x0000000000003c94       0x3c build/tsb0//home/gerda/SimplicityStudio_v4/developer/sdks/gecko_sdk_suite/v2.6/hardware/kit/common/drivers/retargetserial.o
 .text.__NVIC_ClearPendingIRQ
                0x0000000000003cd0       0x3c build/tsb0//home/gerda/SimplicityStudio_v4/developer/sdks/gecko_sdk_suite/v2.6/hardware/kit/common/drivers/retargetserial.o
 .text.USART_IntClear
                0x0000000000003d0c       0x1c build/tsb0//home/gerda/SimplicityStudio_v4/developer/sdks/gecko_sdk_suite/v2.6/hardware/kit/common/drivers/retargetserial.o
 .text.USART_IntDisable
                0x0000000000003d28       0x24 build/tsb0//home/gerda/SimplicityStudio_v4/developer/sdks/gecko_sdk_suite/v2.6/hardware/kit/common/drivers/retargetserial.o
 .text.USART_IntEnable
                0x0000000000003d4c       0x22 build/tsb0//home/gerda/SimplicityStudio_v4/developer/sdks/gecko_sdk_suite/v2.6/hardware/kit/common/drivers/retargetserial.o
 *fill*         0x0000000000003d6e        0x2 
 .text.disableRxInterrupt
                0x0000000000003d70       0x14 build/tsb0//home/gerda/SimplicityStudio_v4/developer/sdks/gecko_sdk_suite/v2.6/hardware/kit/common/drivers/retargetserial.o
 .text.enableRxInterrupt
                0x0000000000003d84       0x14 build/tsb0//home/gerda/SimplicityStudio_v4/developer/sdks/gecko_sdk_suite/v2.6/hardware/kit/common/drivers/retargetserial.o
 .text.USART0_RX_IRQHandler
                0x0000000000003d98       0x68 build/tsb0//home/gerda/SimplicityStudio_v4/developer/sdks/gecko_sdk_suite/v2.6/hardware/kit/common/drivers/retargetserial.o
                0x0000000000003d98                USART0_RX_IRQHandler
 .text.RETARGET_SerialInit
                0x0000000000003e00       0xd8 build/tsb0//home/gerda/SimplicityStudio_v4/developer/sdks/gecko_sdk_suite/v2.6/hardware/kit/common/drivers/retargetserial.o
                0x0000000000003e00                RETARGET_SerialInit
 .text.RETARGET_ReadChar
                0x0000000000003ed8       0x80 build/tsb0//home/gerda/SimplicityStudio_v4/developer/sdks/gecko_sdk_suite/v2.6/hardware/kit/common/drivers/retargetserial.o
                0x0000000000003ed8                RETARGET_ReadChar
 .text.RETARGET_WriteChar
                0x0000000000003f58       0x54 build/tsb0//home/gerda/SimplicityStudio_v4/developer/sdks/gecko_sdk_suite/v2.6/hardware/kit/common/drivers/retargetserial.o
                0x0000000000003f58                RETARGET_WriteChar
 .text._close   0x0000000000003fac       0x16 build/tsb0//home/gerda/SimplicityStudio_v4/developer/sdks/gecko_sdk_suite/v2.6/hardware/kit/common/drivers/retargetio.o
                0x0000000000003fac                _close
 .text._fstat   0x0000000000003fc2       0x20 build/tsb0//home/gerda/SimplicityStudio_v4/developer/sdks/gecko_sdk_suite/v2.6/hardware/kit/common/drivers/retargetio.o
                0x0000000000003fc2                _fstat
 .text._isatty  0x0000000000003fe2       0x16 build/tsb0//home/gerda/SimplicityStudio_v4/developer/sdks/gecko_sdk_suite/v2.6/hardware/kit/common/drivers/retargetio.o
                0x0000000000003fe2                _isatty
 .text._lseek   0x0000000000003ff8       0x1a build/tsb0//home/gerda/SimplicityStudio_v4/developer/sdks/gecko_sdk_suite/v2.6/hardware/kit/common/drivers/retargetio.o
                0x0000000000003ff8                _lseek
 .text._read    0x0000000000004012       0x56 build/tsb0//home/gerda/SimplicityStudio_v4/developer/sdks/gecko_sdk_suite/v2.6/hardware/kit/common/drivers/retargetio.o
                0x0000000000004012                _read
 .text._sbrk    0x0000000000004068       0x40 build/tsb0//home/gerda/SimplicityStudio_v4/developer/sdks/gecko_sdk_suite/v2.6/hardware/kit/common/drivers/retargetio.o
                0x0000000000004068                _sbrk
 .text._write   0x00000000000040a8       0x38 build/tsb0//home/gerda/SimplicityStudio_v4/developer/sdks/gecko_sdk_suite/v2.6/hardware/kit/common/drivers/retargetio.o
                0x00000000000040a8                _write
 .text.CORE_EnterAtomic
                0x00000000000040e0       0x22 build/tsb0//home/gerda/SimplicityStudio_v4/developer/sdks/gecko_sdk_suite/v2.6/platform/emlib/src/em_core.o
                0x00000000000040e0                CORE_EnterAtomic
 .text.CORE_ExitAtomic
                0x0000000000004102       0x1e build/tsb0//home/gerda/SimplicityStudio_v4/developer/sdks/gecko_sdk_suite/v2.6/platform/emlib/src/em_core.o
                0x0000000000004102                CORE_ExitAtomic
 .text.BUS_RegBitRead
                0x0000000000004120       0x2e build/tsb0//home/gerda/SimplicityStudio_v4/developer/sdks/gecko_sdk_suite/v2.6/platform/emlib/src/em_emu.o
 *fill*         0x000000000000414e        0x2 
 .text.EMU_VScaleWait
                0x0000000000004150       0x20 build/tsb0//home/gerda/SimplicityStudio_v4/developer/sdks/gecko_sdk_suite/v2.6/platform/emlib/src/em_emu.o
 .text.EMU_VScaleGet
                0x0000000000004170       0x1c build/tsb0//home/gerda/SimplicityStudio_v4/developer/sdks/gecko_sdk_suite/v2.6/platform/emlib/src/em_emu.o
 .text.vScaleEM01Cmd
                0x000000000000418c       0x22 build/tsb0//home/gerda/SimplicityStudio_v4/developer/sdks/gecko_sdk_suite/v2.6/platform/emlib/src/em_emu.o
 *fill*         0x00000000000041ae        0x2 
 .text.EMU_VScaleEM01ByClock
                0x00000000000041b0       0x74 build/tsb0//home/gerda/SimplicityStudio_v4/developer/sdks/gecko_sdk_suite/v2.6/platform/emlib/src/em_emu.o
                0x00000000000041b0                EMU_VScaleEM01ByClock
 .text.EMU_VScaleEM01
                0x0000000000004224       0x88 build/tsb0//home/gerda/SimplicityStudio_v4/developer/sdks/gecko_sdk_suite/v2.6/platform/emlib/src/em_emu.o
                0x0000000000004224                EMU_VScaleEM01
 .text.BUS_RegBitWrite
                0x00000000000042ac       0x32 build/tsb0//home/gerda/SimplicityStudio_v4/developer/sdks/gecko_sdk_suite/v2.6/platform/emlib/src/em_cmu.o
 .text.BUS_RegBitRead
                0x00000000000042de       0x2e build/tsb0//home/gerda/SimplicityStudio_v4/developer/sdks/gecko_sdk_suite/v2.6/platform/emlib/src/em_cmu.o
 .text.SL_Log2ToDiv
                0x000000000000430c       0x1c build/tsb0//home/gerda/SimplicityStudio_v4/developer/sdks/gecko_sdk_suite/v2.6/platform/emlib/src/em_cmu.o
 .text.EMU_VScaleWait
                0x0000000000004328       0x20 build/tsb0//home/gerda/SimplicityStudio_v4/developer/sdks/gecko_sdk_suite/v2.6/platform/emlib/src/em_cmu.o
 .text.EMU_VScaleGet
                0x0000000000004348       0x1c build/tsb0//home/gerda/SimplicityStudio_v4/developer/sdks/gecko_sdk_suite/v2.6/platform/emlib/src/em_cmu.o
 .text.setHfLeConfig
                0x0000000000004364       0x64 build/tsb0//home/gerda/SimplicityStudio_v4/developer/sdks/gecko_sdk_suite/v2.6/platform/emlib/src/em_cmu.o
 .text.auxClkGet
                0x00000000000043c8       0x20 build/tsb0//home/gerda/SimplicityStudio_v4/developer/sdks/gecko_sdk_suite/v2.6/platform/emlib/src/em_cmu.o
 .text.hfSrcClkGet
                0x00000000000043e8       0x2c build/tsb0//home/gerda/SimplicityStudio_v4/developer/sdks/gecko_sdk_suite/v2.6/platform/emlib/src/em_cmu.o
 .text.dbgClkGet
                0x0000000000004414       0x40 build/tsb0//home/gerda/SimplicityStudio_v4/developer/sdks/gecko_sdk_suite/v2.6/platform/emlib/src/em_cmu.o
 .text.adcAsyncClkGet
                0x0000000000004454       0x80 build/tsb0//home/gerda/SimplicityStudio_v4/developer/sdks/gecko_sdk_suite/v2.6/platform/emlib/src/em_cmu.o
 .text.flashWaitStateControl
                0x00000000000044d4       0x8c build/tsb0//home/gerda/SimplicityStudio_v4/developer/sdks/gecko_sdk_suite/v2.6/platform/emlib/src/em_cmu.o
 .text.flashWaitStateMax
                0x0000000000004560       0x44 build/tsb0//home/gerda/SimplicityStudio_v4/developer/sdks/gecko_sdk_suite/v2.6/platform/emlib/src/em_cmu.o
 .text.CMU_UpdateWaitStates
                0x00000000000045a4       0x40 build/tsb0//home/gerda/SimplicityStudio_v4/developer/sdks/gecko_sdk_suite/v2.6/platform/emlib/src/em_cmu.o
                0x00000000000045a4                CMU_UpdateWaitStates
 .text.getRegIshUpperVal
                0x00000000000045e4       0x36 build/tsb0//home/gerda/SimplicityStudio_v4/developer/sdks/gecko_sdk_suite/v2.6/platform/emlib/src/em_cmu.o
 *fill*         0x000000000000461a        0x2 
 .text.getHfxoTuningMode
                0x000000000000461c       0x1c build/tsb0//home/gerda/SimplicityStudio_v4/developer/sdks/gecko_sdk_suite/v2.6/platform/emlib/src/em_cmu.o
 .text.setHfxoTuningMode
                0x0000000000004638       0x2c build/tsb0//home/gerda/SimplicityStudio_v4/developer/sdks/gecko_sdk_suite/v2.6/platform/emlib/src/em_cmu.o
 .text.lfClkGet
                0x0000000000004664      0x110 build/tsb0//home/gerda/SimplicityStudio_v4/developer/sdks/gecko_sdk_suite/v2.6/platform/emlib/src/em_cmu.o
 .text.syncReg  0x0000000000004774       0x38 build/tsb0//home/gerda/SimplicityStudio_v4/developer/sdks/gecko_sdk_suite/v2.6/platform/emlib/src/em_cmu.o
 .text.hfperClkSafePrescaler
                0x00000000000047ac        0xe build/tsb0//home/gerda/SimplicityStudio_v4/developer/sdks/gecko_sdk_suite/v2.6/platform/emlib/src/em_cmu.o
 .text.hfperClkOptimizedPrescaler
                0x00000000000047ba        0xe build/tsb0//home/gerda/SimplicityStudio_v4/developer/sdks/gecko_sdk_suite/v2.6/platform/emlib/src/em_cmu.o
 .text.CMU_ClockEnable
                0x00000000000047c8       0xcc build/tsb0//home/gerda/SimplicityStudio_v4/developer/sdks/gecko_sdk_suite/v2.6/platform/emlib/src/em_cmu.o
                0x00000000000047c8                CMU_ClockEnable
 .text.CMU_ClockFreqGet
                0x0000000000004894      0x25c build/tsb0//home/gerda/SimplicityStudio_v4/developer/sdks/gecko_sdk_suite/v2.6/platform/emlib/src/em_cmu.o
                0x0000000000004894                CMU_ClockFreqGet
 .text.CMU_ClockSelectGet
                0x0000000000004af0      0x1d0 build/tsb0//home/gerda/SimplicityStudio_v4/developer/sdks/gecko_sdk_suite/v2.6/platform/emlib/src/em_cmu.o
                0x0000000000004af0                CMU_ClockSelectGet
 .text.CMU_ClockSelectSet
                0x0000000000004cc0      0x2f0 build/tsb0//home/gerda/SimplicityStudio_v4/developer/sdks/gecko_sdk_suite/v2.6/platform/emlib/src/em_cmu.o
                0x0000000000004cc0                CMU_ClockSelectSet
 .text.CMU_HFRCOBandGet
                0x0000000000004fb0       0x18 build/tsb0//home/gerda/SimplicityStudio_v4/developer/sdks/gecko_sdk_suite/v2.6/platform/emlib/src/em_cmu.o
                0x0000000000004fb0                CMU_HFRCOBandGet
 .text.CMU_HFXOInit
                0x0000000000004fc8       0xe4 build/tsb0//home/gerda/SimplicityStudio_v4/developer/sdks/gecko_sdk_suite/v2.6/platform/emlib/src/em_cmu.o
                0x0000000000004fc8                CMU_HFXOInit
 .text.CMU_OscillatorEnable
                0x00000000000050ac      0x1a0 build/tsb0//home/gerda/SimplicityStudio_v4/developer/sdks/gecko_sdk_suite/v2.6/platform/emlib/src/em_cmu.o
                0x00000000000050ac                CMU_OscillatorEnable
 .text.CMU_OscillatorTuningGet
                0x000000000000524c       0x74 build/tsb0//home/gerda/SimplicityStudio_v4/developer/sdks/gecko_sdk_suite/v2.6/platform/emlib/src/em_cmu.o
                0x000000000000524c                CMU_OscillatorTuningGet
 .text.CMU_OscillatorTuningSet
                0x00000000000052c0      0x100 build/tsb0//home/gerda/SimplicityStudio_v4/developer/sdks/gecko_sdk_suite/v2.6/platform/emlib/src/em_cmu.o
                0x00000000000052c0                CMU_OscillatorTuningSet
 .text.CMU_OscillatorTuningWait
                0x00000000000053c0       0x98 build/tsb0//home/gerda/SimplicityStudio_v4/developer/sdks/gecko_sdk_suite/v2.6/platform/emlib/src/em_cmu.o
                0x00000000000053c0                CMU_OscillatorTuningWait
 .text.CMU_OscillatorTuningOptimize
                0x0000000000005458       0x58 build/tsb0//home/gerda/SimplicityStudio_v4/developer/sdks/gecko_sdk_suite/v2.6/platform/emlib/src/em_cmu.o
                0x0000000000005458                CMU_OscillatorTuningOptimize
 .text.RMU_ResetCauseClear
                0x00000000000054b0       0x18 build/tsb0//home/gerda/SimplicityStudio_v4/developer/sdks/gecko_sdk_suite/v2.6/platform/emlib/src/em_rmu.o
                0x00000000000054b0                RMU_ResetCauseClear
 .text.RMU_ResetCauseGet
                0x00000000000054c8       0xb8 build/tsb0//home/gerda/SimplicityStudio_v4/developer/sdks/gecko_sdk_suite/v2.6/platform/emlib/src/em_rmu.o
                0x00000000000054c8                RMU_ResetCauseGet
 .text.BUS_RegMaskedSet
                0x0000000000005580       0x24 build/tsb0//home/gerda/SimplicityStudio_v4/developer/sdks/gecko_sdk_suite/v2.6/platform/emlib/src/em_gpio.o
 .text.BUS_RegMaskedClear
                0x00000000000055a4       0x24 build/tsb0//home/gerda/SimplicityStudio_v4/developer/sdks/gecko_sdk_suite/v2.6/platform/emlib/src/em_gpio.o
 .text.GPIO_PinOutClear
                0x00000000000055c8       0x78 build/tsb0//home/gerda/SimplicityStudio_v4/developer/sdks/gecko_sdk_suite/v2.6/platform/emlib/src/em_gpio.o
 .text.GPIO_PinOutSet
                0x0000000000005640       0x78 build/tsb0//home/gerda/SimplicityStudio_v4/developer/sdks/gecko_sdk_suite/v2.6/platform/emlib/src/em_gpio.o
 .text.GPIO_PinModeSet
                0x00000000000056b8      0x130 build/tsb0//home/gerda/SimplicityStudio_v4/developer/sdks/gecko_sdk_suite/v2.6/platform/emlib/src/em_gpio.o
                0x00000000000056b8                GPIO_PinModeSet
 .text.prsRxInput
                0x00000000000057e8       0x26 build/tsb0//home/gerda/SimplicityStudio_v4/developer/sdks/gecko_sdk_suite/v2.6/platform/emlib/src/em_usart.o
 *fill*         0x000000000000580e        0x2 
 .text.USART_BaudrateAsyncSet
                0x0000000000005810       0xb8 build/tsb0//home/gerda/SimplicityStudio_v4/developer/sdks/gecko_sdk_suite/v2.6/platform/emlib/src/em_usart.o
                0x0000000000005810                USART_BaudrateAsyncSet
 .text.USART_Enable
                0x00000000000058c8       0x64 build/tsb0//home/gerda/SimplicityStudio_v4/developer/sdks/gecko_sdk_suite/v2.6/platform/emlib/src/em_usart.o
                0x00000000000058c8                USART_Enable
 .text.USART_InitAsync
                0x000000000000592c       0xec build/tsb0//home/gerda/SimplicityStudio_v4/developer/sdks/gecko_sdk_suite/v2.6/platform/emlib/src/em_usart.o
                0x000000000000592c                USART_InitAsync
 .text.USART_Reset
                0x0000000000005a18       0xd0 build/tsb0//home/gerda/SimplicityStudio_v4/developer/sdks/gecko_sdk_suite/v2.6/platform/emlib/src/em_usart.o
                0x0000000000005a18                USART_Reset
 .text.USART_Rx
                0x0000000000005ae8       0x28 build/tsb0//home/gerda/SimplicityStudio_v4/developer/sdks/gecko_sdk_suite/v2.6/platform/emlib/src/em_usart.o
                0x0000000000005ae8                USART_Rx
 .text.USART_Tx
                0x0000000000005b10       0x2c build/tsb0//home/gerda/SimplicityStudio_v4/developer/sdks/gecko_sdk_suite/v2.6/platform/emlib/src/em_usart.o
                0x0000000000005b10                USART_Tx
 .text.MSC_Init
                0x0000000000005b3c       0x34 build/tsb0//home/gerda/SimplicityStudio_v4/developer/sdks/gecko_sdk_suite/v2.6/platform/emlib/src/em_msc.o
                0x0000000000005b3c                MSC_Init
 .text.TIMER_Valid
                0x0000000000005b70       0x50 build/tsb0//home/gerda/SimplicityStudio_v4/developer/sdks/gecko_sdk_suite/v2.6/platform/emlib/src/em_timer.o
 .text.TIMER_Init
                0x0000000000005bc0       0xe8 build/tsb0//home/gerda/SimplicityStudio_v4/developer/sdks/gecko_sdk_suite/v2.6/platform/emlib/src/em_timer.o
                0x0000000000005bc0                TIMER_Init
 .text.TIMER_InitCC
                0x0000000000005ca8       0xa6 build/tsb0//home/gerda/SimplicityStudio_v4/developer/sdks/gecko_sdk_suite/v2.6/platform/emlib/src/em_timer.o
                0x0000000000005ca8                TIMER_InitCC
 *fill*         0x0000000000005d4e        0x2 
 .text.logger_fwrite_init
                0x0000000000005d50       0x1c build/tsb0//home/gerda/node-apps/zoo/thinnect.node-platform/silabs/logger_fwrite.o
                0x0000000000005d50                logger_fwrite_init
 .text.logger_fwrite
                0x0000000000005d6c       0x60 build/tsb0//home/gerda/node-apps/zoo/thinnect.node-platform/silabs/logger_fwrite.o
                0x0000000000005d6c                logger_fwrite
 .text.log_init
                0x0000000000005dcc       0x64 build/tsb0//home/gerda/node-apps/zoo/thinnect.lll/logging/loggers_ext.o
                0x0000000000005dcc                log_init
 .text.__logger
                0x0000000000005e30      0x14c build/tsb0//home/gerda/node-apps/zoo/thinnect.lll/logging/loggers_ext.o
                0x0000000000005e30                __logger
 .text.log_severity_char
                0x0000000000005f7c       0xf6 build/tsb0//home/gerda/node-apps/zoo/thinnect.lll/logging/loggers_ext.o
 *fill*         0x0000000000006072        0x2 
 .text.Reset_Handler
                0x0000000000006074       0x78 build/tsb0//home/gerda/SimplicityStudio_v4/developer/sdks/gecko_sdk_suite/v2.6/platform/Device/SiliconLabs/EFR32MG12P/Source/GCC/startup_efr32mg12p.o
                0x0000000000006074                Reset_Handler
 .text.Default_Handler
                0x00000000000060ec        0x6 build/tsb0//home/gerda/SimplicityStudio_v4/developer/sdks/gecko_sdk_suite/v2.6/platform/Device/SiliconLabs/EFR32MG12P/Source/GCC/startup_efr32mg12p.o
                0x00000000000060ec                DebugMon_Handler
                0x00000000000060ec                USART0_TX_IRQHandler
                0x00000000000060ec                I2C0_IRQHandler
                0x00000000000060ec                HardFault_Handler
                0x00000000000060ec                USART1_RX_IRQHandler
                0x00000000000060ec                NMI_Handler
                0x00000000000060ec                SYNTH_IRQHandler
                0x00000000000060ec                I2C1_IRQHandler
                0x00000000000060ec                WTIMER0_IRQHandler
                0x00000000000060ec                CRYPTO0_IRQHandler
                0x00000000000060ec                WDOG0_IRQHandler
                0x00000000000060ec                USART1_TX_IRQHandler
                0x00000000000060ec                SMU_IRQHandler
                0x00000000000060ec                MSC_IRQHandler
                0x00000000000060ec                ADC0_IRQHandler
                0x00000000000060ec                UsageFault_Handler
                0x00000000000060ec                WDOG1_IRQHandler
                0x00000000000060ec                LEUART0_IRQHandler
                0x00000000000060ec                FPUEH_IRQHandler
                0x00000000000060ec                WTIMER1_IRQHandler
                0x00000000000060ec                GPIO_EVEN_IRQHandler
                0x00000000000060ec                VDAC0_IRQHandler
                0x00000000000060ec                LDMA_IRQHandler
                0x00000000000060ec                CSEN_IRQHandler
                0x00000000000060ec                CRYPTO1_IRQHandler
                0x00000000000060ec                TIMER0_IRQHandler
                0x00000000000060ec                PCNT2_IRQHandler
                0x00000000000060ec                LETIMER0_IRQHandler
                0x00000000000060ec                TIMER1_IRQHandler
                0x00000000000060ec                TRNG0_IRQHandler
                0x00000000000060ec                RFSENSE_IRQHandler
                0x00000000000060ec                BUFC_IRQHandler
                0x00000000000060ec                MODEM_IRQHandler
                0x00000000000060ec                USART2_RX_IRQHandler
                0x00000000000060ec                Default_Handler
                0x00000000000060ec                RAC_SEQ_IRQHandler
                0x00000000000060ec                FRC_PRI_IRQHandler
                0x00000000000060ec                EMU_IRQHandler
                0x00000000000060ec                FRC_IRQHandler
                0x00000000000060ec                CRYOTIMER_IRQHandler
                0x00000000000060ec                PCNT0_IRQHandler
                0x00000000000060ec                AGC_IRQHandler
                0x00000000000060ec                sl_app_properties
                0x00000000000060ec                PCNT1_IRQHandler
                0x00000000000060ec                ACMP0_IRQHandler
                0x00000000000060ec                MemManage_Handler
                0x00000000000060ec                USART3_RX_IRQHandler
                0x00000000000060ec                RTCC_IRQHandler
                0x00000000000060ec                CMU_IRQHandler
                0x00000000000060ec                RAC_RSM_IRQHandler
                0x00000000000060ec                LESENSE_IRQHandler
                0x00000000000060ec                GPIO_ODD_IRQHandler
                0x00000000000060ec                USART3_TX_IRQHandler
                0x00000000000060ec                PROTIMER_IRQHandler
                0x00000000000060ec                BusFault_Handler
                0x00000000000060ec                USART2_TX_IRQHandler
                0x00000000000060ec                IDAC0_IRQHandler
 *fill*         0x00000000000060f2        0x2 
 .text.SystemCoreClockGet
                0x00000000000060f4       0x40 build/tsb0//home/gerda/SimplicityStudio_v4/developer/sdks/gecko_sdk_suite/v2.6/platform/Device/SiliconLabs/EFR32MG12P/Source/system_efr32mg12p.o
                0x00000000000060f4                SystemCoreClockGet
 .text.SystemMaxCoreClockGet
                0x0000000000006134       0x14 build/tsb0//home/gerda/SimplicityStudio_v4/developer/sdks/gecko_sdk_suite/v2.6/platform/Device/SiliconLabs/EFR32MG12P/Source/system_efr32mg12p.o
                0x0000000000006134                SystemMaxCoreClockGet
 .text.SystemHFClockGet
                0x0000000000006148       0x74 build/tsb0//home/gerda/SimplicityStudio_v4/developer/sdks/gecko_sdk_suite/v2.6/platform/Device/SiliconLabs/EFR32MG12P/Source/system_efr32mg12p.o
                0x0000000000006148                SystemHFClockGet
 .text.SystemHFXOClockGet
                0x00000000000061bc       0x18 build/tsb0//home/gerda/SimplicityStudio_v4/developer/sdks/gecko_sdk_suite/v2.6/platform/Device/SiliconLabs/EFR32MG12P/Source/system_efr32mg12p.o
                0x00000000000061bc                SystemHFXOClockGet
 .text.SystemInit
                0x00000000000061d4       0x2c build/tsb0//home/gerda/SimplicityStudio_v4/developer/sdks/gecko_sdk_suite/v2.6/platform/Device/SiliconLabs/EFR32MG12P/Source/system_efr32mg12p.o
                0x00000000000061d4                SystemInit
 .text.SystemLFRCOClockGet
                0x0000000000006200       0x12 build/tsb0//home/gerda/SimplicityStudio_v4/developer/sdks/gecko_sdk_suite/v2.6/platform/Device/SiliconLabs/EFR32MG12P/Source/system_efr32mg12p.o
                0x0000000000006200                SystemLFRCOClockGet
 .text.SystemULFRCOClockGet
                0x0000000000006212       0x12 build/tsb0//home/gerda/SimplicityStudio_v4/developer/sdks/gecko_sdk_suite/v2.6/platform/Device/SiliconLabs/EFR32MG12P/Source/system_efr32mg12p.o
                0x0000000000006212                SystemULFRCOClockGet
 .text.SystemLFXOClockGet
                0x0000000000006224       0x18 build/tsb0//home/gerda/SimplicityStudio_v4/developer/sdks/gecko_sdk_suite/v2.6/platform/Device/SiliconLabs/EFR32MG12P/Source/system_efr32mg12p.o
                0x0000000000006224                SystemLFXOClockGet
 .text.SystemCoreClockUpdate
                0x000000000000623c        0xc build/tsb0//home/gerda/node-apps/zoo/thinnect.dev-platforms/make/boards/../../src/boards/tsb0/platform.o
 .text.SYSTEM_GetProdRev
                0x0000000000006248       0x1c build/tsb0//home/gerda/node-apps/zoo/thinnect.dev-platforms/make/boards/../../src/boards/tsb0/platform.o
 .text.CHIP_Init
                0x0000000000006264       0x80 build/tsb0//home/gerda/node-apps/zoo/thinnect.dev-platforms/make/boards/../../src/boards/tsb0/platform.o
 .text.PLATFORM_Init
                0x00000000000062e4       0x9c build/tsb0//home/gerda/node-apps/zoo/thinnect.dev-platforms/make/boards/../../src/boards/tsb0/platform.o
                0x00000000000062e4                PLATFORM_Init
 .text.BUS_RegBitRead
                0x0000000000006380       0x2e build/tsb0//home/gerda/node-apps/zoo/thinnect.node-platform/silabs/platform_io.o
 .text.GPIO_PinInGet
                0x00000000000063ae       0x72 build/tsb0//home/gerda/node-apps/zoo/thinnect.node-platform/silabs/platform_io.o
 .text.GPIO_PinOutGet
                0x0000000000006420       0x72 build/tsb0//home/gerda/node-apps/zoo/thinnect.node-platform/silabs/platform_io.o
 *fill*         0x0000000000006492        0x2 
 .text.PLATFORM_LedsInit
                0x0000000000006494       0x38 build/tsb0//home/gerda/node-apps/zoo/thinnect.node-platform/silabs/platform_io.o
                0x0000000000006494                PLATFORM_LedsInit
 .text.ledGet   0x00000000000064cc       0x22 build/tsb0//home/gerda/node-apps/zoo/thinnect.node-platform/silabs/platform_io.o
 .text.PLATFORM_LedsGet
                0x00000000000064ee       0x5a build/tsb0//home/gerda/node-apps/zoo/thinnect.node-platform/silabs/platform_io.o
                0x00000000000064ee                PLATFORM_LedsGet
 .text.PLATFORM_ButtonPinInit
                0x0000000000006548       0x20 build/tsb0//home/gerda/node-apps/zoo/thinnect.node-platform/silabs/platform_io.o
                0x0000000000006548                PLATFORM_ButtonPinInit
 .text.PLATFORM_ButtonGet
                0x0000000000006568       0x1c build/tsb0//home/gerda/node-apps/zoo/thinnect.node-platform/silabs/platform_io.o
                0x0000000000006568                PLATFORM_ButtonGet
 .text          0x0000000000006584       0x30 /opt/gcc-arm-none-eabi-9-2019-q4-major/bin/../lib/gcc/arm-none-eabi/9.2.1/thumb/v7e-m+fp/softfp/libgcc.a(_aeabi_uldivmod.o)
                0x0000000000006584                __aeabi_uldivmod
 .text          0x00000000000065b4      0x2c4 /opt/gcc-arm-none-eabi-9-2019-q4-major/bin/../lib/gcc/arm-none-eabi/9.2.1/thumb/v7e-m+fp/softfp/libgcc.a(_udivmoddi4.o)
                0x00000000000065b4                __udivmoddi4
 .text          0x0000000000006878        0x4 /opt/gcc-arm-none-eabi-9-2019-q4-major/bin/../lib/gcc/arm-none-eabi/9.2.1/thumb/v7e-m+fp/softfp/libgcc.a(_dvmd_tls.o)
                0x0000000000006878                __aeabi_ldiv0
                0x0000000000006878                __aeabi_idiv0
 .text.__sflush_r
                0x000000000000687c      0x130 /opt/gcc-arm-none-eabi-9-2019-q4-major/bin/../lib/gcc/arm-none-eabi/9.2.1/../../../../arm-none-eabi/lib/thumb/v7e-m+fp/softfp/libg.a(lib_a-fflush.o)
                0x000000000000687c                __sflush_r
 .text._fflush_r
                0x00000000000069ac       0x5c /opt/gcc-arm-none-eabi-9-2019-q4-major/bin/../lib/gcc/arm-none-eabi/9.2.1/../../../../arm-none-eabi/lib/thumb/v7e-m+fp/softfp/libg.a(lib_a-fflush.o)
                0x00000000000069ac                _fflush_r
 .text.fflush   0x0000000000006a08       0x24 /opt/gcc-arm-none-eabi-9-2019-q4-major/bin/../lib/gcc/arm-none-eabi/9.2.1/../../../../arm-none-eabi/lib/thumb/v7e-m+fp/softfp/libg.a(lib_a-fflush.o)
                0x0000000000006a08                fflush
 .text.std      0x0000000000006a2c       0x50 /opt/gcc-arm-none-eabi-9-2019-q4-major/bin/../lib/gcc/arm-none-eabi/9.2.1/../../../../arm-none-eabi/lib/thumb/v7e-m+fp/softfp/libg.a(lib_a-findfp.o)
 .text._cleanup_r
                0x0000000000006a7c        0xc /opt/gcc-arm-none-eabi-9-2019-q4-major/bin/../lib/gcc/arm-none-eabi/9.2.1/../../../../arm-none-eabi/lib/thumb/v7e-m+fp/softfp/libg.a(lib_a-findfp.o)
                0x0000000000006a7c                _cleanup_r
 .text.__sinit  0x0000000000006a88       0x54 /opt/gcc-arm-none-eabi-9-2019-q4-major/bin/../lib/gcc/arm-none-eabi/9.2.1/../../../../arm-none-eabi/lib/thumb/v7e-m+fp/softfp/libg.a(lib_a-findfp.o)
                0x0000000000006a88                __sinit
 .text.__sfp_lock_acquire
                0x0000000000006adc        0xc /opt/gcc-arm-none-eabi-9-2019-q4-major/bin/../lib/gcc/arm-none-eabi/9.2.1/../../../../arm-none-eabi/lib/thumb/v7e-m+fp/softfp/libg.a(lib_a-findfp.o)
                0x0000000000006adc                __sfp_lock_acquire
 .text.__sfp_lock_release
                0x0000000000006ae8        0xc /opt/gcc-arm-none-eabi-9-2019-q4-major/bin/../lib/gcc/arm-none-eabi/9.2.1/../../../../arm-none-eabi/lib/thumb/v7e-m+fp/softfp/libg.a(lib_a-findfp.o)
                0x0000000000006ae8                __sfp_lock_release
 .text._malloc_trim_r
                0x0000000000006af4       0xa0 /opt/gcc-arm-none-eabi-9-2019-q4-major/bin/../lib/gcc/arm-none-eabi/9.2.1/../../../../arm-none-eabi/lib/thumb/v7e-m+fp/softfp/libg.a(lib_a-freer.o)
                0x0000000000006af4                _malloc_trim_r
 .text._free_r  0x0000000000006b94      0x208 /opt/gcc-arm-none-eabi-9-2019-q4-major/bin/../lib/gcc/arm-none-eabi/9.2.1/../../../../arm-none-eabi/lib/thumb/v7e-m+fp/softfp/libg.a(lib_a-freer.o)
                0x0000000000006b94                _free_r
 .text._fwalk_reent
                0x0000000000006d9c       0x48 /opt/gcc-arm-none-eabi-9-2019-q4-major/bin/../lib/gcc/arm-none-eabi/9.2.1/../../../../arm-none-eabi/lib/thumb/v7e-m+fp/softfp/libg.a(lib_a-fwalk.o)
                0x0000000000006d9c                _fwalk_reent
 .text._fwrite_r
                0x0000000000006de4       0xa8 /opt/gcc-arm-none-eabi-9-2019-q4-major/bin/../lib/gcc/arm-none-eabi/9.2.1/../../../../arm-none-eabi/lib/thumb/v7e-m+fp/softfp/libg.a(lib_a-fwrite.o)
                0x0000000000006de4                _fwrite_r
 .text.fwrite   0x0000000000006e8c       0x20 /opt/gcc-arm-none-eabi-9-2019-q4-major/bin/../lib/gcc/arm-none-eabi/9.2.1/../../../../arm-none-eabi/lib/thumb/v7e-m+fp/softfp/libg.a(lib_a-fwrite.o)
                0x0000000000006e8c                fwrite
 .text.__retarget_lock_init_recursive
                0x0000000000006eac        0x4 /opt/gcc-arm-none-eabi-9-2019-q4-major/bin/../lib/gcc/arm-none-eabi/9.2.1/../../../../arm-none-eabi/lib/thumb/v7e-m+fp/softfp/libg.a(lib_a-lock.o)
                0x0000000000006eac                __retarget_lock_init_recursive
 .text.__retarget_lock_close_recursive
                0x0000000000006eb0        0x4 /opt/gcc-arm-none-eabi-9-2019-q4-major/bin/../lib/gcc/arm-none-eabi/9.2.1/../../../../arm-none-eabi/lib/thumb/v7e-m+fp/softfp/libg.a(lib_a-lock.o)
                0x0000000000006eb0                __retarget_lock_close_recursive
 .text.__retarget_lock_acquire_recursive
                0x0000000000006eb4        0x4 /opt/gcc-arm-none-eabi-9-2019-q4-major/bin/../lib/gcc/arm-none-eabi/9.2.1/../../../../arm-none-eabi/lib/thumb/v7e-m+fp/softfp/libg.a(lib_a-lock.o)
                0x0000000000006eb4                __retarget_lock_acquire_recursive
 .text.__retarget_lock_release_recursive
                0x0000000000006eb8        0x4 /opt/gcc-arm-none-eabi-9-2019-q4-major/bin/../lib/gcc/arm-none-eabi/9.2.1/../../../../arm-none-eabi/lib/thumb/v7e-m+fp/softfp/libg.a(lib_a-lock.o)
                0x0000000000006eb8                __retarget_lock_release_recursive
 .text._malloc_r
                0x0000000000006ebc      0x574 /opt/gcc-arm-none-eabi-9-2019-q4-major/bin/../lib/gcc/arm-none-eabi/9.2.1/../../../../arm-none-eabi/lib/thumb/v7e-m+fp/softfp/libg.a(lib_a-mallocr.o)
                0x0000000000006ebc                _malloc_r
 .text          0x0000000000007430      0x134 /opt/gcc-arm-none-eabi-9-2019-q4-major/bin/../lib/gcc/arm-none-eabi/9.2.1/../../../../arm-none-eabi/lib/thumb/v7e-m+fp/softfp/libg.a(lib_a-memcpy.o)
                0x0000000000007430                memcpy
 .text.memset   0x0000000000007564       0xa0 /opt/gcc-arm-none-eabi-9-2019-q4-major/bin/../lib/gcc/arm-none-eabi/9.2.1/../../../../arm-none-eabi/lib/thumb/v7e-m+fp/softfp/libg.a(lib_a-memset.o)
                0x0000000000007564                memset
 .text.__malloc_lock
                0x0000000000007604        0xc /opt/gcc-arm-none-eabi-9-2019-q4-major/bin/../lib/gcc/arm-none-eabi/9.2.1/../../../../arm-none-eabi/lib/thumb/v7e-m+fp/softfp/libg.a(lib_a-mlock.o)
                0x0000000000007604                __malloc_lock
 .text.__malloc_unlock
                0x0000000000007610        0xc /opt/gcc-arm-none-eabi-9-2019-q4-major/bin/../lib/gcc/arm-none-eabi/9.2.1/../../../../arm-none-eabi/lib/thumb/v7e-m+fp/softfp/libg.a(lib_a-mlock.o)
                0x0000000000007610                __malloc_unlock
 .text._sbrk_r  0x000000000000761c       0x24 /opt/gcc-arm-none-eabi-9-2019-q4-major/bin/../lib/gcc/arm-none-eabi/9.2.1/../../../../arm-none-eabi/lib/thumb/v7e-m+fp/softfp/libg.a(lib_a-sbrkr.o)
                0x000000000000761c                _sbrk_r
 .text.setvbuf  0x0000000000007640      0x1a0 /opt/gcc-arm-none-eabi-9-2019-q4-major/bin/../lib/gcc/arm-none-eabi/9.2.1/../../../../arm-none-eabi/lib/thumb/v7e-m+fp/softfp/libg.a(lib_a-setvbuf.o)
                0x0000000000007640                setvbuf
 .text.snprintf
                0x00000000000077e0       0x88 /opt/gcc-arm-none-eabi-9-2019-q4-major/bin/../lib/gcc/arm-none-eabi/9.2.1/../../../../arm-none-eabi/lib/thumb/v7e-m+fp/softfp/libg.a(lib_a-snprintf.o)
                0x00000000000077e0                snprintf
 .text.__sread  0x0000000000007868       0x24 /opt/gcc-arm-none-eabi-9-2019-q4-major/bin/../lib/gcc/arm-none-eabi/9.2.1/../../../../arm-none-eabi/lib/thumb/v7e-m+fp/softfp/libg.a(lib_a-stdio.o)
                0x0000000000007868                __sread
 .text.__swrite
                0x000000000000788c       0x40 /opt/gcc-arm-none-eabi-9-2019-q4-major/bin/../lib/gcc/arm-none-eabi/9.2.1/../../../../arm-none-eabi/lib/thumb/v7e-m+fp/softfp/libg.a(lib_a-stdio.o)
                0x000000000000788c                __swrite
 .text.__sseek  0x00000000000078cc       0x20 /opt/gcc-arm-none-eabi-9-2019-q4-major/bin/../lib/gcc/arm-none-eabi/9.2.1/../../../../arm-none-eabi/lib/thumb/v7e-m+fp/softfp/libg.a(lib_a-stdio.o)
                0x00000000000078cc                __sseek
 .text.__sclose
                0x00000000000078ec        0x8 /opt/gcc-arm-none-eabi-9-2019-q4-major/bin/../lib/gcc/arm-none-eabi/9.2.1/../../../../arm-none-eabi/lib/thumb/v7e-m+fp/softfp/libg.a(lib_a-stdio.o)
                0x00000000000078ec                __sclose
 *fill*         0x00000000000078f4        0x4 
 .text._svfprintf_r
                0x00000000000078f8     0x1b34 /opt/gcc-arm-none-eabi-9-2019-q4-major/bin/../lib/gcc/arm-none-eabi/9.2.1/../../../../arm-none-eabi/lib/thumb/v7e-m+fp/softfp/libg.a(lib_a-svfprintf.o)
                0x00000000000078f8                _svfprintf_r
 .text._vsnprintf_r
                0x000000000000942c       0x70 /opt/gcc-arm-none-eabi-9-2019-q4-major/bin/../lib/gcc/arm-none-eabi/9.2.1/../../../../arm-none-eabi/lib/thumb/v7e-m+fp/softfp/libg.a(lib_a-vsnprintf.o)
                0x000000000000942c                _vsnprintf_r
 .text.vsnprintf
                0x000000000000949c       0x20 /opt/gcc-arm-none-eabi-9-2019-q4-major/bin/../lib/gcc/arm-none-eabi/9.2.1/../../../../arm-none-eabi/lib/thumb/v7e-m+fp/softfp/libg.a(lib_a-vsnprintf.o)
                0x000000000000949c                vsnprintf
 .text._write_r
                0x00000000000094bc       0x2c /opt/gcc-arm-none-eabi-9-2019-q4-major/bin/../lib/gcc/arm-none-eabi/9.2.1/../../../../arm-none-eabi/lib/thumb/v7e-m+fp/softfp/libg.a(lib_a-writer.o)
                0x00000000000094bc                _write_r
 .text._close_r
                0x00000000000094e8       0x24 /opt/gcc-arm-none-eabi-9-2019-q4-major/bin/../lib/gcc/arm-none-eabi/9.2.1/../../../../arm-none-eabi/lib/thumb/v7e-m+fp/softfp/libg.a(lib_a-closer.o)
                0x00000000000094e8                _close_r
 .text.quorem   0x000000000000950c      0x11c /opt/gcc-arm-none-eabi-9-2019-q4-major/bin/../lib/gcc/arm-none-eabi/9.2.1/../../../../arm-none-eabi/lib/thumb/v7e-m+fp/softfp/libg.a(lib_a-dtoa.o)
 .text._dtoa_r  0x0000000000009628      0xeec /opt/gcc-arm-none-eabi-9-2019-q4-major/bin/../lib/gcc/arm-none-eabi/9.2.1/../../../../arm-none-eabi/lib/thumb/v7e-m+fp/softfp/libg.a(lib_a-dtoa.o)
                0x0000000000009628                _dtoa_r
 .text._fclose_r
                0x000000000000a514       0xcc /opt/gcc-arm-none-eabi-9-2019-q4-major/bin/../lib/gcc/arm-none-eabi/9.2.1/../../../../arm-none-eabi/lib/thumb/v7e-m+fp/softfp/libg.a(lib_a-fclose.o)
                0x000000000000a514                _fclose_r
 .text.__sfvwrite_r
                0x000000000000a5e0      0x2e0 /opt/gcc-arm-none-eabi-9-2019-q4-major/bin/../lib/gcc/arm-none-eabi/9.2.1/../../../../arm-none-eabi/lib/thumb/v7e-m+fp/softfp/libg.a(lib_a-fvwrite.o)
                0x000000000000a5e0                __sfvwrite_r
 .text._localeconv_r
                0x000000000000a8c0        0x8 /opt/gcc-arm-none-eabi-9-2019-q4-major/bin/../lib/gcc/arm-none-eabi/9.2.1/../../../../arm-none-eabi/lib/thumb/v7e-m+fp/softfp/libg.a(lib_a-localeconv.o)
                0x000000000000a8c0                _localeconv_r
 .text._lseek_r
                0x000000000000a8c8       0x2c /opt/gcc-arm-none-eabi-9-2019-q4-major/bin/../lib/gcc/arm-none-eabi/9.2.1/../../../../arm-none-eabi/lib/thumb/v7e-m+fp/softfp/libg.a(lib_a-lseekr.o)
                0x000000000000a8c8                _lseek_r
 .text.__swhatbuf_r
                0x000000000000a8f4       0x5c /opt/gcc-arm-none-eabi-9-2019-q4-major/bin/../lib/gcc/arm-none-eabi/9.2.1/../../../../arm-none-eabi/lib/thumb/v7e-m+fp/softfp/libg.a(lib_a-makebuf.o)
                0x000000000000a8f4                __swhatbuf_r
 .text.__smakebuf_r
                0x000000000000a950       0x98 /opt/gcc-arm-none-eabi-9-2019-q4-major/bin/../lib/gcc/arm-none-eabi/9.2.1/../../../../arm-none-eabi/lib/thumb/v7e-m+fp/softfp/libg.a(lib_a-makebuf.o)
                0x000000000000a950                __smakebuf_r
 .text.malloc   0x000000000000a9e8       0x10 /opt/gcc-arm-none-eabi-9-2019-q4-major/bin/../lib/gcc/arm-none-eabi/9.2.1/../../../../arm-none-eabi/lib/thumb/v7e-m+fp/softfp/libg.a(lib_a-malloc.o)
                0x000000000000a9e8                malloc
 *fill*         0x000000000000a9f8        0x8 
 .text          0x000000000000aa00       0xa0 /opt/gcc-arm-none-eabi-9-2019-q4-major/bin/../lib/gcc/arm-none-eabi/9.2.1/../../../../arm-none-eabi/lib/thumb/v7e-m+fp/softfp/libg.a(lib_a-memchr.o)
                0x000000000000aa00                memchr
 .text.memmove  0x000000000000aaa0       0xd8 /opt/gcc-arm-none-eabi-9-2019-q4-major/bin/../lib/gcc/arm-none-eabi/9.2.1/../../../../arm-none-eabi/lib/thumb/v7e-m+fp/softfp/libg.a(lib_a-memmove.o)
                0x000000000000aaa0                memmove
 .text._Balloc  0x000000000000ab78       0x4c /opt/gcc-arm-none-eabi-9-2019-q4-major/bin/../lib/gcc/arm-none-eabi/9.2.1/../../../../arm-none-eabi/lib/thumb/v7e-m+fp/softfp/libg.a(lib_a-mprec.o)
                0x000000000000ab78                _Balloc
 .text._Bfree   0x000000000000abc4       0x14 /opt/gcc-arm-none-eabi-9-2019-q4-major/bin/../lib/gcc/arm-none-eabi/9.2.1/../../../../arm-none-eabi/lib/thumb/v7e-m+fp/softfp/libg.a(lib_a-mprec.o)
                0x000000000000abc4                _Bfree
 .text.__multadd
                0x000000000000abd8       0x8c /opt/gcc-arm-none-eabi-9-2019-q4-major/bin/../lib/gcc/arm-none-eabi/9.2.1/../../../../arm-none-eabi/lib/thumb/v7e-m+fp/softfp/libg.a(lib_a-mprec.o)
                0x000000000000abd8                __multadd
 .text.__hi0bits
                0x000000000000ac64       0x40 /opt/gcc-arm-none-eabi-9-2019-q4-major/bin/../lib/gcc/arm-none-eabi/9.2.1/../../../../arm-none-eabi/lib/thumb/v7e-m+fp/softfp/libg.a(lib_a-mprec.o)
                0x000000000000ac64                __hi0bits
 .text.__lo0bits
                0x000000000000aca4       0x60 /opt/gcc-arm-none-eabi-9-2019-q4-major/bin/../lib/gcc/arm-none-eabi/9.2.1/../../../../arm-none-eabi/lib/thumb/v7e-m+fp/softfp/libg.a(lib_a-mprec.o)
                0x000000000000aca4                __lo0bits
 .text.__i2b    0x000000000000ad04       0x14 /opt/gcc-arm-none-eabi-9-2019-q4-major/bin/../lib/gcc/arm-none-eabi/9.2.1/../../../../arm-none-eabi/lib/thumb/v7e-m+fp/softfp/libg.a(lib_a-mprec.o)
                0x000000000000ad04                __i2b
 .text.__multiply
                0x000000000000ad18      0x144 /opt/gcc-arm-none-eabi-9-2019-q4-major/bin/../lib/gcc/arm-none-eabi/9.2.1/../../../../arm-none-eabi/lib/thumb/v7e-m+fp/softfp/libg.a(lib_a-mprec.o)
                0x000000000000ad18                __multiply
 .text.__pow5mult
                0x000000000000ae5c       0xa0 /opt/gcc-arm-none-eabi-9-2019-q4-major/bin/../lib/gcc/arm-none-eabi/9.2.1/../../../../arm-none-eabi/lib/thumb/v7e-m+fp/softfp/libg.a(lib_a-mprec.o)
                0x000000000000ae5c                __pow5mult
 .text.__lshift
                0x000000000000aefc       0xd4 /opt/gcc-arm-none-eabi-9-2019-q4-major/bin/../lib/gcc/arm-none-eabi/9.2.1/../../../../arm-none-eabi/lib/thumb/v7e-m+fp/softfp/libg.a(lib_a-mprec.o)
                0x000000000000aefc                __lshift
 .text.__mcmp   0x000000000000afd0       0x3c /opt/gcc-arm-none-eabi-9-2019-q4-major/bin/../lib/gcc/arm-none-eabi/9.2.1/../../../../arm-none-eabi/lib/thumb/v7e-m+fp/softfp/libg.a(lib_a-mprec.o)
                0x000000000000afd0                __mcmp
 .text.__mdiff  0x000000000000b00c      0x138 /opt/gcc-arm-none-eabi-9-2019-q4-major/bin/../lib/gcc/arm-none-eabi/9.2.1/../../../../arm-none-eabi/lib/thumb/v7e-m+fp/softfp/libg.a(lib_a-mprec.o)
                0x000000000000b00c                __mdiff
 .text.__d2b    0x000000000000b144       0xbc /opt/gcc-arm-none-eabi-9-2019-q4-major/bin/../lib/gcc/arm-none-eabi/9.2.1/../../../../arm-none-eabi/lib/thumb/v7e-m+fp/softfp/libg.a(lib_a-mprec.o)
                0x000000000000b144                __d2b
 .text._read_r  0x000000000000b200       0x2c /opt/gcc-arm-none-eabi-9-2019-q4-major/bin/../lib/gcc/arm-none-eabi/9.2.1/../../../../arm-none-eabi/lib/thumb/v7e-m+fp/softfp/libg.a(lib_a-readr.o)
                0x000000000000b200                _read_r
 .text._realloc_r
                0x000000000000b22c      0x3e0 /opt/gcc-arm-none-eabi-9-2019-q4-major/bin/../lib/gcc/arm-none-eabi/9.2.1/../../../../arm-none-eabi/lib/thumb/v7e-m+fp/softfp/libg.a(lib_a-reallocr.o)
                0x000000000000b22c                _realloc_r
 .text.frexp    0x000000000000b60c       0x70 /opt/gcc-arm-none-eabi-9-2019-q4-major/bin/../lib/gcc/arm-none-eabi/9.2.1/../../../../arm-none-eabi/lib/thumb/v7e-m+fp/softfp/libg.a(lib_a-s_frexp.o)
                0x000000000000b60c                frexp
 *fill*         0x000000000000b67c        0x4 
 .text          0x000000000000b680       0xdc /opt/gcc-arm-none-eabi-9-2019-q4-major/bin/../lib/gcc/arm-none-eabi/9.2.1/../../../../arm-none-eabi/lib/thumb/v7e-m+fp/softfp/libg.a(lib_a-strlen.o)
                0x000000000000b680                strlen
 .text.strncpy  0x000000000000b75c       0x68 /opt/gcc-arm-none-eabi-9-2019-q4-major/bin/../lib/gcc/arm-none-eabi/9.2.1/../../../../arm-none-eabi/lib/thumb/v7e-m+fp/softfp/libg.a(lib_a-strncpy.o)
                0x000000000000b75c                strncpy
 .text.__ssprint_r
                0x000000000000b7c4       0xf8 /opt/gcc-arm-none-eabi-9-2019-q4-major/bin/../lib/gcc/arm-none-eabi/9.2.1/../../../../arm-none-eabi/lib/thumb/v7e-m+fp/softfp/libg.a(lib_a-svfiprintf.o)
                0x000000000000b7c4                __ssprint_r
 .text.__swsetup_r
                0x000000000000b8bc       0xd0 /opt/gcc-arm-none-eabi-9-2019-q4-major/bin/../lib/gcc/arm-none-eabi/9.2.1/../../../../arm-none-eabi/lib/thumb/v7e-m+fp/softfp/libg.a(lib_a-wsetup.o)
                0x000000000000b8bc                __swsetup_r
 .text._calloc_r
                0x000000000000b98c       0x60 /opt/gcc-arm-none-eabi-9-2019-q4-major/bin/../lib/gcc/arm-none-eabi/9.2.1/../../../../arm-none-eabi/lib/thumb/v7e-m+fp/softfp/libg.a(lib_a-callocr.o)
                0x000000000000b98c                _calloc_r
 .text._fstat_r
                0x000000000000b9ec       0x2c /opt/gcc-arm-none-eabi-9-2019-q4-major/bin/../lib/gcc/arm-none-eabi/9.2.1/../../../../arm-none-eabi/lib/thumb/v7e-m+fp/softfp/libg.a(lib_a-fstatr.o)
                0x000000000000b9ec                _fstat_r
 .text._isatty_r
                0x000000000000ba18       0x24 /opt/gcc-arm-none-eabi-9-2019-q4-major/bin/../lib/gcc/arm-none-eabi/9.2.1/../../../../arm-none-eabi/lib/thumb/v7e-m+fp/softfp/libg.a(lib_a-isattyr.o)
                0x000000000000ba18                _isatty_r
 .text.__ascii_mbtowc
                0x000000000000ba3c       0x2c /opt/gcc-arm-none-eabi-9-2019-q4-major/bin/../lib/gcc/arm-none-eabi/9.2.1/../../../../arm-none-eabi/lib/thumb/v7e-m+fp/softfp/libg.a(lib_a-mbtowc_r.o)
                0x000000000000ba3c                __ascii_mbtowc
 .text.__ascii_wctomb
                0x000000000000ba68       0x1c /opt/gcc-arm-none-eabi-9-2019-q4-major/bin/../lib/gcc/arm-none-eabi/9.2.1/../../../../arm-none-eabi/lib/thumb/v7e-m+fp/softfp/libg.a(lib_a-wctomb_r.o)
                0x000000000000ba68                __ascii_wctomb
 .text          0x000000000000ba84      0x378 /opt/gcc-arm-none-eabi-9-2019-q4-major/bin/../lib/gcc/arm-none-eabi/9.2.1/thumb/v7e-m+fp/softfp/libgcc.a(_arm_addsubdf3.o)
                0x000000000000ba84                __aeabi_drsub
                0x000000000000ba8c                __aeabi_dsub
                0x000000000000ba8c                __subdf3
                0x000000000000ba90                __adddf3
                0x000000000000ba90                __aeabi_dadd
                0x000000000000bd08                __aeabi_ui2d
                0x000000000000bd08                __floatunsidf
                0x000000000000bd28                __floatsidf
                0x000000000000bd28                __aeabi_i2d
                0x000000000000bd4c                __extendsfdf2
                0x000000000000bd4c                __aeabi_f2d
                0x000000000000bd90                __aeabi_ul2d
                0x000000000000bd90                __floatundidf
                0x000000000000bda0                __floatdidf
                0x000000000000bda0                __aeabi_l2d
 .text          0x000000000000bdfc      0x424 /opt/gcc-arm-none-eabi-9-2019-q4-major/bin/../lib/gcc/arm-none-eabi/9.2.1/thumb/v7e-m+fp/softfp/libgcc.a(_arm_muldivdf3.o)
                0x000000000000bdfc                __aeabi_dmul
                0x000000000000bdfc                __muldf3
                0x000000000000c050                __aeabi_ddiv
                0x000000000000c050                __divdf3
 .text          0x000000000000c220      0x110 /opt/gcc-arm-none-eabi-9-2019-q4-major/bin/../lib/gcc/arm-none-eabi/9.2.1/thumb/v7e-m+fp/softfp/libgcc.a(_arm_cmpdf2.o)
                0x000000000000c220                __gtdf2
                0x000000000000c220                __gedf2
                0x000000000000c228                __ltdf2
                0x000000000000c228                __ledf2
                0x000000000000c230                __cmpdf2
                0x000000000000c230                __eqdf2
                0x000000000000c230                __nedf2
                0x000000000000c2ac                __aeabi_cdrcmple
                0x000000000000c2bc                __aeabi_cdcmple
                0x000000000000c2bc                __aeabi_cdcmpeq
                0x000000000000c2cc                __aeabi_dcmpeq
                0x000000000000c2e0                __aeabi_dcmplt
                0x000000000000c2f4                __aeabi_dcmple
                0x000000000000c308                __aeabi_dcmpge
                0x000000000000c31c                __aeabi_dcmpgt
 .text          0x000000000000c330       0x2c /opt/gcc-arm-none-eabi-9-2019-q4-major/bin/../lib/gcc/arm-none-eabi/9.2.1/thumb/v7e-m+fp/softfp/libgcc.a(_arm_unorddf2.o)
                0x000000000000c330                __aeabi_dcmpun
                0x000000000000c330                __unorddf2
 .text          0x000000000000c35c       0x50 /opt/gcc-arm-none-eabi-9-2019-q4-major/bin/../lib/gcc/arm-none-eabi/9.2.1/thumb/v7e-m+fp/softfp/libgcc.a(_arm_fixdfsi.o)
                0x000000000000c35c                __fixdfsi
                0x000000000000c35c                __aeabi_d2iz
 *(.init)
 *(.fini)
 *crtbegin.o(.ctors)
 *crtbegin?.o(.ctors)
 *(EXCLUDE_FILE(*crtend.o *crtend?.o) .ctors)
 *(SORT_BY_NAME(.ctors.*))
 *(.ctors)
 *crtbegin.o(.dtors)
 *crtbegin?.o(.dtors)
 *(EXCLUDE_FILE(*crtend.o *crtend?.o) .dtors)
 *(SORT_BY_NAME(.dtors.*))
 *(.dtors)
 *(.rodata*)
 .rodata        0x000000000000c3ac        0xb build/tsb0/blink_main.o
 *fill*         0x000000000000c3b7        0x1 
 .rodata.moduulROM.9233
                0x000000000000c3b8        0x5 build/tsb0/blink_main.o
 *fill*         0x000000000000c3bd        0x3 
 .rodata.strROM.9234
                0x000000000000c3c0        0xb build/tsb0/blink_main.o
 *fill*         0x000000000000c3cb        0x1 
 .rodata.moduulROM.9238
                0x000000000000c3cc        0x5 build/tsb0/blink_main.o
 *fill*         0x000000000000c3d1        0x3 
 .rodata.strROM.9239
                0x000000000000c3d4        0xb build/tsb0/blink_main.o
 *fill*         0x000000000000c3df        0x1 
 .rodata.moduulROM.9243
                0x000000000000c3e0        0x5 build/tsb0/blink_main.o
 *fill*         0x000000000000c3e5        0x3 
 .rodata.strROM.9244
                0x000000000000c3e8        0xb build/tsb0/blink_main.o
 *fill*         0x000000000000c3f3        0x1 
 .rodata.moduulROM.9250
                0x000000000000c3f4        0x5 build/tsb0/blink_main.o
 *fill*         0x000000000000c3f9        0x3 
 .rodata.strROM.9251
                0x000000000000c3fc       0x12 build/tsb0/blink_main.o
 *fill*         0x000000000000c40e        0x2 
 .rodata.moduulROM.9252
                0x000000000000c410        0x5 build/tsb0/blink_main.o
 *fill*         0x000000000000c415        0x3 
 .rodata.strROM.9253
                0x000000000000c418        0x8 build/tsb0/blink_main.o
 .rodata.moduulROM.9254
                0x000000000000c420        0x5 build/tsb0/blink_main.o
 *fill*         0x000000000000c425        0x3 
 .rodata.strROM.9255
                0x000000000000c428        0x7 build/tsb0/blink_main.o
 *fill*         0x000000000000c42f        0x1 
 .rodata.moduulROM.9265
                0x000000000000c430        0x5 build/tsb0/blink_main.o
 *fill*         0x000000000000c435        0x3 
 .rodata.strROM.9266
                0x000000000000c438       0x1b build/tsb0/blink_main.o
 *fill*         0x000000000000c453        0x1 
 .rodata.moduulROM.9269
                0x000000000000c454        0x5 build/tsb0/blink_main.o
 *fill*         0x000000000000c459        0x3 
 .rodata.strROM.9270
                0x000000000000c45c        0xf build/tsb0/blink_main.o
 *fill*         0x000000000000c46b        0x1 
 .rodata        0x000000000000c46c        0x5 build/tsb0//home/gerda/node-apps/zoo/FreeRTOS-Kernel/tasks.o
 *fill*         0x000000000000c471        0x3 
 .rodata        0x000000000000c474        0x8 build/tsb0//home/gerda/node-apps/zoo/FreeRTOS-Kernel/timers.o
 .rodata        0x000000000000c47c       0x1c build/tsb0//home/gerda/SimplicityStudio_v4/developer/sdks/gecko_sdk_suite/v2.6/hardware/kit/common/drivers/retargetserial.o
 .rodata.flashWsTable
                0x000000000000c498       0x28 build/tsb0//home/gerda/SimplicityStudio_v4/developer/sdks/gecko_sdk_suite/v2.6/platform/emlib/src/em_cmu.o
 .rodata.resetCauseMasks
                0x000000000000c4c0       0x48 build/tsb0//home/gerda/SimplicityStudio_v4/developer/sdks/gecko_sdk_suite/v2.6/platform/emlib/src/em_rmu.o
 .rodata        0x000000000000c508       0x3d build/tsb0//home/gerda/node-apps/zoo/thinnect.lll/logging/loggers_ext.o
 *fill*         0x000000000000c545        0x3 
 .rodata        0x000000000000c548       0x12 build/tsb0//home/gerda/node-apps/zoo/thinnect.dev-platforms/make/boards/../../src/boards/tsb0/platform.o
 *fill*         0x000000000000c55a        0x2 
 .rodata._global_impure_ptr
                0x000000000000c55c        0x4 /opt/gcc-arm-none-eabi-9-2019-q4-major/bin/../lib/gcc/arm-none-eabi/9.2.1/../../../../arm-none-eabi/lib/thumb/v7e-m+fp/softfp/libg.a(lib_a-impure.o)
                0x000000000000c55c                _global_impure_ptr
 .rodata._svfprintf_r.str1.4
                0x000000000000c560       0x42 /opt/gcc-arm-none-eabi-9-2019-q4-major/bin/../lib/gcc/arm-none-eabi/9.2.1/../../../../arm-none-eabi/lib/thumb/v7e-m+fp/softfp/libg.a(lib_a-svfprintf.o)
 *fill*         0x000000000000c5a2        0x2 
 .rodata.blanks.8708
                0x000000000000c5a4       0x10 /opt/gcc-arm-none-eabi-9-2019-q4-major/bin/../lib/gcc/arm-none-eabi/9.2.1/../../../../arm-none-eabi/lib/thumb/v7e-m+fp/softfp/libg.a(lib_a-svfprintf.o)
 .rodata.zeroes.8709
                0x000000000000c5b4       0x10 /opt/gcc-arm-none-eabi-9-2019-q4-major/bin/../lib/gcc/arm-none-eabi/9.2.1/../../../../arm-none-eabi/lib/thumb/v7e-m+fp/softfp/libg.a(lib_a-svfprintf.o)
 .rodata._dtoa_r.str1.4
                0x000000000000c5c4        0xd /opt/gcc-arm-none-eabi-9-2019-q4-major/bin/../lib/gcc/arm-none-eabi/9.2.1/../../../../arm-none-eabi/lib/thumb/v7e-m+fp/softfp/libg.a(lib_a-dtoa.o)
                                         0x12 (size before relaxing)
 *fill*         0x000000000000c5d1        0x7 
 .rodata.__mprec_bigtens
                0x000000000000c5d8       0x28 /opt/gcc-arm-none-eabi-9-2019-q4-major/bin/../lib/gcc/arm-none-eabi/9.2.1/../../../../arm-none-eabi/lib/thumb/v7e-m+fp/softfp/libg.a(lib_a-mprec.o)
                0x000000000000c5d8                __mprec_bigtens
 .rodata.__mprec_tens
                0x000000000000c600       0xc8 /opt/gcc-arm-none-eabi-9-2019-q4-major/bin/../lib/gcc/arm-none-eabi/9.2.1/../../../../arm-none-eabi/lib/thumb/v7e-m+fp/softfp/libg.a(lib_a-mprec.o)
                0x000000000000c600                __mprec_tens
 .rodata.p05.7478
                0x000000000000c6c8        0xc /opt/gcc-arm-none-eabi-9-2019-q4-major/bin/../lib/gcc/arm-none-eabi/9.2.1/../../../../arm-none-eabi/lib/thumb/v7e-m+fp/softfp/libg.a(lib_a-mprec.o)
 .rodata._setlocale_r.str1.4
                0x000000000000c6d4        0xa /opt/gcc-arm-none-eabi-9-2019-q4-major/bin/../lib/gcc/arm-none-eabi/9.2.1/../../../../arm-none-eabi/lib/thumb/v7e-m+fp/softfp/libg.a(lib_a-locale.o)
                                          0xd (size before relaxing)
 *fill*         0x000000000000c6de        0x2 
 .rodata.str1.4
                0x000000000000c6e0        0x2 /opt/gcc-arm-none-eabi-9-2019-q4-major/bin/../lib/gcc/arm-none-eabi/9.2.1/../../../../arm-none-eabi/lib/thumb/v7e-m+fp/softfp/libg.a(lib_a-locale.o)
 *fill*         0x000000000000c6e2        0x2 
 .rodata._ctype_
                0x000000000000c6e4      0x101 /opt/gcc-arm-none-eabi-9-2019-q4-major/bin/../lib/gcc/arm-none-eabi/9.2.1/../../../../arm-none-eabi/lib/thumb/v7e-m+fp/softfp/libg.a(lib_a-ctype_.o)
                0x000000000000c6e4                _ctype_
 *(.eh_frame*)

.glue_7         0x000000000000c7e8        0x0
 .glue_7        0x000000000000c7e8        0x0 linker stubs

.glue_7t        0x000000000000c7e8        0x0
 .glue_7t       0x000000000000c7e8        0x0 linker stubs

.vfp11_veneer   0x000000000000c7e8        0x0
 .vfp11_veneer  0x000000000000c7e8        0x0 linker stubs

.v4_bx          0x000000000000c7e8        0x0
 .v4_bx         0x000000000000c7e8        0x0 linker stubs

.iplt           0x000000000000c7e8        0x0
 .iplt          0x000000000000c7e8        0x0 build/tsb0/blink_main.o

.ARM.extab
 *(.ARM.extab* .gnu.linkonce.armextab.*)
                0x000000000000c7e5                __exidx_start = .

.ARM.exidx      0x000000000000c7e8        0x8
 *(.ARM.exidx* .gnu.linkonce.armexidx.*)
 .ARM.exidx     0x000000000000c7e8        0x8 /opt/gcc-arm-none-eabi-9-2019-q4-major/bin/../lib/gcc/arm-none-eabi/9.2.1/thumb/v7e-m+fp/softfp/libgcc.a(_udivmoddi4.o)
                0x000000000000c7f0                __exidx_end = .
                0x000000000000c7f0                __etext = .

.rel.dyn        0x000000000000c7f0        0x0
 .rel.iplt      0x000000000000c7f0        0x0 build/tsb0/blink_main.o

.data           0x0000000020000000      0x9d4 load address 0x000000000000c7f0
                0x0000000020000000                __data_start__ = .
 *(vtable)
 *(.data*)
 .data.uxCriticalNesting
                0x0000000020000000        0x4 build/tsb0//home/gerda/node-apps/zoo/FreeRTOS-Kernel/portable/GCC/ARM_CM4F/port.o
 .data.xHeapRegions
                0x0000000020000004       0x10 build/tsb0//home/gerda/node-apps/zoo/thinnect.cmsis-freertos/CMSIS-FreeRTOS/CMSIS/RTOS2/FreeRTOS/Source/cmsis_os2.o
 .data.auxHfrcoFreq
                0x0000000020000014        0x4 build/tsb0//home/gerda/SimplicityStudio_v4/developer/sdks/gecko_sdk_suite/v2.6/platform/emlib/src/em_cmu.o
 .data.SystemHFXOClock
                0x0000000020000018        0x4 build/tsb0//home/gerda/SimplicityStudio_v4/developer/sdks/gecko_sdk_suite/v2.6/platform/Device/SiliconLabs/EFR32MG12P/Source/system_efr32mg12p.o
 .data.SystemLFXOClock
                0x000000002000001c        0x4 build/tsb0//home/gerda/SimplicityStudio_v4/developer/sdks/gecko_sdk_suite/v2.6/platform/Device/SiliconLabs/EFR32MG12P/Source/system_efr32mg12p.o
 .data.SystemCoreClock
                0x0000000020000020        0x4 build/tsb0//home/gerda/SimplicityStudio_v4/developer/sdks/gecko_sdk_suite/v2.6/platform/Device/SiliconLabs/EFR32MG12P/Source/system_efr32mg12p.o
                0x0000000020000020                SystemCoreClock
 .data.SystemHfrcoFreq
                0x0000000020000024        0x4 build/tsb0//home/gerda/SimplicityStudio_v4/developer/sdks/gecko_sdk_suite/v2.6/platform/Device/SiliconLabs/EFR32MG12P/Source/system_efr32mg12p.o
                0x0000000020000024                SystemHfrcoFreq
 .data._impure_ptr
                0x0000000020000028        0x4 /opt/gcc-arm-none-eabi-9-2019-q4-major/bin/../lib/gcc/arm-none-eabi/9.2.1/../../../../arm-none-eabi/lib/thumb/v7e-m+fp/softfp/libg.a(lib_a-impure.o)
                0x0000000020000028                _impure_ptr
 *fill*         0x000000002000002c        0x4 
 .data.impure_data
                0x0000000020000030      0x428 /opt/gcc-arm-none-eabi-9-2019-q4-major/bin/../lib/gcc/arm-none-eabi/9.2.1/../../../../arm-none-eabi/lib/thumb/v7e-m+fp/softfp/libg.a(lib_a-impure.o)
 .data.__malloc_av_
                0x0000000020000458      0x408 /opt/gcc-arm-none-eabi-9-2019-q4-major/bin/../lib/gcc/arm-none-eabi/9.2.1/../../../../arm-none-eabi/lib/thumb/v7e-m+fp/softfp/libg.a(lib_a-mallocr.o)
                0x0000000020000458                __malloc_av_
 .data.__malloc_sbrk_base
                0x0000000020000860        0x4 /opt/gcc-arm-none-eabi-9-2019-q4-major/bin/../lib/gcc/arm-none-eabi/9.2.1/../../../../arm-none-eabi/lib/thumb/v7e-m+fp/softfp/libg.a(lib_a-mallocr.o)
                0x0000000020000860                __malloc_sbrk_base
 .data.__malloc_trim_threshold
                0x0000000020000864        0x4 /opt/gcc-arm-none-eabi-9-2019-q4-major/bin/../lib/gcc/arm-none-eabi/9.2.1/../../../../arm-none-eabi/lib/thumb/v7e-m+fp/softfp/libg.a(lib_a-mallocr.o)
                0x0000000020000864                __malloc_trim_threshold
 .data.__global_locale
                0x0000000020000868      0x16c /opt/gcc-arm-none-eabi-9-2019-q4-major/bin/../lib/gcc/arm-none-eabi/9.2.1/../../../../arm-none-eabi/lib/thumb/v7e-m+fp/softfp/libg.a(lib_a-locale.o)
                0x0000000020000868                __global_locale
                0x00000000200009d4                . = ALIGN (0x4)
                [!provide]                        PROVIDE (__ram_func_section_start = .)
 *(.ram)
                [!provide]                        PROVIDE (__ram_func_section_end = .)
                0x00000000200009d4                . = ALIGN (0x4)
                [!provide]                        PROVIDE (__preinit_array_start = .)
 *(.preinit_array)
                [!provide]                        PROVIDE (__preinit_array_end = .)
                0x00000000200009d4                . = ALIGN (0x4)
                [!provide]                        PROVIDE (__init_array_start = .)
 *(SORT_BY_NAME(.init_array.*))
 *(.init_array)
                [!provide]                        PROVIDE (__init_array_end = .)
                0x00000000200009d4                . = ALIGN (0x4)
                [!provide]                        PROVIDE (__fini_array_start = .)
 *(SORT_BY_NAME(.fini_array.*))
 *(.fini_array)
                [!provide]                        PROVIDE (__fini_array_end = .)
 *(.jcr*)
                0x00000000200009d4                . = ALIGN (0x4)
                0x00000000200009d4                __data_end__ = .

.igot.plt       0x00000000200009d4        0x0 load address 0x000000000000d1c4
 .igot.plt      0x00000000200009d4        0x0 build/tsb0/blink_main.o

.bss            0x00000000200009d4     0xbc28 load address 0x000000000000d1c4
                0x00000000200009d4                . = ALIGN (0x4)
                0x00000000200009d4                __bss_start__ = .
 *(.bss*)
 .bss.m_led_mutex
                0x00000000200009d4        0x4 build/tsb0/blink_main.o
 .bss.led_state
                0x00000000200009d8        0x1 build/tsb0/timer_handler.o
 .bss.ucMaxSysCallPriority
                0x00000000200009d9        0x1 build/tsb0//home/gerda/node-apps/zoo/FreeRTOS-Kernel/portable/GCC/ARM_CM4F/port.o
 *fill*         0x00000000200009da        0x2 
 .bss.ulMaxPRIGROUPValue
                0x00000000200009dc        0x4 build/tsb0//home/gerda/node-apps/zoo/FreeRTOS-Kernel/portable/GCC/ARM_CM4F/port.o
 .bss.xStart    0x00000000200009e0        0x8 build/tsb0//home/gerda/node-apps/zoo/FreeRTOS-Kernel/portable/MemMang/heap_5.o
 .bss.pxEnd     0x00000000200009e8        0x4 build/tsb0//home/gerda/node-apps/zoo/FreeRTOS-Kernel/portable/MemMang/heap_5.o
 .bss.xFreeBytesRemaining
                0x00000000200009ec        0x4 build/tsb0//home/gerda/node-apps/zoo/FreeRTOS-Kernel/portable/MemMang/heap_5.o
 .bss.xMinimumEverFreeBytesRemaining
                0x00000000200009f0        0x4 build/tsb0//home/gerda/node-apps/zoo/FreeRTOS-Kernel/portable/MemMang/heap_5.o
 .bss.xNumberOfSuccessfulAllocations
                0x00000000200009f4        0x4 build/tsb0//home/gerda/node-apps/zoo/FreeRTOS-Kernel/portable/MemMang/heap_5.o
 .bss.xNumberOfSuccessfulFrees
                0x00000000200009f8        0x4 build/tsb0//home/gerda/node-apps/zoo/FreeRTOS-Kernel/portable/MemMang/heap_5.o
 .bss.xBlockAllocatedBit
                0x00000000200009fc        0x4 build/tsb0//home/gerda/node-apps/zoo/FreeRTOS-Kernel/portable/MemMang/heap_5.o
 .bss.pxCurrentTCB
                0x0000000020000a00        0x4 build/tsb0//home/gerda/node-apps/zoo/FreeRTOS-Kernel/tasks.o
                0x0000000020000a00                pxCurrentTCB
 .bss.pxReadyTasksLists
                0x0000000020000a04      0x460 build/tsb0//home/gerda/node-apps/zoo/FreeRTOS-Kernel/tasks.o
 .bss.xDelayedTaskList1
                0x0000000020000e64       0x14 build/tsb0//home/gerda/node-apps/zoo/FreeRTOS-Kernel/tasks.o
 .bss.xDelayedTaskList2
                0x0000000020000e78       0x14 build/tsb0//home/gerda/node-apps/zoo/FreeRTOS-Kernel/tasks.o
 .bss.pxDelayedTaskList
                0x0000000020000e8c        0x4 build/tsb0//home/gerda/node-apps/zoo/FreeRTOS-Kernel/tasks.o
 .bss.pxOverflowDelayedTaskList
                0x0000000020000e90        0x4 build/tsb0//home/gerda/node-apps/zoo/FreeRTOS-Kernel/tasks.o
 .bss.xPendingReadyList
                0x0000000020000e94       0x14 build/tsb0//home/gerda/node-apps/zoo/FreeRTOS-Kernel/tasks.o
 .bss.xTasksWaitingTermination
                0x0000000020000ea8       0x14 build/tsb0//home/gerda/node-apps/zoo/FreeRTOS-Kernel/tasks.o
 .bss.uxDeletedTasksWaitingCleanUp
                0x0000000020000ebc        0x4 build/tsb0//home/gerda/node-apps/zoo/FreeRTOS-Kernel/tasks.o
 .bss.xSuspendedTaskList
                0x0000000020000ec0       0x14 build/tsb0//home/gerda/node-apps/zoo/FreeRTOS-Kernel/tasks.o
 .bss.uxCurrentNumberOfTasks
                0x0000000020000ed4        0x4 build/tsb0//home/gerda/node-apps/zoo/FreeRTOS-Kernel/tasks.o
 .bss.xTickCount
                0x0000000020000ed8        0x4 build/tsb0//home/gerda/node-apps/zoo/FreeRTOS-Kernel/tasks.o
 .bss.uxTopReadyPriority
                0x0000000020000edc        0x4 build/tsb0//home/gerda/node-apps/zoo/FreeRTOS-Kernel/tasks.o
 .bss.xSchedulerRunning
                0x0000000020000ee0        0x4 build/tsb0//home/gerda/node-apps/zoo/FreeRTOS-Kernel/tasks.o
 .bss.xPendedTicks
                0x0000000020000ee4        0x4 build/tsb0//home/gerda/node-apps/zoo/FreeRTOS-Kernel/tasks.o
 .bss.xYieldPending
                0x0000000020000ee8        0x4 build/tsb0//home/gerda/node-apps/zoo/FreeRTOS-Kernel/tasks.o
 .bss.xNumOfOverflows
                0x0000000020000eec        0x4 build/tsb0//home/gerda/node-apps/zoo/FreeRTOS-Kernel/tasks.o
 .bss.uxTaskNumber
                0x0000000020000ef0        0x4 build/tsb0//home/gerda/node-apps/zoo/FreeRTOS-Kernel/tasks.o
 .bss.xNextTaskUnblockTime
                0x0000000020000ef4        0x4 build/tsb0//home/gerda/node-apps/zoo/FreeRTOS-Kernel/tasks.o
 .bss.xIdleTaskHandle
                0x0000000020000ef8        0x4 build/tsb0//home/gerda/node-apps/zoo/FreeRTOS-Kernel/tasks.o
 .bss.uxSchedulerSuspended
                0x0000000020000efc        0x4 build/tsb0//home/gerda/node-apps/zoo/FreeRTOS-Kernel/tasks.o
 .bss.xActiveTimerList1
                0x0000000020000f00       0x14 build/tsb0//home/gerda/node-apps/zoo/FreeRTOS-Kernel/timers.o
 .bss.xActiveTimerList2
                0x0000000020000f14       0x14 build/tsb0//home/gerda/node-apps/zoo/FreeRTOS-Kernel/timers.o
 .bss.pxCurrentTimerList
                0x0000000020000f28        0x4 build/tsb0//home/gerda/node-apps/zoo/FreeRTOS-Kernel/timers.o
 .bss.pxOverflowTimerList
                0x0000000020000f2c        0x4 build/tsb0//home/gerda/node-apps/zoo/FreeRTOS-Kernel/timers.o
 .bss.xTimerQueue
                0x0000000020000f30        0x4 build/tsb0//home/gerda/node-apps/zoo/FreeRTOS-Kernel/timers.o
 .bss.xTimerTaskHandle
                0x0000000020000f34        0x4 build/tsb0//home/gerda/node-apps/zoo/FreeRTOS-Kernel/timers.o
 .bss.xLastTime.8185
                0x0000000020000f38        0x4 build/tsb0//home/gerda/node-apps/zoo/FreeRTOS-Kernel/timers.o
 .bss.ucStaticTimerQueueStorage.8236
                0x0000000020000f3c      0x500 build/tsb0//home/gerda/node-apps/zoo/FreeRTOS-Kernel/timers.o
 .bss.xStaticTimerQueue.8235
                0x000000002000143c       0x50 build/tsb0//home/gerda/node-apps/zoo/FreeRTOS-Kernel/timers.o
 .bss.KernelState
                0x000000002000148c        0x4 build/tsb0//home/gerda/node-apps/zoo/thinnect.cmsis-freertos/CMSIS-FreeRTOS/CMSIS/RTOS2/FreeRTOS/Source/cmsis_os2.o
 .bss.ucHeap    0x0000000020001490     0xa000 build/tsb0//home/gerda/node-apps/zoo/thinnect.cmsis-freertos/CMSIS-FreeRTOS/CMSIS/RTOS2/FreeRTOS/Source/cmsis_os2.o
 .bss.Idle_TCB.8770
                0x000000002000b490       0x60 build/tsb0//home/gerda/node-apps/zoo/thinnect.cmsis-freertos/CMSIS-FreeRTOS/CMSIS/RTOS2/FreeRTOS/Source/cmsis_os2.o
 .bss.Idle_Stack.8771
                0x000000002000b4f0      0x800 build/tsb0//home/gerda/node-apps/zoo/thinnect.cmsis-freertos/CMSIS-FreeRTOS/CMSIS/RTOS2/FreeRTOS/Source/cmsis_os2.o
 .bss.Timer_TCB.8777
                0x000000002000bcf0       0x60 build/tsb0//home/gerda/node-apps/zoo/thinnect.cmsis-freertos/CMSIS-FreeRTOS/CMSIS/RTOS2/FreeRTOS/Source/cmsis_os2.o
 .bss.Timer_Stack.8778
                0x000000002000bd50      0x800 build/tsb0//home/gerda/node-apps/zoo/thinnect.cmsis-freertos/CMSIS-FreeRTOS/CMSIS/RTOS2/FreeRTOS/Source/cmsis_os2.o
 .bss.rxReadIndex
                0x000000002000c550        0x4 build/tsb0//home/gerda/SimplicityStudio_v4/developer/sdks/gecko_sdk_suite/v2.6/hardware/kit/common/drivers/retargetserial.o
 .bss.rxWriteIndex
                0x000000002000c554        0x4 build/tsb0//home/gerda/SimplicityStudio_v4/developer/sdks/gecko_sdk_suite/v2.6/hardware/kit/common/drivers/retargetserial.o
 .bss.rxCount   0x000000002000c558        0x4 build/tsb0//home/gerda/SimplicityStudio_v4/developer/sdks/gecko_sdk_suite/v2.6/hardware/kit/common/drivers/retargetserial.o
 .bss.rxBuffer  0x000000002000c55c        0x8 build/tsb0//home/gerda/SimplicityStudio_v4/developer/sdks/gecko_sdk_suite/v2.6/hardware/kit/common/drivers/retargetserial.o
 .bss.LFtoCRLF  0x000000002000c564        0x1 build/tsb0//home/gerda/SimplicityStudio_v4/developer/sdks/gecko_sdk_suite/v2.6/hardware/kit/common/drivers/retargetserial.o
 .bss.initialized
                0x000000002000c565        0x1 build/tsb0//home/gerda/SimplicityStudio_v4/developer/sdks/gecko_sdk_suite/v2.6/hardware/kit/common/drivers/retargetserial.o
 *fill*         0x000000002000c566        0x2 
 .bss.heap_end.8272
                0x000000002000c568        0x4 build/tsb0//home/gerda/SimplicityStudio_v4/developer/sdks/gecko_sdk_suite/v2.6/hardware/kit/common/drivers/retargetio.o
 .bss.vScaleEM01Config
                0x000000002000c56c        0x1 build/tsb0//home/gerda/SimplicityStudio_v4/developer/sdks/gecko_sdk_suite/v2.6/platform/emlib/src/em_emu.o
 *fill*         0x000000002000c56d        0x3 
 .bss.log_mutex
                0x000000002000c570        0x4 build/tsb0//home/gerda/node-apps/zoo/thinnect.node-platform/silabs/logger_fwrite.o
 .bss.log_put_func
                0x000000002000c574        0x4 build/tsb0//home/gerda/node-apps/zoo/thinnect.lll/logging/loggers_ext.o
 .bss.log_time_func
                0x000000002000c578        0x4 build/tsb0//home/gerda/node-apps/zoo/thinnect.lll/logging/loggers_ext.o
 .bss.log_level
                0x000000002000c57c        0x2 build/tsb0//home/gerda/node-apps/zoo/thinnect.lll/logging/loggers_ext.o
 *fill*         0x000000002000c57e        0x2 
 .bss.__malloc_current_mallinfo
                0x000000002000c580       0x28 /opt/gcc-arm-none-eabi-9-2019-q4-major/bin/../lib/gcc/arm-none-eabi/9.2.1/../../../../arm-none-eabi/lib/thumb/v7e-m+fp/softfp/libg.a(lib_a-mallocr.o)
                0x000000002000c580                __malloc_current_mallinfo
 .bss.__malloc_max_sbrked_mem
                0x000000002000c5a8        0x4 /opt/gcc-arm-none-eabi-9-2019-q4-major/bin/../lib/gcc/arm-none-eabi/9.2.1/../../../../arm-none-eabi/lib/thumb/v7e-m+fp/softfp/libg.a(lib_a-mallocr.o)
                0x000000002000c5a8                __malloc_max_sbrked_mem
 .bss.__malloc_max_total_mem
                0x000000002000c5ac        0x4 /opt/gcc-arm-none-eabi-9-2019-q4-major/bin/../lib/gcc/arm-none-eabi/9.2.1/../../../../arm-none-eabi/lib/thumb/v7e-m+fp/softfp/libg.a(lib_a-mallocr.o)
                0x000000002000c5ac                __malloc_max_total_mem
 .bss.__malloc_top_pad
                0x000000002000c5b0        0x4 /opt/gcc-arm-none-eabi-9-2019-q4-major/bin/../lib/gcc/arm-none-eabi/9.2.1/../../../../arm-none-eabi/lib/thumb/v7e-m+fp/softfp/libg.a(lib_a-mallocr.o)
                0x000000002000c5b0                __malloc_top_pad
 *(COMMON)
 COMMON         0x000000002000c5b4       0x1d build/tsb0/timer_handler.o
                0x000000002000c5b4                led0_sd
                0x000000002000c5b8                led0_toggle
                0x000000002000c5bc                led1_cnt
                0x000000002000c5c0                led0_cnt
                0x000000002000c5c4                led1_toggle
                0x000000002000c5c8                led2_cnt
                0x000000002000c5cc                led2_sd
                0x000000002000c5d0                led2_toggle
 *fill*         0x000000002000c5d1        0x3 
 COMMON         0x000000002000c5d4       0x21 /opt/gcc-arm-none-eabi-9-2019-q4-major/bin/../lib/gcc/arm-none-eabi/9.2.1/../../../../arm-none-eabi/lib/thumb/v7e-m+fp/softfp/libg.a(lib_a-lock.o)
                0x000000002000c5d4                __lock___atexit_recursive_mutex
                0x000000002000c5d8                __lock___arc4random_mutex
                0x000000002000c5dc                __lock___env_recursive_mutex
                0x000000002000c5e0                __lock___sinit_recursive_mutex
                0x000000002000c5e4                __lock___malloc_recursive_mutex
                0x000000002000c5e8                __lock___at_quick_exit_mutex
                0x000000002000c5ec                __lock___dd_hash_mutex
                0x000000002000c5f0                __lock___tz_mutex
                0x000000002000c5f4                __lock___sfp_recursive_mutex
 *fill*         0x000000002000c5f5        0x3 
 COMMON         0x000000002000c5f8        0x4 /opt/gcc-arm-none-eabi-9-2019-q4-major/bin/../lib/gcc/arm-none-eabi/9.2.1/../../../../arm-none-eabi/lib/thumb/v7e-m+fp/softfp/libg.a(lib_a-reent.o)
                0x000000002000c5f8                errno
                0x000000002000c5fc                . = ALIGN (0x4)
                0x000000002000c5fc                __bss_end__ = .

.heap           0x000000002000c600      0xc00
                0x000000002000c600                __HeapBase = .
                0x000000002000c600                __end__ = .
                0x000000002000c600                end = __end__
                0x000000002000c600                _end = __end__
 *(.heap*)
 .heap          0x000000002000c600      0xc00 build/tsb0//home/gerda/SimplicityStudio_v4/developer/sdks/gecko_sdk_suite/v2.6/platform/Device/SiliconLabs/EFR32MG12P/Source/GCC/startup_efr32mg12p.o
                0x000000002000d200                __HeapLimit = .

.stack_dummy    0x000000002000d200      0x400
 *(.stack*)
 .stack         0x000000002000d200      0x400 build/tsb0//home/gerda/SimplicityStudio_v4/developer/sdks/gecko_sdk_suite/v2.6/platform/Device/SiliconLabs/EFR32MG12P/Source/GCC/startup_efr32mg12p.o
                0x0000000020040000                __StackTop = (ORIGIN (RAM) + LENGTH (RAM))
                0x000000002003fc00                __StackLimit = (__StackTop - SIZEOF (.stack_dummy))
                [!provide]                        PROVIDE (__stack = __StackTop)
                0x0000000000000001                ASSERT ((__StackLimit >= __HeapLimit), region RAM overflowed with stack)
                0x0000000000000001                ASSERT ((LENGTH (FLASH) >= (__etext + SIZEOF (.data))), FLASH memory overflowed !)
START GROUP
LOAD /opt/gcc-arm-none-eabi-9-2019-q4-major/bin/../lib/gcc/arm-none-eabi/9.2.1/thumb/v7e-m+fp/softfp/libgcc.a
LOAD /opt/gcc-arm-none-eabi-9-2019-q4-major/bin/../lib/gcc/arm-none-eabi/9.2.1/../../../../arm-none-eabi/lib/thumb/v7e-m+fp/softfp/libg.a
LOAD /opt/gcc-arm-none-eabi-9-2019-q4-major/bin/../lib/gcc/arm-none-eabi/9.2.1/../../../../arm-none-eabi/lib/thumb/v7e-m+fp/softfp/libc.a
END GROUP
OUTPUT(build/tsb0/blink-PWM.elf elf32-littlearm)

.debug_info     0x0000000000000000    0x1ddc0
 .debug_info    0x0000000000000000     0x1189 build/tsb0/blink_main.o
 .debug_info    0x0000000000001189     0x13a5 build/tsb0/timer_handler.o
 .debug_info    0x000000000000252e      0x3ed build/tsb0//home/gerda/node-apps/zoo/FreeRTOS-Kernel/portable/GCC/ARM_CM4F/port.o
 .debug_info    0x000000000000291b      0xd49 build/tsb0//home/gerda/node-apps/zoo/FreeRTOS-Kernel/portable/MemMang/heap_5.o
 .debug_info    0x0000000000003664     0x1d52 build/tsb0//home/gerda/node-apps/zoo/FreeRTOS-Kernel/queue.o
 .debug_info    0x00000000000053b6      0xb89 build/tsb0//home/gerda/node-apps/zoo/FreeRTOS-Kernel/list.o
 .debug_info    0x0000000000005f3f     0x263a build/tsb0//home/gerda/node-apps/zoo/FreeRTOS-Kernel/tasks.o
 .debug_info    0x0000000000008579     0x19cc build/tsb0//home/gerda/node-apps/zoo/FreeRTOS-Kernel/timers.o
 .debug_info    0x0000000000009f45     0x4a83 build/tsb0//home/gerda/node-apps/zoo/thinnect.cmsis-freertos/CMSIS-FreeRTOS/CMSIS/RTOS2/FreeRTOS/Source/cmsis_os2.o
 .debug_info    0x000000000000e9c8     0x1562 build/tsb0//home/gerda/SimplicityStudio_v4/developer/sdks/gecko_sdk_suite/v2.6/hardware/kit/common/drivers/retargetserial.o
 .debug_info    0x000000000000ff2a      0xdbc build/tsb0//home/gerda/SimplicityStudio_v4/developer/sdks/gecko_sdk_suite/v2.6/hardware/kit/common/drivers/retargetio.o
 .debug_info    0x0000000000010ce6      0xce7 build/tsb0//home/gerda/SimplicityStudio_v4/developer/sdks/gecko_sdk_suite/v2.6/platform/emlib/src/em_core.o
 .debug_info    0x00000000000119cd     0x231e build/tsb0//home/gerda/SimplicityStudio_v4/developer/sdks/gecko_sdk_suite/v2.6/platform/emlib/src/em_emu.o
 .debug_info    0x0000000000013ceb     0x22a5 build/tsb0//home/gerda/SimplicityStudio_v4/developer/sdks/gecko_sdk_suite/v2.6/platform/emlib/src/em_cmu.o
 .debug_info    0x0000000000015f90      0x320 build/tsb0//home/gerda/SimplicityStudio_v4/developer/sdks/gecko_sdk_suite/v2.6/platform/emlib/src/em_rmu.o
 .debug_info    0x00000000000162b0      0xa07 build/tsb0//home/gerda/SimplicityStudio_v4/developer/sdks/gecko_sdk_suite/v2.6/platform/emlib/src/em_gpio.o
 .debug_info    0x0000000000016cb7      0xfab build/tsb0//home/gerda/SimplicityStudio_v4/developer/sdks/gecko_sdk_suite/v2.6/platform/emlib/src/em_usart.o
 .debug_info    0x0000000000017c62      0x9b6 build/tsb0//home/gerda/SimplicityStudio_v4/developer/sdks/gecko_sdk_suite/v2.6/platform/emlib/src/em_msc.o
 .debug_info    0x0000000000018618      0x94c build/tsb0//home/gerda/SimplicityStudio_v4/developer/sdks/gecko_sdk_suite/v2.6/platform/emlib/src/em_timer.o
 .debug_info    0x0000000000018f64      0x9bd build/tsb0//home/gerda/node-apps/zoo/thinnect.node-platform/silabs/logger_fwrite.o
 .debug_info    0x0000000000019921      0xbc4 build/tsb0//home/gerda/node-apps/zoo/thinnect.lll/logging/loggers_ext.o
 .debug_info    0x000000000001a4e5      0x22c build/tsb0//home/gerda/SimplicityStudio_v4/developer/sdks/gecko_sdk_suite/v2.6/platform/Device/SiliconLabs/EFR32MG12P/Source/GCC/startup_efr32mg12p.o
 .debug_info    0x000000000001a711      0x83b build/tsb0//home/gerda/SimplicityStudio_v4/developer/sdks/gecko_sdk_suite/v2.6/platform/Device/SiliconLabs/EFR32MG12P/Source/system_efr32mg12p.o
 .debug_info    0x000000000001af4c     0x1c81 build/tsb0//home/gerda/node-apps/zoo/thinnect.dev-platforms/make/boards/../../src/boards/tsb0/platform.o
 .debug_info    0x000000000001cbcd     0x11f3 build/tsb0//home/gerda/node-apps/zoo/thinnect.node-platform/silabs/platform_io.o

.debug_abbrev   0x0000000000000000     0x44b8
 .debug_abbrev  0x0000000000000000      0x2e2 build/tsb0/blink_main.o
 .debug_abbrev  0x00000000000002e2      0x330 build/tsb0/timer_handler.o
 .debug_abbrev  0x0000000000000612      0x22c build/tsb0//home/gerda/node-apps/zoo/FreeRTOS-Kernel/portable/GCC/ARM_CM4F/port.o
 .debug_abbrev  0x000000000000083e      0x2ac build/tsb0//home/gerda/node-apps/zoo/FreeRTOS-Kernel/portable/MemMang/heap_5.o
 .debug_abbrev  0x0000000000000aea      0x377 build/tsb0//home/gerda/node-apps/zoo/FreeRTOS-Kernel/queue.o
 .debug_abbrev  0x0000000000000e61      0x232 build/tsb0//home/gerda/node-apps/zoo/FreeRTOS-Kernel/list.o
 .debug_abbrev  0x0000000000001093      0x3d5 build/tsb0//home/gerda/node-apps/zoo/FreeRTOS-Kernel/tasks.o
 .debug_abbrev  0x0000000000001468      0x312 build/tsb0//home/gerda/node-apps/zoo/FreeRTOS-Kernel/timers.o
 .debug_abbrev  0x000000000000177a      0x4bb build/tsb0//home/gerda/node-apps/zoo/thinnect.cmsis-freertos/CMSIS-FreeRTOS/CMSIS/RTOS2/FreeRTOS/Source/cmsis_os2.o
 .debug_abbrev  0x0000000000001c35      0x398 build/tsb0//home/gerda/SimplicityStudio_v4/developer/sdks/gecko_sdk_suite/v2.6/hardware/kit/common/drivers/retargetserial.o
 .debug_abbrev  0x0000000000001fcd      0x290 build/tsb0//home/gerda/SimplicityStudio_v4/developer/sdks/gecko_sdk_suite/v2.6/hardware/kit/common/drivers/retargetio.o
 .debug_abbrev  0x000000000000225d      0x2bc build/tsb0//home/gerda/SimplicityStudio_v4/developer/sdks/gecko_sdk_suite/v2.6/platform/emlib/src/em_core.o
 .debug_abbrev  0x0000000000002519      0x380 build/tsb0//home/gerda/SimplicityStudio_v4/developer/sdks/gecko_sdk_suite/v2.6/platform/emlib/src/em_emu.o
 .debug_abbrev  0x0000000000002899      0x370 build/tsb0//home/gerda/SimplicityStudio_v4/developer/sdks/gecko_sdk_suite/v2.6/platform/emlib/src/em_cmu.o
 .debug_abbrev  0x0000000000002c09      0x1ee build/tsb0//home/gerda/SimplicityStudio_v4/developer/sdks/gecko_sdk_suite/v2.6/platform/emlib/src/em_rmu.o
 .debug_abbrev  0x0000000000002df7      0x26d build/tsb0//home/gerda/SimplicityStudio_v4/developer/sdks/gecko_sdk_suite/v2.6/platform/emlib/src/em_gpio.o
 .debug_abbrev  0x0000000000003064      0x235 build/tsb0//home/gerda/SimplicityStudio_v4/developer/sdks/gecko_sdk_suite/v2.6/platform/emlib/src/em_usart.o
 .debug_abbrev  0x0000000000003299      0x1f9 build/tsb0//home/gerda/SimplicityStudio_v4/developer/sdks/gecko_sdk_suite/v2.6/platform/emlib/src/em_msc.o
 .debug_abbrev  0x0000000000003492      0x1fc build/tsb0//home/gerda/SimplicityStudio_v4/developer/sdks/gecko_sdk_suite/v2.6/platform/emlib/src/em_timer.o
 .debug_abbrev  0x000000000000368e      0x22a build/tsb0//home/gerda/node-apps/zoo/thinnect.node-platform/silabs/logger_fwrite.o
 .debug_abbrev  0x00000000000038b8      0x25d build/tsb0//home/gerda/node-apps/zoo/thinnect.lll/logging/loggers_ext.o
 .debug_abbrev  0x0000000000003b15      0x125 build/tsb0//home/gerda/SimplicityStudio_v4/developer/sdks/gecko_sdk_suite/v2.6/platform/Device/SiliconLabs/EFR32MG12P/Source/GCC/startup_efr32mg12p.o
 .debug_abbrev  0x0000000000003c3a      0x1eb build/tsb0//home/gerda/SimplicityStudio_v4/developer/sdks/gecko_sdk_suite/v2.6/platform/Device/SiliconLabs/EFR32MG12P/Source/system_efr32mg12p.o
 .debug_abbrev  0x0000000000003e25      0x2b4 build/tsb0//home/gerda/node-apps/zoo/thinnect.dev-platforms/make/boards/../../src/boards/tsb0/platform.o
 .debug_abbrev  0x00000000000040d9      0x3df build/tsb0//home/gerda/node-apps/zoo/thinnect.node-platform/silabs/platform_io.o

.debug_aranges  0x0000000000000000     0x1260
 .debug_aranges
                0x0000000000000000       0x50 build/tsb0/blink_main.o
 .debug_aranges
                0x0000000000000050       0x88 build/tsb0/timer_handler.o
 .debug_aranges
                0x00000000000000d8       0x80 build/tsb0//home/gerda/node-apps/zoo/FreeRTOS-Kernel/portable/GCC/ARM_CM4F/port.o
 .debug_aranges
                0x0000000000000158       0x50 build/tsb0//home/gerda/node-apps/zoo/FreeRTOS-Kernel/portable/MemMang/heap_5.o
 .debug_aranges
                0x00000000000001a8      0x140 build/tsb0//home/gerda/node-apps/zoo/FreeRTOS-Kernel/queue.o
 .debug_aranges
                0x00000000000002e8       0x40 build/tsb0//home/gerda/node-apps/zoo/FreeRTOS-Kernel/list.o
 .debug_aranges
                0x0000000000000328      0x208 build/tsb0//home/gerda/node-apps/zoo/FreeRTOS-Kernel/tasks.o
 .debug_aranges
                0x0000000000000530       0xf0 build/tsb0//home/gerda/node-apps/zoo/FreeRTOS-Kernel/timers.o
 .debug_aranges
                0x0000000000000620      0x2a0 build/tsb0//home/gerda/node-apps/zoo/thinnect.cmsis-freertos/CMSIS-FreeRTOS/CMSIS/RTOS2/FreeRTOS/Source/cmsis_os2.o
 .debug_aranges
                0x00000000000008c0       0x88 build/tsb0//home/gerda/SimplicityStudio_v4/developer/sdks/gecko_sdk_suite/v2.6/hardware/kit/common/drivers/retargetserial.o
 .debug_aranges
                0x0000000000000948       0x68 build/tsb0//home/gerda/SimplicityStudio_v4/developer/sdks/gecko_sdk_suite/v2.6/hardware/kit/common/drivers/retargetio.o
 .debug_aranges
                0x00000000000009b0       0xe8 build/tsb0//home/gerda/SimplicityStudio_v4/developer/sdks/gecko_sdk_suite/v2.6/platform/emlib/src/em_core.o
 .debug_aranges
                0x0000000000000a98      0x1c8 build/tsb0//home/gerda/SimplicityStudio_v4/developer/sdks/gecko_sdk_suite/v2.6/platform/emlib/src/em_emu.o
 .debug_aranges
                0x0000000000000c60      0x1b8 build/tsb0//home/gerda/SimplicityStudio_v4/developer/sdks/gecko_sdk_suite/v2.6/platform/emlib/src/em_cmu.o
 .debug_aranges
                0x0000000000000e18       0x38 build/tsb0//home/gerda/SimplicityStudio_v4/developer/sdks/gecko_sdk_suite/v2.6/platform/emlib/src/em_rmu.o
 .debug_aranges
                0x0000000000000e50       0x88 build/tsb0//home/gerda/SimplicityStudio_v4/developer/sdks/gecko_sdk_suite/v2.6/platform/emlib/src/em_gpio.o
 .debug_aranges
                0x0000000000000ed8       0xd0 build/tsb0//home/gerda/SimplicityStudio_v4/developer/sdks/gecko_sdk_suite/v2.6/platform/emlib/src/em_usart.o
 .debug_aranges
                0x0000000000000fa8       0x70 build/tsb0//home/gerda/SimplicityStudio_v4/developer/sdks/gecko_sdk_suite/v2.6/platform/emlib/src/em_msc.o
 .debug_aranges
                0x0000000000001018       0x58 build/tsb0//home/gerda/SimplicityStudio_v4/developer/sdks/gecko_sdk_suite/v2.6/platform/emlib/src/em_timer.o
 .debug_aranges
                0x0000000000001070       0x28 build/tsb0//home/gerda/node-apps/zoo/thinnect.node-platform/silabs/logger_fwrite.o
 .debug_aranges
                0x0000000000001098       0x38 build/tsb0//home/gerda/node-apps/zoo/thinnect.lll/logging/loggers_ext.o
 .debug_aranges
                0x00000000000010d0       0x28 build/tsb0//home/gerda/SimplicityStudio_v4/developer/sdks/gecko_sdk_suite/v2.6/platform/Device/SiliconLabs/EFR32MG12P/Source/GCC/startup_efr32mg12p.o
 .debug_aranges
                0x00000000000010f8       0x68 build/tsb0//home/gerda/SimplicityStudio_v4/developer/sdks/gecko_sdk_suite/v2.6/platform/Device/SiliconLabs/EFR32MG12P/Source/system_efr32mg12p.o
 .debug_aranges
                0x0000000000001160       0x40 build/tsb0//home/gerda/node-apps/zoo/thinnect.dev-platforms/make/boards/../../src/boards/tsb0/platform.o
 .debug_aranges
                0x00000000000011a0       0xc0 build/tsb0//home/gerda/node-apps/zoo/thinnect.node-platform/silabs/platform_io.o

.debug_ranges   0x0000000000000000     0x10d0
 .debug_ranges  0x0000000000000000       0x40 build/tsb0/blink_main.o
 .debug_ranges  0x0000000000000040       0x78 build/tsb0/timer_handler.o
 .debug_ranges  0x00000000000000b8       0x70 build/tsb0//home/gerda/node-apps/zoo/FreeRTOS-Kernel/portable/GCC/ARM_CM4F/port.o
 .debug_ranges  0x0000000000000128       0x40 build/tsb0//home/gerda/node-apps/zoo/FreeRTOS-Kernel/portable/MemMang/heap_5.o
 .debug_ranges  0x0000000000000168      0x130 build/tsb0//home/gerda/node-apps/zoo/FreeRTOS-Kernel/queue.o
 .debug_ranges  0x0000000000000298       0x30 build/tsb0//home/gerda/node-apps/zoo/FreeRTOS-Kernel/list.o
 .debug_ranges  0x00000000000002c8      0x1f8 build/tsb0//home/gerda/node-apps/zoo/FreeRTOS-Kernel/tasks.o
 .debug_ranges  0x00000000000004c0       0xe0 build/tsb0//home/gerda/node-apps/zoo/FreeRTOS-Kernel/timers.o
 .debug_ranges  0x00000000000005a0      0x290 build/tsb0//home/gerda/node-apps/zoo/thinnect.cmsis-freertos/CMSIS-FreeRTOS/CMSIS/RTOS2/FreeRTOS/Source/cmsis_os2.o
 .debug_ranges  0x0000000000000830       0x78 build/tsb0//home/gerda/SimplicityStudio_v4/developer/sdks/gecko_sdk_suite/v2.6/hardware/kit/common/drivers/retargetserial.o
 .debug_ranges  0x00000000000008a8       0x58 build/tsb0//home/gerda/SimplicityStudio_v4/developer/sdks/gecko_sdk_suite/v2.6/hardware/kit/common/drivers/retargetio.o
 .debug_ranges  0x0000000000000900       0xd8 build/tsb0//home/gerda/SimplicityStudio_v4/developer/sdks/gecko_sdk_suite/v2.6/platform/emlib/src/em_core.o
 .debug_ranges  0x00000000000009d8      0x1b8 build/tsb0//home/gerda/SimplicityStudio_v4/developer/sdks/gecko_sdk_suite/v2.6/platform/emlib/src/em_emu.o
 .debug_ranges  0x0000000000000b90      0x1a8 build/tsb0//home/gerda/SimplicityStudio_v4/developer/sdks/gecko_sdk_suite/v2.6/platform/emlib/src/em_cmu.o
 .debug_ranges  0x0000000000000d38       0x28 build/tsb0//home/gerda/SimplicityStudio_v4/developer/sdks/gecko_sdk_suite/v2.6/platform/emlib/src/em_rmu.o
 .debug_ranges  0x0000000000000d60       0x78 build/tsb0//home/gerda/SimplicityStudio_v4/developer/sdks/gecko_sdk_suite/v2.6/platform/emlib/src/em_gpio.o
 .debug_ranges  0x0000000000000dd8       0xc0 build/tsb0//home/gerda/SimplicityStudio_v4/developer/sdks/gecko_sdk_suite/v2.6/platform/emlib/src/em_usart.o
 .debug_ranges  0x0000000000000e98       0x60 build/tsb0//home/gerda/SimplicityStudio_v4/developer/sdks/gecko_sdk_suite/v2.6/platform/emlib/src/em_msc.o
 .debug_ranges  0x0000000000000ef8       0x48 build/tsb0//home/gerda/SimplicityStudio_v4/developer/sdks/gecko_sdk_suite/v2.6/platform/emlib/src/em_timer.o
 .debug_ranges  0x0000000000000f40       0x18 build/tsb0//home/gerda/node-apps/zoo/thinnect.node-platform/silabs/logger_fwrite.o
 .debug_ranges  0x0000000000000f58       0x28 build/tsb0//home/gerda/node-apps/zoo/thinnect.lll/logging/loggers_ext.o
 .debug_ranges  0x0000000000000f80       0x18 build/tsb0//home/gerda/SimplicityStudio_v4/developer/sdks/gecko_sdk_suite/v2.6/platform/Device/SiliconLabs/EFR32MG12P/Source/GCC/startup_efr32mg12p.o
 .debug_ranges  0x0000000000000f98       0x58 build/tsb0//home/gerda/SimplicityStudio_v4/developer/sdks/gecko_sdk_suite/v2.6/platform/Device/SiliconLabs/EFR32MG12P/Source/system_efr32mg12p.o
 .debug_ranges  0x0000000000000ff0       0x30 build/tsb0//home/gerda/node-apps/zoo/thinnect.dev-platforms/make/boards/../../src/boards/tsb0/platform.o
 .debug_ranges  0x0000000000001020       0xb0 build/tsb0//home/gerda/node-apps/zoo/thinnect.node-platform/silabs/platform_io.o

.debug_line     0x0000000000000000     0xe677
 .debug_line    0x0000000000000000      0x438 build/tsb0/blink_main.o
 .debug_line    0x0000000000000438      0x554 build/tsb0/timer_handler.o
 .debug_line    0x000000000000098c      0x4c4 build/tsb0//home/gerda/node-apps/zoo/FreeRTOS-Kernel/portable/GCC/ARM_CM4F/port.o
 .debug_line    0x0000000000000e50      0x5ce build/tsb0//home/gerda/node-apps/zoo/FreeRTOS-Kernel/portable/MemMang/heap_5.o
 .debug_line    0x000000000000141e     0x105a build/tsb0//home/gerda/node-apps/zoo/FreeRTOS-Kernel/queue.o
 .debug_line    0x0000000000002478      0x3af build/tsb0//home/gerda/node-apps/zoo/FreeRTOS-Kernel/list.o
 .debug_line    0x0000000000002827     0x17bb build/tsb0//home/gerda/node-apps/zoo/FreeRTOS-Kernel/tasks.o
 .debug_line    0x0000000000003fe2      0x904 build/tsb0//home/gerda/node-apps/zoo/FreeRTOS-Kernel/timers.o
 .debug_line    0x00000000000048e6     0x2907 build/tsb0//home/gerda/node-apps/zoo/thinnect.cmsis-freertos/CMSIS-FreeRTOS/CMSIS/RTOS2/FreeRTOS/Source/cmsis_os2.o
 .debug_line    0x00000000000071ed      0x5c2 build/tsb0//home/gerda/SimplicityStudio_v4/developer/sdks/gecko_sdk_suite/v2.6/hardware/kit/common/drivers/retargetserial.o
 .debug_line    0x00000000000077af      0x3fa build/tsb0//home/gerda/SimplicityStudio_v4/developer/sdks/gecko_sdk_suite/v2.6/hardware/kit/common/drivers/retargetio.o
 .debug_line    0x0000000000007ba9      0x7ea build/tsb0//home/gerda/SimplicityStudio_v4/developer/sdks/gecko_sdk_suite/v2.6/platform/emlib/src/em_core.o
 .debug_line    0x0000000000008393     0x15b5 build/tsb0//home/gerda/SimplicityStudio_v4/developer/sdks/gecko_sdk_suite/v2.6/platform/emlib/src/em_emu.o
 .debug_line    0x0000000000009948     0x1638 build/tsb0//home/gerda/SimplicityStudio_v4/developer/sdks/gecko_sdk_suite/v2.6/platform/emlib/src/em_cmu.o
 .debug_line    0x000000000000af80      0x34f build/tsb0//home/gerda/SimplicityStudio_v4/developer/sdks/gecko_sdk_suite/v2.6/platform/emlib/src/em_rmu.o
 .debug_line    0x000000000000b2cf      0x6c4 build/tsb0//home/gerda/SimplicityStudio_v4/developer/sdks/gecko_sdk_suite/v2.6/platform/emlib/src/em_gpio.o
 .debug_line    0x000000000000b993      0x920 build/tsb0//home/gerda/SimplicityStudio_v4/developer/sdks/gecko_sdk_suite/v2.6/platform/emlib/src/em_usart.o
 .debug_line    0x000000000000c2b3      0x6ed build/tsb0//home/gerda/SimplicityStudio_v4/developer/sdks/gecko_sdk_suite/v2.6/platform/emlib/src/em_msc.o
 .debug_line    0x000000000000c9a0      0x736 build/tsb0//home/gerda/SimplicityStudio_v4/developer/sdks/gecko_sdk_suite/v2.6/platform/emlib/src/em_timer.o
 .debug_line    0x000000000000d0d6      0x1dd build/tsb0//home/gerda/node-apps/zoo/thinnect.node-platform/silabs/logger_fwrite.o
 .debug_line    0x000000000000d2b3      0x39e build/tsb0//home/gerda/node-apps/zoo/thinnect.lll/logging/loggers_ext.o
 .debug_line    0x000000000000d651      0x190 build/tsb0//home/gerda/SimplicityStudio_v4/developer/sdks/gecko_sdk_suite/v2.6/platform/Device/SiliconLabs/EFR32MG12P/Source/GCC/startup_efr32mg12p.o
 .debug_line    0x000000000000d7e1      0x358 build/tsb0//home/gerda/SimplicityStudio_v4/developer/sdks/gecko_sdk_suite/v2.6/platform/Device/SiliconLabs/EFR32MG12P/Source/system_efr32mg12p.o
 .debug_line    0x000000000000db39      0x40a build/tsb0//home/gerda/node-apps/zoo/thinnect.dev-platforms/make/boards/../../src/boards/tsb0/platform.o
 .debug_line    0x000000000000df43      0x734 build/tsb0//home/gerda/node-apps/zoo/thinnect.node-platform/silabs/platform_io.o

.debug_str      0x0000000000000000     0x8b19
 .debug_str     0x0000000000000000      0xfb6 build/tsb0/blink_main.o
                                       0x1035 (size before relaxing)
 .debug_str     0x0000000000000fb6      0x67b build/tsb0/timer_handler.o
                                        0xf37 (size before relaxing)
 .debug_str     0x0000000000001631      0x2c9 build/tsb0//home/gerda/node-apps/zoo/FreeRTOS-Kernel/portable/GCC/ARM_CM4F/port.o
                                        0x4a8 (size before relaxing)
 .debug_str     0x00000000000018fa      0x359 build/tsb0//home/gerda/node-apps/zoo/FreeRTOS-Kernel/portable/MemMang/heap_5.o
                                        0x968 (size before relaxing)
 .debug_str     0x0000000000001c53      0x7fc build/tsb0//home/gerda/node-apps/zoo/FreeRTOS-Kernel/queue.o
                                        0xec9 (size before relaxing)
 .debug_str     0x000000000000244f       0xba build/tsb0//home/gerda/node-apps/zoo/FreeRTOS-Kernel/list.o
                                        0x744 (size before relaxing)
 .debug_str     0x0000000000002509      0xd67 build/tsb0//home/gerda/node-apps/zoo/FreeRTOS-Kernel/tasks.o
                                       0x1622 (size before relaxing)
 .debug_str     0x0000000000003270      0x5c8 build/tsb0//home/gerda/node-apps/zoo/FreeRTOS-Kernel/timers.o
                                        0xef2 (size before relaxing)
 .debug_str     0x0000000000003838      0xf06 build/tsb0//home/gerda/node-apps/zoo/thinnect.cmsis-freertos/CMSIS-FreeRTOS/CMSIS/RTOS2/FreeRTOS/Source/cmsis_os2.o
                                       0x1e7c (size before relaxing)
 .debug_str     0x000000000000473e      0x5da build/tsb0//home/gerda/SimplicityStudio_v4/developer/sdks/gecko_sdk_suite/v2.6/hardware/kit/common/drivers/retargetserial.o
                                       0x13e2 (size before relaxing)
 .debug_str     0x0000000000004d18      0x1be build/tsb0//home/gerda/SimplicityStudio_v4/developer/sdks/gecko_sdk_suite/v2.6/hardware/kit/common/drivers/retargetio.o
                                        0x80e (size before relaxing)
 .debug_str     0x0000000000004ed6      0x327 build/tsb0//home/gerda/SimplicityStudio_v4/developer/sdks/gecko_sdk_suite/v2.6/platform/emlib/src/em_core.o
                                        0x939 (size before relaxing)
 .debug_str     0x00000000000051fd     0x174f build/tsb0//home/gerda/SimplicityStudio_v4/developer/sdks/gecko_sdk_suite/v2.6/platform/emlib/src/em_emu.o
                                       0x1d6c (size before relaxing)
 .debug_str     0x000000000000694c      0xc9f build/tsb0//home/gerda/SimplicityStudio_v4/developer/sdks/gecko_sdk_suite/v2.6/platform/emlib/src/em_cmu.o
                                       0x1a4f (size before relaxing)
 .debug_str     0x00000000000075eb      0x1f4 build/tsb0//home/gerda/SimplicityStudio_v4/developer/sdks/gecko_sdk_suite/v2.6/platform/emlib/src/em_rmu.o
                                        0x411 (size before relaxing)
 .debug_str     0x00000000000077df      0x30b build/tsb0//home/gerda/SimplicityStudio_v4/developer/sdks/gecko_sdk_suite/v2.6/platform/emlib/src/em_gpio.o
                                        0x8db (size before relaxing)
 .debug_str     0x0000000000007aea      0x4c9 build/tsb0//home/gerda/SimplicityStudio_v4/developer/sdks/gecko_sdk_suite/v2.6/platform/emlib/src/em_usart.o
                                        0xdcd (size before relaxing)
 .debug_str     0x0000000000007fb3      0x286 build/tsb0//home/gerda/SimplicityStudio_v4/developer/sdks/gecko_sdk_suite/v2.6/platform/emlib/src/em_msc.o
                                        0x727 (size before relaxing)
 .debug_str     0x0000000000008239      0x26f build/tsb0//home/gerda/SimplicityStudio_v4/developer/sdks/gecko_sdk_suite/v2.6/platform/emlib/src/em_timer.o
                                        0x9d0 (size before relaxing)
 .debug_str     0x00000000000084a8       0x73 build/tsb0//home/gerda/node-apps/zoo/thinnect.node-platform/silabs/logger_fwrite.o
                                        0x67e (size before relaxing)
 .debug_str     0x000000000000851b       0xf3 build/tsb0//home/gerda/node-apps/zoo/thinnect.lll/logging/loggers_ext.o
                                        0x6c5 (size before relaxing)
 .debug_str     0x000000000000860e      0x18e build/tsb0//home/gerda/SimplicityStudio_v4/developer/sdks/gecko_sdk_suite/v2.6/platform/Device/SiliconLabs/EFR32MG12P/Source/GCC/startup_efr32mg12p.o
                                        0x360 (size before relaxing)
 .debug_str     0x000000000000879c      0x160 build/tsb0//home/gerda/SimplicityStudio_v4/developer/sdks/gecko_sdk_suite/v2.6/platform/Device/SiliconLabs/EFR32MG12P/Source/system_efr32mg12p.o
                                        0x697 (size before relaxing)
 .debug_str     0x00000000000088fc       0xae build/tsb0//home/gerda/node-apps/zoo/thinnect.dev-platforms/make/boards/../../src/boards/tsb0/platform.o
                                       0x142c (size before relaxing)
 .debug_str     0x00000000000089aa      0x16f build/tsb0//home/gerda/node-apps/zoo/thinnect.node-platform/silabs/platform_io.o
                                        0xd3c (size before relaxing)

.comment        0x0000000000000000       0x79
 .comment       0x0000000000000000       0x79 build/tsb0/blink_main.o
                                         0x7a (size before relaxing)
 .comment       0x0000000000000079       0x7a build/tsb0/timer_handler.o
 .comment       0x0000000000000079       0x7a build/tsb0//home/gerda/node-apps/zoo/FreeRTOS-Kernel/portable/GCC/ARM_CM4F/port.o
 .comment       0x0000000000000079       0x7a build/tsb0//home/gerda/node-apps/zoo/FreeRTOS-Kernel/portable/MemMang/heap_5.o
 .comment       0x0000000000000079       0x7a build/tsb0//home/gerda/node-apps/zoo/FreeRTOS-Kernel/queue.o
 .comment       0x0000000000000079       0x7a build/tsb0//home/gerda/node-apps/zoo/FreeRTOS-Kernel/list.o
 .comment       0x0000000000000079       0x7a build/tsb0//home/gerda/node-apps/zoo/FreeRTOS-Kernel/tasks.o
 .comment       0x0000000000000079       0x7a build/tsb0//home/gerda/node-apps/zoo/FreeRTOS-Kernel/timers.o
 .comment       0x0000000000000079       0x7a build/tsb0//home/gerda/node-apps/zoo/thinnect.cmsis-freertos/CMSIS-FreeRTOS/CMSIS/RTOS2/FreeRTOS/Source/cmsis_os2.o
 .comment       0x0000000000000079       0x7a build/tsb0//home/gerda/SimplicityStudio_v4/developer/sdks/gecko_sdk_suite/v2.6/hardware/kit/common/drivers/retargetserial.o
 .comment       0x0000000000000079       0x7a build/tsb0//home/gerda/SimplicityStudio_v4/developer/sdks/gecko_sdk_suite/v2.6/hardware/kit/common/drivers/retargetio.o
 .comment       0x0000000000000079       0x7a build/tsb0//home/gerda/SimplicityStudio_v4/developer/sdks/gecko_sdk_suite/v2.6/platform/emlib/src/em_core.o
 .comment       0x0000000000000079       0x7a build/tsb0//home/gerda/SimplicityStudio_v4/developer/sdks/gecko_sdk_suite/v2.6/platform/emlib/src/em_emu.o
 .comment       0x0000000000000079       0x7a build/tsb0//home/gerda/SimplicityStudio_v4/developer/sdks/gecko_sdk_suite/v2.6/platform/emlib/src/em_cmu.o
 .comment       0x0000000000000079       0x7a build/tsb0//home/gerda/SimplicityStudio_v4/developer/sdks/gecko_sdk_suite/v2.6/platform/emlib/src/em_rmu.o
 .comment       0x0000000000000079       0x7a build/tsb0//home/gerda/SimplicityStudio_v4/developer/sdks/gecko_sdk_suite/v2.6/platform/emlib/src/em_gpio.o
 .comment       0x0000000000000079       0x7a build/tsb0//home/gerda/SimplicityStudio_v4/developer/sdks/gecko_sdk_suite/v2.6/platform/emlib/src/em_usart.o
 .comment       0x0000000000000079       0x7a build/tsb0//home/gerda/SimplicityStudio_v4/developer/sdks/gecko_sdk_suite/v2.6/platform/emlib/src/em_msc.o
 .comment       0x0000000000000079       0x7a build/tsb0//home/gerda/SimplicityStudio_v4/developer/sdks/gecko_sdk_suite/v2.6/platform/emlib/src/em_timer.o
 .comment       0x0000000000000079       0x7a build/tsb0//home/gerda/node-apps/zoo/thinnect.node-platform/silabs/logger_fwrite.o
 .comment       0x0000000000000079       0x7a build/tsb0//home/gerda/node-apps/zoo/thinnect.lll/logging/loggers_ext.o
 .comment       0x0000000000000079       0x7a build/tsb0//home/gerda/SimplicityStudio_v4/developer/sdks/gecko_sdk_suite/v2.6/platform/Device/SiliconLabs/EFR32MG12P/Source/GCC/startup_efr32mg12p.o
 .comment       0x0000000000000079       0x7a build/tsb0//home/gerda/SimplicityStudio_v4/developer/sdks/gecko_sdk_suite/v2.6/platform/Device/SiliconLabs/EFR32MG12P/Source/system_efr32mg12p.o
 .comment       0x0000000000000079       0x7a build/tsb0//home/gerda/node-apps/zoo/thinnect.dev-platforms/make/boards/../../src/boards/tsb0/platform.o
 .comment       0x0000000000000079       0x7a build/tsb0//home/gerda/node-apps/zoo/thinnect.node-platform/silabs/platform_io.o

.ARM.attributes
                0x0000000000000000       0x30
 .ARM.attributes
                0x0000000000000000       0x32 build/tsb0/blink_main.o
 .ARM.attributes
                0x0000000000000032       0x32 build/tsb0/timer_handler.o
 .ARM.attributes
                0x0000000000000064       0x32 build/tsb0//home/gerda/node-apps/zoo/FreeRTOS-Kernel/portable/GCC/ARM_CM4F/port.o
 .ARM.attributes
                0x0000000000000096       0x32 build/tsb0//home/gerda/node-apps/zoo/FreeRTOS-Kernel/portable/MemMang/heap_5.o
 .ARM.attributes
                0x00000000000000c8       0x32 build/tsb0//home/gerda/node-apps/zoo/FreeRTOS-Kernel/queue.o
 .ARM.attributes
                0x00000000000000fa       0x32 build/tsb0//home/gerda/node-apps/zoo/FreeRTOS-Kernel/list.o
 .ARM.attributes
                0x000000000000012c       0x32 build/tsb0//home/gerda/node-apps/zoo/FreeRTOS-Kernel/tasks.o
 .ARM.attributes
                0x000000000000015e       0x32 build/tsb0//home/gerda/node-apps/zoo/FreeRTOS-Kernel/timers.o
 .ARM.attributes
                0x0000000000000190       0x32 build/tsb0//home/gerda/node-apps/zoo/thinnect.cmsis-freertos/CMSIS-FreeRTOS/CMSIS/RTOS2/FreeRTOS/Source/cmsis_os2.o
 .ARM.attributes
                0x00000000000001c2       0x32 build/tsb0//home/gerda/SimplicityStudio_v4/developer/sdks/gecko_sdk_suite/v2.6/hardware/kit/common/drivers/retargetserial.o
 .ARM.attributes
                0x00000000000001f4       0x32 build/tsb0//home/gerda/SimplicityStudio_v4/developer/sdks/gecko_sdk_suite/v2.6/hardware/kit/common/drivers/retargetio.o
 .ARM.attributes
                0x0000000000000226       0x32 build/tsb0//home/gerda/SimplicityStudio_v4/developer/sdks/gecko_sdk_suite/v2.6/platform/emlib/src/em_core.o
 .ARM.attributes
                0x0000000000000258       0x32 build/tsb0//home/gerda/SimplicityStudio_v4/developer/sdks/gecko_sdk_suite/v2.6/platform/emlib/src/em_emu.o
 .ARM.attributes
                0x000000000000028a       0x32 build/tsb0//home/gerda/SimplicityStudio_v4/developer/sdks/gecko_sdk_suite/v2.6/platform/emlib/src/em_cmu.o
 .ARM.attributes
                0x00000000000002bc       0x32 build/tsb0//home/gerda/SimplicityStudio_v4/developer/sdks/gecko_sdk_suite/v2.6/platform/emlib/src/em_rmu.o
 .ARM.attributes
                0x00000000000002ee       0x32 build/tsb0//home/gerda/SimplicityStudio_v4/developer/sdks/gecko_sdk_suite/v2.6/platform/emlib/src/em_gpio.o
 .ARM.attributes
                0x0000000000000320       0x32 build/tsb0//home/gerda/SimplicityStudio_v4/developer/sdks/gecko_sdk_suite/v2.6/platform/emlib/src/em_usart.o
 .ARM.attributes
                0x0000000000000352       0x32 build/tsb0//home/gerda/SimplicityStudio_v4/developer/sdks/gecko_sdk_suite/v2.6/platform/emlib/src/em_msc.o
 .ARM.attributes
                0x0000000000000384       0x32 build/tsb0//home/gerda/SimplicityStudio_v4/developer/sdks/gecko_sdk_suite/v2.6/platform/emlib/src/em_timer.o
 .ARM.attributes
                0x00000000000003b6       0x32 build/tsb0//home/gerda/node-apps/zoo/thinnect.node-platform/silabs/logger_fwrite.o
 .ARM.attributes
                0x00000000000003e8       0x32 build/tsb0//home/gerda/node-apps/zoo/thinnect.lll/logging/loggers_ext.o
 .ARM.attributes
                0x000000000000041a       0x32 build/tsb0//home/gerda/SimplicityStudio_v4/developer/sdks/gecko_sdk_suite/v2.6/platform/Device/SiliconLabs/EFR32MG12P/Source/GCC/startup_efr32mg12p.o
 .ARM.attributes
                0x000000000000044c       0x32 build/tsb0//home/gerda/SimplicityStudio_v4/developer/sdks/gecko_sdk_suite/v2.6/platform/Device/SiliconLabs/EFR32MG12P/Source/system_efr32mg12p.o
 .ARM.attributes
                0x000000000000047e       0x32 build/tsb0//home/gerda/node-apps/zoo/thinnect.dev-platforms/make/boards/../../src/boards/tsb0/platform.o
 .ARM.attributes
                0x00000000000004b0       0x32 build/tsb0//home/gerda/node-apps/zoo/thinnect.node-platform/silabs/platform_io.o
 .ARM.attributes
                0x00000000000004e2       0x1e /opt/gcc-arm-none-eabi-9-2019-q4-major/bin/../lib/gcc/arm-none-eabi/9.2.1/thumb/v7e-m+fp/softfp/libgcc.a(_aeabi_uldivmod.o)
 .ARM.attributes
                0x0000000000000500       0x32 /opt/gcc-arm-none-eabi-9-2019-q4-major/bin/../lib/gcc/arm-none-eabi/9.2.1/thumb/v7e-m+fp/softfp/libgcc.a(_udivmoddi4.o)
 .ARM.attributes
                0x0000000000000532       0x1e /opt/gcc-arm-none-eabi-9-2019-q4-major/bin/../lib/gcc/arm-none-eabi/9.2.1/thumb/v7e-m+fp/softfp/libgcc.a(_dvmd_tls.o)
 .ARM.attributes
                0x0000000000000550       0x32 /opt/gcc-arm-none-eabi-9-2019-q4-major/bin/../lib/gcc/arm-none-eabi/9.2.1/../../../../arm-none-eabi/lib/thumb/v7e-m+fp/softfp/libg.a(lib_a-fflush.o)
 .ARM.attributes
                0x0000000000000582       0x32 /opt/gcc-arm-none-eabi-9-2019-q4-major/bin/../lib/gcc/arm-none-eabi/9.2.1/../../../../arm-none-eabi/lib/thumb/v7e-m+fp/softfp/libg.a(lib_a-findfp.o)
 .ARM.attributes
                0x00000000000005b4       0x32 /opt/gcc-arm-none-eabi-9-2019-q4-major/bin/../lib/gcc/arm-none-eabi/9.2.1/../../../../arm-none-eabi/lib/thumb/v7e-m+fp/softfp/libg.a(lib_a-freer.o)
 .ARM.attributes
                0x00000000000005e6       0x32 /opt/gcc-arm-none-eabi-9-2019-q4-major/bin/../lib/gcc/arm-none-eabi/9.2.1/../../../../arm-none-eabi/lib/thumb/v7e-m+fp/softfp/libg.a(lib_a-fwalk.o)
 .ARM.attributes
                0x0000000000000618       0x32 /opt/gcc-arm-none-eabi-9-2019-q4-major/bin/../lib/gcc/arm-none-eabi/9.2.1/../../../../arm-none-eabi/lib/thumb/v7e-m+fp/softfp/libg.a(lib_a-fwrite.o)
 .ARM.attributes
                0x000000000000064a       0x30 /opt/gcc-arm-none-eabi-9-2019-q4-major/bin/../lib/gcc/arm-none-eabi/9.2.1/../../../../arm-none-eabi/lib/thumb/v7e-m+fp/softfp/libg.a(lib_a-impure.o)
 .ARM.attributes
                0x000000000000067a       0x32 /opt/gcc-arm-none-eabi-9-2019-q4-major/bin/../lib/gcc/arm-none-eabi/9.2.1/../../../../arm-none-eabi/lib/thumb/v7e-m+fp/softfp/libg.a(lib_a-lock.o)
 .ARM.attributes
                0x00000000000006ac       0x32 /opt/gcc-arm-none-eabi-9-2019-q4-major/bin/../lib/gcc/arm-none-eabi/9.2.1/../../../../arm-none-eabi/lib/thumb/v7e-m+fp/softfp/libg.a(lib_a-mallocr.o)
 .ARM.attributes
                0x00000000000006de       0x1c /opt/gcc-arm-none-eabi-9-2019-q4-major/bin/../lib/gcc/arm-none-eabi/9.2.1/../../../../arm-none-eabi/lib/thumb/v7e-m+fp/softfp/libg.a(lib_a-memcpy.o)
 .ARM.attributes
                0x00000000000006fa       0x32 /opt/gcc-arm-none-eabi-9-2019-q4-major/bin/../lib/gcc/arm-none-eabi/9.2.1/../../../../arm-none-eabi/lib/thumb/v7e-m+fp/softfp/libg.a(lib_a-memset.o)
 .ARM.attributes
                0x000000000000072c       0x32 /opt/gcc-arm-none-eabi-9-2019-q4-major/bin/../lib/gcc/arm-none-eabi/9.2.1/../../../../arm-none-eabi/lib/thumb/v7e-m+fp/softfp/libg.a(lib_a-mlock.o)
 .ARM.attributes
                0x000000000000075e       0x32 /opt/gcc-arm-none-eabi-9-2019-q4-major/bin/../lib/gcc/arm-none-eabi/9.2.1/../../../../arm-none-eabi/lib/thumb/v7e-m+fp/softfp/libg.a(lib_a-sbrkr.o)
 .ARM.attributes
                0x0000000000000790       0x32 /opt/gcc-arm-none-eabi-9-2019-q4-major/bin/../lib/gcc/arm-none-eabi/9.2.1/../../../../arm-none-eabi/lib/thumb/v7e-m+fp/softfp/libg.a(lib_a-setvbuf.o)
 .ARM.attributes
                0x00000000000007c2       0x32 /opt/gcc-arm-none-eabi-9-2019-q4-major/bin/../lib/gcc/arm-none-eabi/9.2.1/../../../../arm-none-eabi/lib/thumb/v7e-m+fp/softfp/libg.a(lib_a-snprintf.o)
 .ARM.attributes
                0x00000000000007f4       0x32 /opt/gcc-arm-none-eabi-9-2019-q4-major/bin/../lib/gcc/arm-none-eabi/9.2.1/../../../../arm-none-eabi/lib/thumb/v7e-m+fp/softfp/libg.a(lib_a-stdio.o)
 .ARM.attributes
                0x0000000000000826       0x32 /opt/gcc-arm-none-eabi-9-2019-q4-major/bin/../lib/gcc/arm-none-eabi/9.2.1/../../../../arm-none-eabi/lib/thumb/v7e-m+fp/softfp/libg.a(lib_a-svfprintf.o)
 .ARM.attributes
                0x0000000000000858       0x32 /opt/gcc-arm-none-eabi-9-2019-q4-major/bin/../lib/gcc/arm-none-eabi/9.2.1/../../../../arm-none-eabi/lib/thumb/v7e-m+fp/softfp/libg.a(lib_a-vsnprintf.o)
 .ARM.attributes
                0x000000000000088a       0x32 /opt/gcc-arm-none-eabi-9-2019-q4-major/bin/../lib/gcc/arm-none-eabi/9.2.1/../../../../arm-none-eabi/lib/thumb/v7e-m+fp/softfp/libg.a(lib_a-writer.o)
 .ARM.attributes
                0x00000000000008bc       0x32 /opt/gcc-arm-none-eabi-9-2019-q4-major/bin/../lib/gcc/arm-none-eabi/9.2.1/../../../../arm-none-eabi/lib/thumb/v7e-m+fp/softfp/libg.a(lib_a-closer.o)
 .ARM.attributes
                0x00000000000008ee       0x32 /opt/gcc-arm-none-eabi-9-2019-q4-major/bin/../lib/gcc/arm-none-eabi/9.2.1/../../../../arm-none-eabi/lib/thumb/v7e-m+fp/softfp/libg.a(lib_a-dtoa.o)
 .ARM.attributes
                0x0000000000000920       0x32 /opt/gcc-arm-none-eabi-9-2019-q4-major/bin/../lib/gcc/arm-none-eabi/9.2.1/../../../../arm-none-eabi/lib/thumb/v7e-m+fp/softfp/libg.a(lib_a-fclose.o)
 .ARM.attributes
                0x0000000000000952       0x32 /opt/gcc-arm-none-eabi-9-2019-q4-major/bin/../lib/gcc/arm-none-eabi/9.2.1/../../../../arm-none-eabi/lib/thumb/v7e-m+fp/softfp/libg.a(lib_a-fvwrite.o)
 .ARM.attributes
                0x0000000000000984       0x32 /opt/gcc-arm-none-eabi-9-2019-q4-major/bin/../lib/gcc/arm-none-eabi/9.2.1/../../../../arm-none-eabi/lib/thumb/v7e-m+fp/softfp/libg.a(lib_a-localeconv.o)
 .ARM.attributes
                0x00000000000009b6       0x32 /opt/gcc-arm-none-eabi-9-2019-q4-major/bin/../lib/gcc/arm-none-eabi/9.2.1/../../../../arm-none-eabi/lib/thumb/v7e-m+fp/softfp/libg.a(lib_a-lseekr.o)
 .ARM.attributes
                0x00000000000009e8       0x32 /opt/gcc-arm-none-eabi-9-2019-q4-major/bin/../lib/gcc/arm-none-eabi/9.2.1/../../../../arm-none-eabi/lib/thumb/v7e-m+fp/softfp/libg.a(lib_a-makebuf.o)
 .ARM.attributes
                0x0000000000000a1a       0x32 /opt/gcc-arm-none-eabi-9-2019-q4-major/bin/../lib/gcc/arm-none-eabi/9.2.1/../../../../arm-none-eabi/lib/thumb/v7e-m+fp/softfp/libg.a(lib_a-malloc.o)
 .ARM.attributes
                0x0000000000000a4c       0x1c /opt/gcc-arm-none-eabi-9-2019-q4-major/bin/../lib/gcc/arm-none-eabi/9.2.1/../../../../arm-none-eabi/lib/thumb/v7e-m+fp/softfp/libg.a(lib_a-memchr.o)
 .ARM.attributes
                0x0000000000000a68       0x32 /opt/gcc-arm-none-eabi-9-2019-q4-major/bin/../lib/gcc/arm-none-eabi/9.2.1/../../../../arm-none-eabi/lib/thumb/v7e-m+fp/softfp/libg.a(lib_a-memmove.o)
 .ARM.attributes
                0x0000000000000a9a       0x32 /opt/gcc-arm-none-eabi-9-2019-q4-major/bin/../lib/gcc/arm-none-eabi/9.2.1/../../../../arm-none-eabi/lib/thumb/v7e-m+fp/softfp/libg.a(lib_a-mprec.o)
 .ARM.attributes
                0x0000000000000acc       0x32 /opt/gcc-arm-none-eabi-9-2019-q4-major/bin/../lib/gcc/arm-none-eabi/9.2.1/../../../../arm-none-eabi/lib/thumb/v7e-m+fp/softfp/libg.a(lib_a-readr.o)
 .ARM.attributes
                0x0000000000000afe       0x32 /opt/gcc-arm-none-eabi-9-2019-q4-major/bin/../lib/gcc/arm-none-eabi/9.2.1/../../../../arm-none-eabi/lib/thumb/v7e-m+fp/softfp/libg.a(lib_a-reallocr.o)
 .ARM.attributes
                0x0000000000000b30       0x32 /opt/gcc-arm-none-eabi-9-2019-q4-major/bin/../lib/gcc/arm-none-eabi/9.2.1/../../../../arm-none-eabi/lib/thumb/v7e-m+fp/softfp/libg.a(lib_a-reent.o)
 .ARM.attributes
                0x0000000000000b62       0x32 /opt/gcc-arm-none-eabi-9-2019-q4-major/bin/../lib/gcc/arm-none-eabi/9.2.1/../../../../arm-none-eabi/lib/thumb/v7e-m+fp/softfp/libg.a(lib_a-s_frexp.o)
 .ARM.attributes
                0x0000000000000b94       0x1c /opt/gcc-arm-none-eabi-9-2019-q4-major/bin/../lib/gcc/arm-none-eabi/9.2.1/../../../../arm-none-eabi/lib/thumb/v7e-m+fp/softfp/libg.a(lib_a-strlen.o)
 .ARM.attributes
                0x0000000000000bb0       0x32 /opt/gcc-arm-none-eabi-9-2019-q4-major/bin/../lib/gcc/arm-none-eabi/9.2.1/../../../../arm-none-eabi/lib/thumb/v7e-m+fp/softfp/libg.a(lib_a-strncpy.o)
 .ARM.attributes
                0x0000000000000be2       0x32 /opt/gcc-arm-none-eabi-9-2019-q4-major/bin/../lib/gcc/arm-none-eabi/9.2.1/../../../../arm-none-eabi/lib/thumb/v7e-m+fp/softfp/libg.a(lib_a-svfiprintf.o)
 .ARM.attributes
                0x0000000000000c14       0x32 /opt/gcc-arm-none-eabi-9-2019-q4-major/bin/../lib/gcc/arm-none-eabi/9.2.1/../../../../arm-none-eabi/lib/thumb/v7e-m+fp/softfp/libg.a(lib_a-wsetup.o)
 .ARM.attributes
                0x0000000000000c46       0x32 /opt/gcc-arm-none-eabi-9-2019-q4-major/bin/../lib/gcc/arm-none-eabi/9.2.1/../../../../arm-none-eabi/lib/thumb/v7e-m+fp/softfp/libg.a(lib_a-callocr.o)
 .ARM.attributes
                0x0000000000000c78       0x32 /opt/gcc-arm-none-eabi-9-2019-q4-major/bin/../lib/gcc/arm-none-eabi/9.2.1/../../../../arm-none-eabi/lib/thumb/v7e-m+fp/softfp/libg.a(lib_a-fstatr.o)
 .ARM.attributes
                0x0000000000000caa       0x32 /opt/gcc-arm-none-eabi-9-2019-q4-major/bin/../lib/gcc/arm-none-eabi/9.2.1/../../../../arm-none-eabi/lib/thumb/v7e-m+fp/softfp/libg.a(lib_a-isattyr.o)
 .ARM.attributes
                0x0000000000000cdc       0x32 /opt/gcc-arm-none-eabi-9-2019-q4-major/bin/../lib/gcc/arm-none-eabi/9.2.1/../../../../arm-none-eabi/lib/thumb/v7e-m+fp/softfp/libg.a(lib_a-locale.o)
 .ARM.attributes
                0x0000000000000d0e       0x32 /opt/gcc-arm-none-eabi-9-2019-q4-major/bin/../lib/gcc/arm-none-eabi/9.2.1/../../../../arm-none-eabi/lib/thumb/v7e-m+fp/softfp/libg.a(lib_a-mbtowc_r.o)
 .ARM.attributes
                0x0000000000000d40       0x32 /opt/gcc-arm-none-eabi-9-2019-q4-major/bin/../lib/gcc/arm-none-eabi/9.2.1/../../../../arm-none-eabi/lib/thumb/v7e-m+fp/softfp/libg.a(lib_a-wctomb_r.o)
 .ARM.attributes
                0x0000000000000d72       0x30 /opt/gcc-arm-none-eabi-9-2019-q4-major/bin/../lib/gcc/arm-none-eabi/9.2.1/../../../../arm-none-eabi/lib/thumb/v7e-m+fp/softfp/libg.a(lib_a-ctype_.o)
 .ARM.attributes
                0x0000000000000da2       0x1e /opt/gcc-arm-none-eabi-9-2019-q4-major/bin/../lib/gcc/arm-none-eabi/9.2.1/thumb/v7e-m+fp/softfp/libgcc.a(_arm_addsubdf3.o)
 .ARM.attributes
                0x0000000000000dc0       0x1e /opt/gcc-arm-none-eabi-9-2019-q4-major/bin/../lib/gcc/arm-none-eabi/9.2.1/thumb/v7e-m+fp/softfp/libgcc.a(_arm_muldivdf3.o)
 .ARM.attributes
                0x0000000000000dde       0x1e /opt/gcc-arm-none-eabi-9-2019-q4-major/bin/../lib/gcc/arm-none-eabi/9.2.1/thumb/v7e-m+fp/softfp/libgcc.a(_arm_cmpdf2.o)
 .ARM.attributes
                0x0000000000000dfc       0x1e /opt/gcc-arm-none-eabi-9-2019-q4-major/bin/../lib/gcc/arm-none-eabi/9.2.1/thumb/v7e-m+fp/softfp/libgcc.a(_arm_unorddf2.o)
 .ARM.attributes
                0x0000000000000e1a       0x1e /opt/gcc-arm-none-eabi-9-2019-q4-major/bin/../lib/gcc/arm-none-eabi/9.2.1/thumb/v7e-m+fp/softfp/libgcc.a(_arm_fixdfsi.o)

.debug_frame    0x0000000000000000     0x5c60
 .debug_frame   0x0000000000000000       0xfc build/tsb0/blink_main.o
 .debug_frame   0x00000000000000fc      0x20c build/tsb0/timer_handler.o
 .debug_frame   0x0000000000000308      0x1a0 build/tsb0//home/gerda/node-apps/zoo/FreeRTOS-Kernel/portable/GCC/ARM_CM4F/port.o
 .debug_frame   0x00000000000004a8      0x10c build/tsb0//home/gerda/node-apps/zoo/FreeRTOS-Kernel/portable/MemMang/heap_5.o
 .debug_frame   0x00000000000005b4      0x570 build/tsb0//home/gerda/node-apps/zoo/FreeRTOS-Kernel/queue.o
 .debug_frame   0x0000000000000b24       0xd8 build/tsb0//home/gerda/node-apps/zoo/FreeRTOS-Kernel/list.o
 .debug_frame   0x0000000000000bfc      0x8e8 build/tsb0//home/gerda/node-apps/zoo/FreeRTOS-Kernel/tasks.o
 .debug_frame   0x00000000000014e4      0x3f4 build/tsb0//home/gerda/node-apps/zoo/FreeRTOS-Kernel/timers.o
 .debug_frame   0x00000000000018d8      0xb98 build/tsb0//home/gerda/node-apps/zoo/thinnect.cmsis-freertos/CMSIS-FreeRTOS/CMSIS/RTOS2/FreeRTOS/Source/cmsis_os2.o
 .debug_frame   0x0000000000002470      0x208 build/tsb0//home/gerda/SimplicityStudio_v4/developer/sdks/gecko_sdk_suite/v2.6/hardware/kit/common/drivers/retargetserial.o
 .debug_frame   0x0000000000002678      0x184 build/tsb0//home/gerda/SimplicityStudio_v4/developer/sdks/gecko_sdk_suite/v2.6/hardware/kit/common/drivers/retargetio.o
 .debug_frame   0x00000000000027fc      0x3dc build/tsb0//home/gerda/SimplicityStudio_v4/developer/sdks/gecko_sdk_suite/v2.6/platform/emlib/src/em_core.o
 .debug_frame   0x0000000000002bd8      0x790 build/tsb0//home/gerda/SimplicityStudio_v4/developer/sdks/gecko_sdk_suite/v2.6/platform/emlib/src/em_emu.o
 .debug_frame   0x0000000000003368      0x784 build/tsb0//home/gerda/SimplicityStudio_v4/developer/sdks/gecko_sdk_suite/v2.6/platform/emlib/src/em_cmu.o
 .debug_frame   0x0000000000003aec       0xa4 build/tsb0//home/gerda/SimplicityStudio_v4/developer/sdks/gecko_sdk_suite/v2.6/platform/emlib/src/em_rmu.o
 .debug_frame   0x0000000000003b90      0x224 build/tsb0//home/gerda/SimplicityStudio_v4/developer/sdks/gecko_sdk_suite/v2.6/platform/emlib/src/em_gpio.o
 .debug_frame   0x0000000000003db4      0x384 build/tsb0//home/gerda/SimplicityStudio_v4/developer/sdks/gecko_sdk_suite/v2.6/platform/emlib/src/em_usart.o
 .debug_frame   0x0000000000004138      0x1a0 build/tsb0//home/gerda/SimplicityStudio_v4/developer/sdks/gecko_sdk_suite/v2.6/platform/emlib/src/em_msc.o
 .debug_frame   0x00000000000042d8      0x140 build/tsb0//home/gerda/SimplicityStudio_v4/developer/sdks/gecko_sdk_suite/v2.6/platform/emlib/src/em_timer.o
 .debug_frame   0x0000000000004418       0x50 build/tsb0//home/gerda/node-apps/zoo/thinnect.node-platform/silabs/logger_fwrite.o
 .debug_frame   0x0000000000004468       0xd0 build/tsb0//home/gerda/node-apps/zoo/thinnect.lll/logging/loggers_ext.o
 .debug_frame   0x0000000000004538       0x48 build/tsb0//home/gerda/SimplicityStudio_v4/developer/sdks/gecko_sdk_suite/v2.6/platform/Device/SiliconLabs/EFR32MG12P/Source/GCC/startup_efr32mg12p.o
 .debug_frame   0x0000000000004580      0x164 build/tsb0//home/gerda/SimplicityStudio_v4/developer/sdks/gecko_sdk_suite/v2.6/platform/Device/SiliconLabs/EFR32MG12P/Source/system_efr32mg12p.o
 .debug_frame   0x00000000000046e4       0xb8 build/tsb0//home/gerda/node-apps/zoo/thinnect.dev-platforms/make/boards/../../src/boards/tsb0/platform.o
 .debug_frame   0x000000000000479c      0x2f8 build/tsb0//home/gerda/node-apps/zoo/thinnect.node-platform/silabs/platform_io.o
 .debug_frame   0x0000000000004a94       0x2c /opt/gcc-arm-none-eabi-9-2019-q4-major/bin/../lib/gcc/arm-none-eabi/9.2.1/thumb/v7e-m+fp/softfp/libgcc.a(_aeabi_uldivmod.o)
 .debug_frame   0x0000000000004ac0       0x34 /opt/gcc-arm-none-eabi-9-2019-q4-major/bin/../lib/gcc/arm-none-eabi/9.2.1/thumb/v7e-m+fp/softfp/libgcc.a(_udivmoddi4.o)
 .debug_frame   0x0000000000004af4       0x5c /opt/gcc-arm-none-eabi-9-2019-q4-major/bin/../lib/gcc/arm-none-eabi/9.2.1/../../../../arm-none-eabi/lib/thumb/v7e-m+fp/softfp/libg.a(lib_a-fflush.o)
 .debug_frame   0x0000000000004b50      0x14c /opt/gcc-arm-none-eabi-9-2019-q4-major/bin/../lib/gcc/arm-none-eabi/9.2.1/../../../../arm-none-eabi/lib/thumb/v7e-m+fp/softfp/libg.a(lib_a-findfp.o)
 .debug_frame   0x0000000000004c9c       0x8c /opt/gcc-arm-none-eabi-9-2019-q4-major/bin/../lib/gcc/arm-none-eabi/9.2.1/../../../../arm-none-eabi/lib/thumb/v7e-m+fp/softfp/libg.a(lib_a-freer.o)
 .debug_frame   0x0000000000004d28       0x54 /opt/gcc-arm-none-eabi-9-2019-q4-major/bin/../lib/gcc/arm-none-eabi/9.2.1/../../../../arm-none-eabi/lib/thumb/v7e-m+fp/softfp/libg.a(lib_a-fwalk.o)
 .debug_frame   0x0000000000004d7c       0x64 /opt/gcc-arm-none-eabi-9-2019-q4-major/bin/../lib/gcc/arm-none-eabi/9.2.1/../../../../arm-none-eabi/lib/thumb/v7e-m+fp/softfp/libg.a(lib_a-fwrite.o)
 .debug_frame   0x0000000000004de0       0xb0 /opt/gcc-arm-none-eabi-9-2019-q4-major/bin/../lib/gcc/arm-none-eabi/9.2.1/../../../../arm-none-eabi/lib/thumb/v7e-m+fp/softfp/libg.a(lib_a-lock.o)
 .debug_frame   0x0000000000004e90       0x4c /opt/gcc-arm-none-eabi-9-2019-q4-major/bin/../lib/gcc/arm-none-eabi/9.2.1/../../../../arm-none-eabi/lib/thumb/v7e-m+fp/softfp/libg.a(lib_a-mallocr.o)
 .debug_frame   0x0000000000004edc       0x38 /opt/gcc-arm-none-eabi-9-2019-q4-major/bin/../lib/gcc/arm-none-eabi/9.2.1/../../../../arm-none-eabi/lib/thumb/v7e-m+fp/softfp/libg.a(lib_a-memset.o)
 .debug_frame   0x0000000000004f14       0x30 /opt/gcc-arm-none-eabi-9-2019-q4-major/bin/../lib/gcc/arm-none-eabi/9.2.1/../../../../arm-none-eabi/lib/thumb/v7e-m+fp/softfp/libg.a(lib_a-mlock.o)
 .debug_frame   0x0000000000004f44       0x2c /opt/gcc-arm-none-eabi-9-2019-q4-major/bin/../lib/gcc/arm-none-eabi/9.2.1/../../../../arm-none-eabi/lib/thumb/v7e-m+fp/softfp/libg.a(lib_a-sbrkr.o)
 .debug_frame   0x0000000000004f70       0x48 /opt/gcc-arm-none-eabi-9-2019-q4-major/bin/../lib/gcc/arm-none-eabi/9.2.1/../../../../arm-none-eabi/lib/thumb/v7e-m+fp/softfp/libg.a(lib_a-setvbuf.o)
 .debug_frame   0x0000000000004fb8       0x9c /opt/gcc-arm-none-eabi-9-2019-q4-major/bin/../lib/gcc/arm-none-eabi/9.2.1/../../../../arm-none-eabi/lib/thumb/v7e-m+fp/softfp/libg.a(lib_a-snprintf.o)
 .debug_frame   0x0000000000005054       0x8c /opt/gcc-arm-none-eabi-9-2019-q4-major/bin/../lib/gcc/arm-none-eabi/9.2.1/../../../../arm-none-eabi/lib/thumb/v7e-m+fp/softfp/libg.a(lib_a-stdio.o)
 .debug_frame   0x00000000000050e0       0x68 /opt/gcc-arm-none-eabi-9-2019-q4-major/bin/../lib/gcc/arm-none-eabi/9.2.1/../../../../arm-none-eabi/lib/thumb/v7e-m+fp/softfp/libg.a(lib_a-svfprintf.o)
 .debug_frame   0x0000000000005148       0x60 /opt/gcc-arm-none-eabi-9-2019-q4-major/bin/../lib/gcc/arm-none-eabi/9.2.1/../../../../arm-none-eabi/lib/thumb/v7e-m+fp/softfp/libg.a(lib_a-vsnprintf.o)
 .debug_frame   0x00000000000051a8       0x2c /opt/gcc-arm-none-eabi-9-2019-q4-major/bin/../lib/gcc/arm-none-eabi/9.2.1/../../../../arm-none-eabi/lib/thumb/v7e-m+fp/softfp/libg.a(lib_a-writer.o)
 .debug_frame   0x00000000000051d4       0x2c /opt/gcc-arm-none-eabi-9-2019-q4-major/bin/../lib/gcc/arm-none-eabi/9.2.1/../../../../arm-none-eabi/lib/thumb/v7e-m+fp/softfp/libg.a(lib_a-closer.o)
 .debug_frame   0x0000000000005200       0xc4 /opt/gcc-arm-none-eabi-9-2019-q4-major/bin/../lib/gcc/arm-none-eabi/9.2.1/../../../../arm-none-eabi/lib/thumb/v7e-m+fp/softfp/libg.a(lib_a-dtoa.o)
 .debug_frame   0x00000000000052c4       0x3c /opt/gcc-arm-none-eabi-9-2019-q4-major/bin/../lib/gcc/arm-none-eabi/9.2.1/../../../../arm-none-eabi/lib/thumb/v7e-m+fp/softfp/libg.a(lib_a-fclose.o)
 .debug_frame   0x0000000000005300       0x64 /opt/gcc-arm-none-eabi-9-2019-q4-major/bin/../lib/gcc/arm-none-eabi/9.2.1/../../../../arm-none-eabi/lib/thumb/v7e-m+fp/softfp/libg.a(lib_a-fvwrite.o)
 .debug_frame   0x0000000000005364       0x40 /opt/gcc-arm-none-eabi-9-2019-q4-major/bin/../lib/gcc/arm-none-eabi/9.2.1/../../../../arm-none-eabi/lib/thumb/v7e-m+fp/softfp/libg.a(lib_a-localeconv.o)
 .debug_frame   0x00000000000053a4       0x2c /opt/gcc-arm-none-eabi-9-2019-q4-major/bin/../lib/gcc/arm-none-eabi/9.2.1/../../../../arm-none-eabi/lib/thumb/v7e-m+fp/softfp/libg.a(lib_a-lseekr.o)
 .debug_frame   0x00000000000053d0       0x6c /opt/gcc-arm-none-eabi-9-2019-q4-major/bin/../lib/gcc/arm-none-eabi/9.2.1/../../../../arm-none-eabi/lib/thumb/v7e-m+fp/softfp/libg.a(lib_a-makebuf.o)
 .debug_frame   0x000000000000543c       0x30 /opt/gcc-arm-none-eabi-9-2019-q4-major/bin/../lib/gcc/arm-none-eabi/9.2.1/../../../../arm-none-eabi/lib/thumb/v7e-m+fp/softfp/libg.a(lib_a-malloc.o)
 .debug_frame   0x000000000000546c       0x40 /opt/gcc-arm-none-eabi-9-2019-q4-major/bin/../lib/gcc/arm-none-eabi/9.2.1/../../../../arm-none-eabi/lib/thumb/v7e-m+fp/softfp/libg.a(lib_a-memmove.o)
 .debug_frame   0x00000000000054ac      0x264 /opt/gcc-arm-none-eabi-9-2019-q4-major/bin/../lib/gcc/arm-none-eabi/9.2.1/../../../../arm-none-eabi/lib/thumb/v7e-m+fp/softfp/libg.a(lib_a-mprec.o)
 .debug_frame   0x0000000000005710       0x2c /opt/gcc-arm-none-eabi-9-2019-q4-major/bin/../lib/gcc/arm-none-eabi/9.2.1/../../../../arm-none-eabi/lib/thumb/v7e-m+fp/softfp/libg.a(lib_a-readr.o)
 .debug_frame   0x000000000000573c       0x48 /opt/gcc-arm-none-eabi-9-2019-q4-major/bin/../lib/gcc/arm-none-eabi/9.2.1/../../../../arm-none-eabi/lib/thumb/v7e-m+fp/softfp/libg.a(lib_a-reallocr.o)
 .debug_frame   0x0000000000005784       0x60 /opt/gcc-arm-none-eabi-9-2019-q4-major/bin/../lib/gcc/arm-none-eabi/9.2.1/../../../../arm-none-eabi/lib/thumb/v7e-m+fp/softfp/libg.a(lib_a-reent.o)
 .debug_frame   0x00000000000057e4       0x30 /opt/gcc-arm-none-eabi-9-2019-q4-major/bin/../lib/gcc/arm-none-eabi/9.2.1/../../../../arm-none-eabi/lib/thumb/v7e-m+fp/softfp/libg.a(lib_a-s_frexp.o)
 .debug_frame   0x0000000000005814       0x38 /opt/gcc-arm-none-eabi-9-2019-q4-major/bin/../lib/gcc/arm-none-eabi/9.2.1/../../../../arm-none-eabi/lib/thumb/v7e-m+fp/softfp/libg.a(lib_a-strncpy.o)
 .debug_frame   0x000000000000584c       0x88 /opt/gcc-arm-none-eabi-9-2019-q4-major/bin/../lib/gcc/arm-none-eabi/9.2.1/../../../../arm-none-eabi/lib/thumb/v7e-m+fp/softfp/libg.a(lib_a-svfiprintf.o)
 .debug_frame   0x00000000000058d4       0x2c /opt/gcc-arm-none-eabi-9-2019-q4-major/bin/../lib/gcc/arm-none-eabi/9.2.1/../../../../arm-none-eabi/lib/thumb/v7e-m+fp/softfp/libg.a(lib_a-wsetup.o)
 .debug_frame   0x0000000000005900       0x28 /opt/gcc-arm-none-eabi-9-2019-q4-major/bin/../lib/gcc/arm-none-eabi/9.2.1/../../../../arm-none-eabi/lib/thumb/v7e-m+fp/softfp/libg.a(lib_a-callocr.o)
 .debug_frame   0x0000000000005928       0x2c /opt/gcc-arm-none-eabi-9-2019-q4-major/bin/../lib/gcc/arm-none-eabi/9.2.1/../../../../arm-none-eabi/lib/thumb/v7e-m+fp/softfp/libg.a(lib_a-fstatr.o)
 .debug_frame   0x0000000000005954       0x2c /opt/gcc-arm-none-eabi-9-2019-q4-major/bin/../lib/gcc/arm-none-eabi/9.2.1/../../../../arm-none-eabi/lib/thumb/v7e-m+fp/softfp/libg.a(lib_a-isattyr.o)
 .debug_frame   0x0000000000005980       0x54 /opt/gcc-arm-none-eabi-9-2019-q4-major/bin/../lib/gcc/arm-none-eabi/9.2.1/../../../../arm-none-eabi/lib/thumb/v7e-m+fp/softfp/libg.a(lib_a-locale.o)
 .debug_frame   0x00000000000059d4       0x4c /opt/gcc-arm-none-eabi-9-2019-q4-major/bin/../lib/gcc/arm-none-eabi/9.2.1/../../../../arm-none-eabi/lib/thumb/v7e-m+fp/softfp/libg.a(lib_a-mbtowc_r.o)
 .debug_frame   0x0000000000005a20       0x3c /opt/gcc-arm-none-eabi-9-2019-q4-major/bin/../lib/gcc/arm-none-eabi/9.2.1/../../../../arm-none-eabi/lib/thumb/v7e-m+fp/softfp/libg.a(lib_a-wctomb_r.o)
 .debug_frame   0x0000000000005a5c       0xac /opt/gcc-arm-none-eabi-9-2019-q4-major/bin/../lib/gcc/arm-none-eabi/9.2.1/thumb/v7e-m+fp/softfp/libgcc.a(_arm_addsubdf3.o)
 .debug_frame   0x0000000000005b08       0x50 /opt/gcc-arm-none-eabi-9-2019-q4-major/bin/../lib/gcc/arm-none-eabi/9.2.1/thumb/v7e-m+fp/softfp/libgcc.a(_arm_muldivdf3.o)
 .debug_frame   0x0000000000005b58       0xc4 /opt/gcc-arm-none-eabi-9-2019-q4-major/bin/../lib/gcc/arm-none-eabi/9.2.1/thumb/v7e-m+fp/softfp/libgcc.a(_arm_cmpdf2.o)
 .debug_frame   0x0000000000005c1c       0x20 /opt/gcc-arm-none-eabi-9-2019-q4-major/bin/../lib/gcc/arm-none-eabi/9.2.1/thumb/v7e-m+fp/softfp/libgcc.a(_arm_unorddf2.o)
 .debug_frame   0x0000000000005c3c       0x24 /opt/gcc-arm-none-eabi-9-2019-q4-major/bin/../lib/gcc/arm-none-eabi/9.2.1/thumb/v7e-m+fp/softfp/libgcc.a(_arm_fixdfsi.o)

Cross Reference Table

Symbol                                            File
ACMP0_IRQHandler                                  build/tsb0//home/gerda/SimplicityStudio_v4/developer/sdks/gecko_sdk_suite/v2.6/platform/Device/SiliconLabs/EFR32MG12P/Source/GCC/startup_efr32mg12p.o
ADC0_IRQHandler                                   build/tsb0//home/gerda/SimplicityStudio_v4/developer/sdks/gecko_sdk_suite/v2.6/platform/Device/SiliconLabs/EFR32MG12P/Source/GCC/startup_efr32mg12p.o
AGC_IRQHandler                                    build/tsb0//home/gerda/SimplicityStudio_v4/developer/sdks/gecko_sdk_suite/v2.6/platform/Device/SiliconLabs/EFR32MG12P/Source/GCC/startup_efr32mg12p.o
BUFC_IRQHandler                                   build/tsb0//home/gerda/SimplicityStudio_v4/developer/sdks/gecko_sdk_suite/v2.6/platform/Device/SiliconLabs/EFR32MG12P/Source/GCC/startup_efr32mg12p.o
BusFault_Handler                                  build/tsb0//home/gerda/SimplicityStudio_v4/developer/sdks/gecko_sdk_suite/v2.6/platform/Device/SiliconLabs/EFR32MG12P/Source/GCC/startup_efr32mg12p.o
CMU_AUXHFRCOBandGet                               build/tsb0//home/gerda/SimplicityStudio_v4/developer/sdks/gecko_sdk_suite/v2.6/platform/emlib/src/em_cmu.o
CMU_AUXHFRCOBandSet                               build/tsb0//home/gerda/SimplicityStudio_v4/developer/sdks/gecko_sdk_suite/v2.6/platform/emlib/src/em_cmu.o
CMU_Calibrate                                     build/tsb0//home/gerda/SimplicityStudio_v4/developer/sdks/gecko_sdk_suite/v2.6/platform/emlib/src/em_cmu.o
CMU_CalibrateConfig                               build/tsb0//home/gerda/SimplicityStudio_v4/developer/sdks/gecko_sdk_suite/v2.6/platform/emlib/src/em_cmu.o
CMU_CalibrateCountGet                             build/tsb0//home/gerda/SimplicityStudio_v4/developer/sdks/gecko_sdk_suite/v2.6/platform/emlib/src/em_cmu.o
CMU_ClockDivGet                                   build/tsb0//home/gerda/SimplicityStudio_v4/developer/sdks/gecko_sdk_suite/v2.6/platform/emlib/src/em_cmu.o
CMU_ClockDivSet                                   build/tsb0//home/gerda/SimplicityStudio_v4/developer/sdks/gecko_sdk_suite/v2.6/platform/emlib/src/em_cmu.o
CMU_ClockEnable                                   build/tsb0//home/gerda/SimplicityStudio_v4/developer/sdks/gecko_sdk_suite/v2.6/platform/emlib/src/em_cmu.o
                                                  build/tsb0//home/gerda/node-apps/zoo/thinnect.node-platform/silabs/platform_io.o
                                                  build/tsb0//home/gerda/SimplicityStudio_v4/developer/sdks/gecko_sdk_suite/v2.6/hardware/kit/common/drivers/retargetserial.o
                                                  build/tsb0/timer_handler.o
                                                  build/tsb0/blink_main.o
CMU_ClockFreqGet                                  build/tsb0//home/gerda/SimplicityStudio_v4/developer/sdks/gecko_sdk_suite/v2.6/platform/emlib/src/em_cmu.o
                                                  build/tsb0//home/gerda/SimplicityStudio_v4/developer/sdks/gecko_sdk_suite/v2.6/platform/emlib/src/em_usart.o
CMU_ClockPrescGet                                 build/tsb0//home/gerda/SimplicityStudio_v4/developer/sdks/gecko_sdk_suite/v2.6/platform/emlib/src/em_cmu.o
CMU_ClockPrescSet                                 build/tsb0//home/gerda/SimplicityStudio_v4/developer/sdks/gecko_sdk_suite/v2.6/platform/emlib/src/em_cmu.o
CMU_ClockSelectGet                                build/tsb0//home/gerda/SimplicityStudio_v4/developer/sdks/gecko_sdk_suite/v2.6/platform/emlib/src/em_cmu.o
                                                  build/tsb0//home/gerda/SimplicityStudio_v4/developer/sdks/gecko_sdk_suite/v2.6/platform/emlib/src/em_emu.o
CMU_ClockSelectSet                                build/tsb0//home/gerda/SimplicityStudio_v4/developer/sdks/gecko_sdk_suite/v2.6/platform/emlib/src/em_cmu.o
                                                  build/tsb0//home/gerda/node-apps/zoo/thinnect.dev-platforms/make/boards/../../src/boards/tsb0/platform.o
                                                  build/tsb0//home/gerda/SimplicityStudio_v4/developer/sdks/gecko_sdk_suite/v2.6/platform/emlib/src/em_emu.o
CMU_DPLLLock                                      build/tsb0//home/gerda/SimplicityStudio_v4/developer/sdks/gecko_sdk_suite/v2.6/platform/emlib/src/em_cmu.o
CMU_FreezeEnable                                  build/tsb0//home/gerda/SimplicityStudio_v4/developer/sdks/gecko_sdk_suite/v2.6/platform/emlib/src/em_cmu.o
CMU_HFRCOBandGet                                  build/tsb0//home/gerda/SimplicityStudio_v4/developer/sdks/gecko_sdk_suite/v2.6/platform/emlib/src/em_cmu.o
CMU_HFRCOBandSet                                  build/tsb0//home/gerda/SimplicityStudio_v4/developer/sdks/gecko_sdk_suite/v2.6/platform/emlib/src/em_cmu.o
CMU_HFXOAutostartEnable                           build/tsb0//home/gerda/SimplicityStudio_v4/developer/sdks/gecko_sdk_suite/v2.6/platform/emlib/src/em_cmu.o
CMU_HFXOInit                                      build/tsb0//home/gerda/SimplicityStudio_v4/developer/sdks/gecko_sdk_suite/v2.6/platform/emlib/src/em_cmu.o
                                                  build/tsb0//home/gerda/node-apps/zoo/thinnect.dev-platforms/make/boards/../../src/boards/tsb0/platform.o
CMU_IRQHandler                                    build/tsb0//home/gerda/SimplicityStudio_v4/developer/sdks/gecko_sdk_suite/v2.6/platform/Device/SiliconLabs/EFR32MG12P/Source/GCC/startup_efr32mg12p.o
CMU_LCDClkFDIVGet                                 build/tsb0//home/gerda/SimplicityStudio_v4/developer/sdks/gecko_sdk_suite/v2.6/platform/emlib/src/em_cmu.o
CMU_LCDClkFDIVSet                                 build/tsb0//home/gerda/SimplicityStudio_v4/developer/sdks/gecko_sdk_suite/v2.6/platform/emlib/src/em_cmu.o
CMU_LFXOInit                                      build/tsb0//home/gerda/SimplicityStudio_v4/developer/sdks/gecko_sdk_suite/v2.6/platform/emlib/src/em_cmu.o
CMU_OscillatorEnable                              build/tsb0//home/gerda/SimplicityStudio_v4/developer/sdks/gecko_sdk_suite/v2.6/platform/emlib/src/em_cmu.o
                                                  build/tsb0//home/gerda/node-apps/zoo/thinnect.dev-platforms/make/boards/../../src/boards/tsb0/platform.o
CMU_OscillatorTuningGet                           build/tsb0//home/gerda/SimplicityStudio_v4/developer/sdks/gecko_sdk_suite/v2.6/platform/emlib/src/em_cmu.o
CMU_OscillatorTuningOptimize                      build/tsb0//home/gerda/SimplicityStudio_v4/developer/sdks/gecko_sdk_suite/v2.6/platform/emlib/src/em_cmu.o
CMU_OscillatorTuningSet                           build/tsb0//home/gerda/SimplicityStudio_v4/developer/sdks/gecko_sdk_suite/v2.6/platform/emlib/src/em_cmu.o
CMU_OscillatorTuningWait                          build/tsb0//home/gerda/SimplicityStudio_v4/developer/sdks/gecko_sdk_suite/v2.6/platform/emlib/src/em_cmu.o
CMU_PCNTClockExternalGet                          build/tsb0//home/gerda/SimplicityStudio_v4/developer/sdks/gecko_sdk_suite/v2.6/platform/emlib/src/em_cmu.o
CMU_PCNTClockExternalSet                          build/tsb0//home/gerda/SimplicityStudio_v4/developer/sdks/gecko_sdk_suite/v2.6/platform/emlib/src/em_cmu.o
CMU_UpdateWaitStates                              build/tsb0//home/gerda/SimplicityStudio_v4/developer/sdks/gecko_sdk_suite/v2.6/platform/emlib/src/em_cmu.o
                                                  build/tsb0//home/gerda/SimplicityStudio_v4/developer/sdks/gecko_sdk_suite/v2.6/platform/emlib/src/em_emu.o
CORE_AtomicDisableIrq                             build/tsb0//home/gerda/SimplicityStudio_v4/developer/sdks/gecko_sdk_suite/v2.6/platform/emlib/src/em_core.o
CORE_AtomicEnableIrq                              build/tsb0//home/gerda/SimplicityStudio_v4/developer/sdks/gecko_sdk_suite/v2.6/platform/emlib/src/em_core.o
CORE_CriticalDisableIrq                           build/tsb0//home/gerda/SimplicityStudio_v4/developer/sdks/gecko_sdk_suite/v2.6/platform/emlib/src/em_core.o
CORE_CriticalEnableIrq                            build/tsb0//home/gerda/SimplicityStudio_v4/developer/sdks/gecko_sdk_suite/v2.6/platform/emlib/src/em_core.o
CORE_EnterAtomic                                  build/tsb0//home/gerda/SimplicityStudio_v4/developer/sdks/gecko_sdk_suite/v2.6/platform/emlib/src/em_core.o
                                                  build/tsb0//home/gerda/SimplicityStudio_v4/developer/sdks/gecko_sdk_suite/v2.6/hardware/kit/common/drivers/retargetserial.o
CORE_EnterCritical                                build/tsb0//home/gerda/SimplicityStudio_v4/developer/sdks/gecko_sdk_suite/v2.6/platform/emlib/src/em_core.o
CORE_EnterNvicMask                                build/tsb0//home/gerda/SimplicityStudio_v4/developer/sdks/gecko_sdk_suite/v2.6/platform/emlib/src/em_core.o
CORE_ExitAtomic                                   build/tsb0//home/gerda/SimplicityStudio_v4/developer/sdks/gecko_sdk_suite/v2.6/platform/emlib/src/em_core.o
                                                  build/tsb0//home/gerda/SimplicityStudio_v4/developer/sdks/gecko_sdk_suite/v2.6/hardware/kit/common/drivers/retargetserial.o
CORE_ExitCritical                                 build/tsb0//home/gerda/SimplicityStudio_v4/developer/sdks/gecko_sdk_suite/v2.6/platform/emlib/src/em_core.o
CORE_GetNvicEnabledMask                           build/tsb0//home/gerda/SimplicityStudio_v4/developer/sdks/gecko_sdk_suite/v2.6/platform/emlib/src/em_core.o
CORE_GetNvicMaskDisableState                      build/tsb0//home/gerda/SimplicityStudio_v4/developer/sdks/gecko_sdk_suite/v2.6/platform/emlib/src/em_core.o
CORE_GetNvicRamTableHandler                       build/tsb0//home/gerda/SimplicityStudio_v4/developer/sdks/gecko_sdk_suite/v2.6/platform/emlib/src/em_core.o
CORE_InIrqContext                                 build/tsb0//home/gerda/SimplicityStudio_v4/developer/sdks/gecko_sdk_suite/v2.6/platform/emlib/src/em_core.o
CORE_InitNvicVectorTable                          build/tsb0//home/gerda/SimplicityStudio_v4/developer/sdks/gecko_sdk_suite/v2.6/platform/emlib/src/em_core.o
CORE_IrqIsBlocked                                 build/tsb0//home/gerda/SimplicityStudio_v4/developer/sdks/gecko_sdk_suite/v2.6/platform/emlib/src/em_core.o
CORE_IrqIsDisabled                                build/tsb0//home/gerda/SimplicityStudio_v4/developer/sdks/gecko_sdk_suite/v2.6/platform/emlib/src/em_core.o
CORE_NvicDisableMask                              build/tsb0//home/gerda/SimplicityStudio_v4/developer/sdks/gecko_sdk_suite/v2.6/platform/emlib/src/em_core.o
CORE_NvicEnableMask                               build/tsb0//home/gerda/SimplicityStudio_v4/developer/sdks/gecko_sdk_suite/v2.6/platform/emlib/src/em_core.o
CORE_NvicIRQDisabled                              build/tsb0//home/gerda/SimplicityStudio_v4/developer/sdks/gecko_sdk_suite/v2.6/platform/emlib/src/em_core.o
CORE_NvicMaskClearIRQ                             build/tsb0//home/gerda/SimplicityStudio_v4/developer/sdks/gecko_sdk_suite/v2.6/platform/emlib/src/em_core.o
CORE_NvicMaskSetIRQ                               build/tsb0//home/gerda/SimplicityStudio_v4/developer/sdks/gecko_sdk_suite/v2.6/platform/emlib/src/em_core.o
CORE_SetNvicRamTableHandler                       build/tsb0//home/gerda/SimplicityStudio_v4/developer/sdks/gecko_sdk_suite/v2.6/platform/emlib/src/em_core.o
CORE_YieldAtomic                                  build/tsb0//home/gerda/SimplicityStudio_v4/developer/sdks/gecko_sdk_suite/v2.6/platform/emlib/src/em_core.o
CORE_YieldCritical                                build/tsb0//home/gerda/SimplicityStudio_v4/developer/sdks/gecko_sdk_suite/v2.6/platform/emlib/src/em_core.o
CORE_YieldNvicMask                                build/tsb0//home/gerda/SimplicityStudio_v4/developer/sdks/gecko_sdk_suite/v2.6/platform/emlib/src/em_core.o
CRYOTIMER_IRQHandler                              build/tsb0//home/gerda/SimplicityStudio_v4/developer/sdks/gecko_sdk_suite/v2.6/platform/Device/SiliconLabs/EFR32MG12P/Source/GCC/startup_efr32mg12p.o
CRYPTO0_IRQHandler                                build/tsb0//home/gerda/SimplicityStudio_v4/developer/sdks/gecko_sdk_suite/v2.6/platform/Device/SiliconLabs/EFR32MG12P/Source/GCC/startup_efr32mg12p.o
CRYPTO1_IRQHandler                                build/tsb0//home/gerda/SimplicityStudio_v4/developer/sdks/gecko_sdk_suite/v2.6/platform/Device/SiliconLabs/EFR32MG12P/Source/GCC/startup_efr32mg12p.o
CSEN_IRQHandler                                   build/tsb0//home/gerda/SimplicityStudio_v4/developer/sdks/gecko_sdk_suite/v2.6/platform/Device/SiliconLabs/EFR32MG12P/Source/GCC/startup_efr32mg12p.o
DebugMon_Handler                                  build/tsb0//home/gerda/SimplicityStudio_v4/developer/sdks/gecko_sdk_suite/v2.6/platform/Device/SiliconLabs/EFR32MG12P/Source/GCC/startup_efr32mg12p.o
Default_Handler                                   build/tsb0//home/gerda/SimplicityStudio_v4/developer/sdks/gecko_sdk_suite/v2.6/platform/Device/SiliconLabs/EFR32MG12P/Source/GCC/startup_efr32mg12p.o
EMU_DCDCConductionModeSet                         build/tsb0//home/gerda/SimplicityStudio_v4/developer/sdks/gecko_sdk_suite/v2.6/platform/emlib/src/em_emu.o
EMU_DCDCInit                                      build/tsb0//home/gerda/SimplicityStudio_v4/developer/sdks/gecko_sdk_suite/v2.6/platform/emlib/src/em_emu.o
EMU_DCDCLnRcoBandSet                              build/tsb0//home/gerda/SimplicityStudio_v4/developer/sdks/gecko_sdk_suite/v2.6/platform/emlib/src/em_emu.o
EMU_DCDCModeSet                                   build/tsb0//home/gerda/SimplicityStudio_v4/developer/sdks/gecko_sdk_suite/v2.6/platform/emlib/src/em_emu.o
EMU_DCDCOptimizeSlice                             build/tsb0//home/gerda/SimplicityStudio_v4/developer/sdks/gecko_sdk_suite/v2.6/platform/emlib/src/em_emu.o
EMU_DCDCOutputVoltageSet                          build/tsb0//home/gerda/SimplicityStudio_v4/developer/sdks/gecko_sdk_suite/v2.6/platform/emlib/src/em_emu.o
EMU_DCDCPowerOff                                  build/tsb0//home/gerda/SimplicityStudio_v4/developer/sdks/gecko_sdk_suite/v2.6/platform/emlib/src/em_emu.o
EMU_EM01Init                                      build/tsb0//home/gerda/SimplicityStudio_v4/developer/sdks/gecko_sdk_suite/v2.6/platform/emlib/src/em_emu.o
EMU_EM23Init                                      build/tsb0//home/gerda/SimplicityStudio_v4/developer/sdks/gecko_sdk_suite/v2.6/platform/emlib/src/em_emu.o
EMU_EM23PostsleepHook                             build/tsb0//home/gerda/SimplicityStudio_v4/developer/sdks/gecko_sdk_suite/v2.6/platform/emlib/src/em_emu.o
EMU_EM23PresleepHook                              build/tsb0//home/gerda/SimplicityStudio_v4/developer/sdks/gecko_sdk_suite/v2.6/platform/emlib/src/em_emu.o
EMU_EM4Init                                       build/tsb0//home/gerda/SimplicityStudio_v4/developer/sdks/gecko_sdk_suite/v2.6/platform/emlib/src/em_emu.o
EMU_EnterEM2                                      build/tsb0//home/gerda/SimplicityStudio_v4/developer/sdks/gecko_sdk_suite/v2.6/platform/emlib/src/em_emu.o
EMU_EnterEM3                                      build/tsb0//home/gerda/SimplicityStudio_v4/developer/sdks/gecko_sdk_suite/v2.6/platform/emlib/src/em_emu.o
EMU_EnterEM4                                      build/tsb0//home/gerda/SimplicityStudio_v4/developer/sdks/gecko_sdk_suite/v2.6/platform/emlib/src/em_emu.o
EMU_EnterEM4H                                     build/tsb0//home/gerda/SimplicityStudio_v4/developer/sdks/gecko_sdk_suite/v2.6/platform/emlib/src/em_emu.o
EMU_EnterEM4S                                     build/tsb0//home/gerda/SimplicityStudio_v4/developer/sdks/gecko_sdk_suite/v2.6/platform/emlib/src/em_emu.o
EMU_IRQHandler                                    build/tsb0//home/gerda/SimplicityStudio_v4/developer/sdks/gecko_sdk_suite/v2.6/platform/Device/SiliconLabs/EFR32MG12P/Source/GCC/startup_efr32mg12p.o
EMU_MemPwrDown                                    build/tsb0//home/gerda/SimplicityStudio_v4/developer/sdks/gecko_sdk_suite/v2.6/platform/emlib/src/em_emu.o
EMU_PeripheralRetention                           build/tsb0//home/gerda/SimplicityStudio_v4/developer/sdks/gecko_sdk_suite/v2.6/platform/emlib/src/em_emu.o
EMU_RamPowerDown                                  build/tsb0//home/gerda/SimplicityStudio_v4/developer/sdks/gecko_sdk_suite/v2.6/platform/emlib/src/em_emu.o
EMU_RamPowerUp                                    build/tsb0//home/gerda/SimplicityStudio_v4/developer/sdks/gecko_sdk_suite/v2.6/platform/emlib/src/em_emu.o
EMU_Restore                                       build/tsb0//home/gerda/SimplicityStudio_v4/developer/sdks/gecko_sdk_suite/v2.6/platform/emlib/src/em_emu.o
EMU_Save                                          build/tsb0//home/gerda/SimplicityStudio_v4/developer/sdks/gecko_sdk_suite/v2.6/platform/emlib/src/em_emu.o
EMU_UpdateOscConfig                               build/tsb0//home/gerda/SimplicityStudio_v4/developer/sdks/gecko_sdk_suite/v2.6/platform/emlib/src/em_emu.o
EMU_VScaleEM01                                    build/tsb0//home/gerda/SimplicityStudio_v4/developer/sdks/gecko_sdk_suite/v2.6/platform/emlib/src/em_emu.o
EMU_VScaleEM01ByClock                             build/tsb0//home/gerda/SimplicityStudio_v4/developer/sdks/gecko_sdk_suite/v2.6/platform/emlib/src/em_emu.o
                                                  build/tsb0//home/gerda/SimplicityStudio_v4/developer/sdks/gecko_sdk_suite/v2.6/platform/emlib/src/em_cmu.o
EMU_VmonChannelStatusGet                          build/tsb0//home/gerda/SimplicityStudio_v4/developer/sdks/gecko_sdk_suite/v2.6/platform/emlib/src/em_emu.o
EMU_VmonEnable                                    build/tsb0//home/gerda/SimplicityStudio_v4/developer/sdks/gecko_sdk_suite/v2.6/platform/emlib/src/em_emu.o
EMU_VmonHystInit                                  build/tsb0//home/gerda/SimplicityStudio_v4/developer/sdks/gecko_sdk_suite/v2.6/platform/emlib/src/em_emu.o
EMU_VmonInit                                      build/tsb0//home/gerda/SimplicityStudio_v4/developer/sdks/gecko_sdk_suite/v2.6/platform/emlib/src/em_emu.o
FPUEH_IRQHandler                                  build/tsb0//home/gerda/SimplicityStudio_v4/developer/sdks/gecko_sdk_suite/v2.6/platform/Device/SiliconLabs/EFR32MG12P/Source/GCC/startup_efr32mg12p.o
FRC_IRQHandler                                    build/tsb0//home/gerda/SimplicityStudio_v4/developer/sdks/gecko_sdk_suite/v2.6/platform/Device/SiliconLabs/EFR32MG12P/Source/GCC/startup_efr32mg12p.o
FRC_PRI_IRQHandler                                build/tsb0//home/gerda/SimplicityStudio_v4/developer/sdks/gecko_sdk_suite/v2.6/platform/Device/SiliconLabs/EFR32MG12P/Source/GCC/startup_efr32mg12p.o
GPIO_DbgLocationSet                               build/tsb0//home/gerda/SimplicityStudio_v4/developer/sdks/gecko_sdk_suite/v2.6/platform/emlib/src/em_gpio.o
GPIO_DriveStrengthSet                             build/tsb0//home/gerda/SimplicityStudio_v4/developer/sdks/gecko_sdk_suite/v2.6/platform/emlib/src/em_gpio.o
GPIO_EM4EnablePinWakeup                           build/tsb0//home/gerda/SimplicityStudio_v4/developer/sdks/gecko_sdk_suite/v2.6/platform/emlib/src/em_gpio.o
GPIO_EVEN_IRQHandler                              build/tsb0//home/gerda/SimplicityStudio_v4/developer/sdks/gecko_sdk_suite/v2.6/platform/Device/SiliconLabs/EFR32MG12P/Source/GCC/startup_efr32mg12p.o
GPIO_ExtIntConfig                                 build/tsb0//home/gerda/SimplicityStudio_v4/developer/sdks/gecko_sdk_suite/v2.6/platform/emlib/src/em_gpio.o
GPIO_ODD_IRQHandler                               build/tsb0//home/gerda/SimplicityStudio_v4/developer/sdks/gecko_sdk_suite/v2.6/platform/Device/SiliconLabs/EFR32MG12P/Source/GCC/startup_efr32mg12p.o
GPIO_PinModeGet                                   build/tsb0//home/gerda/SimplicityStudio_v4/developer/sdks/gecko_sdk_suite/v2.6/platform/emlib/src/em_gpio.o
GPIO_PinModeSet                                   build/tsb0//home/gerda/SimplicityStudio_v4/developer/sdks/gecko_sdk_suite/v2.6/platform/emlib/src/em_gpio.o
                                                  build/tsb0//home/gerda/node-apps/zoo/thinnect.node-platform/silabs/platform_io.o
                                                  build/tsb0//home/gerda/SimplicityStudio_v4/developer/sdks/gecko_sdk_suite/v2.6/hardware/kit/common/drivers/retargetserial.o
                                                  build/tsb0/blink_main.o
HardFault_Handler                                 build/tsb0//home/gerda/SimplicityStudio_v4/developer/sdks/gecko_sdk_suite/v2.6/platform/Device/SiliconLabs/EFR32MG12P/Source/GCC/startup_efr32mg12p.o
I2C0_IRQHandler                                   build/tsb0//home/gerda/SimplicityStudio_v4/developer/sdks/gecko_sdk_suite/v2.6/platform/Device/SiliconLabs/EFR32MG12P/Source/GCC/startup_efr32mg12p.o
I2C1_IRQHandler                                   build/tsb0//home/gerda/SimplicityStudio_v4/developer/sdks/gecko_sdk_suite/v2.6/platform/Device/SiliconLabs/EFR32MG12P/Source/GCC/startup_efr32mg12p.o
IDAC0_IRQHandler                                  build/tsb0//home/gerda/SimplicityStudio_v4/developer/sdks/gecko_sdk_suite/v2.6/platform/Device/SiliconLabs/EFR32MG12P/Source/GCC/startup_efr32mg12p.o
LDMA_IRQHandler                                   build/tsb0//home/gerda/SimplicityStudio_v4/developer/sdks/gecko_sdk_suite/v2.6/platform/Device/SiliconLabs/EFR32MG12P/Source/GCC/startup_efr32mg12p.o
LESENSE_IRQHandler                                build/tsb0//home/gerda/SimplicityStudio_v4/developer/sdks/gecko_sdk_suite/v2.6/platform/Device/SiliconLabs/EFR32MG12P/Source/GCC/startup_efr32mg12p.o
LETIMER0_IRQHandler                               build/tsb0//home/gerda/SimplicityStudio_v4/developer/sdks/gecko_sdk_suite/v2.6/platform/Device/SiliconLabs/EFR32MG12P/Source/GCC/startup_efr32mg12p.o
